:020000040800F2
:10000000005000200D5600085556000855560008AF
:1000100055560008555600085556000800000000C7
:10002000000000000000000000000000555600081D
:10003000555600080000000055560008855300087A
:1000400055560008555600085556000855560008E4
:1000500055560008555600085556000855560008D4
:1000600055560008555600085556000855560008C4
:1000700055560008555600085556000855560008B4
:1000800055560008555600085556000855560008A4
:100090005556000855560008555600085556000894
:1000A0005556000855560008555600085556000884
:1000B0002D5400085556000855560008555600089E
:1000C0005556000855560008555600085556000864
:1000D0005556000855560008555600089D5400080E
:1000E000B15400085556000855560008000000009D
:1000F0000000000000000000000000000000000000
:0C01000000000000000000005FF808F1A3
:1001100010B5054C237833B9044B13B10448AFF341
:1001200000800123237010BD90000020000000001B
:100130006C8D000808B5034B1BB103490348AFF3AE
:10014000008008BD00000000940000206C8D0008B5
:1001500081F0004102E000BF83F0004330B54FEA78
:1001600041044FEA430594EA050F08BF90EA020FE5
:100170001FBF54EA000C55EA020C7FEA645C7FEA78
:10018000655C00F0E2804FEA5454D4EB5555B8BF9B
:100190006D420CDD2C4480EA020281EA030382EA0C
:1001A000000083EA010180EA020281EA0303362D9E
:1001B00088BF30BD11F0004F4FEA01314FF4801C71
:1001C0004CEA113102D0404261EB410113F0004F83
:1001D0004FEA03334CEA133302D0524263EB43033A
:1001E00094EA050F00F0A780A4F10104D5F1200ED8
:1001F0000DDB02FA0EFC22FA05F2801841F1000133
:1002000003FA0EF2801843FA05F359410EE0A5F106
:1002100020050EF1200E012A03FA0EFC28BF4CF037
:10022000020C43FA05F3C01851EBE37101F00045ED
:1002300007D54FF0000EDCF1000C7EEB00006EEBFA
:100240000101B1F5801F1BD3B1F5001F0CD3490884
:100250005FEA30004FEA3C0C04F101044FEA4452DB
:1002600012F5800F80F09A80BCF1004F08BF5FEA62
:10027000500C50F1000041EB045141EA050130BD42
:100280005FEA4C0C404141EB0101013C28BFB1F554
:10029000801FE9D291F0000F04BF01460020B1FA9F
:1002A00081F308BF2033A3F10B03B3F120020CDA72
:1002B0000C3208DD02F1140CC2F10C0201FA0CF050
:1002C00021FA02F10CE002F11402D8BFC2F1200CB5
:1002D00001FA02F120FA0CFCDCBF41EA0C0190406B
:1002E000E41AA2BF01EB0451294330BD6FEA0404B4
:1002F0001F3C1CDA0C340EDC04F11404C4F120029F
:1003000020FA04F001FA02F340EA030021FA04F3B0
:1003100045EA030130BDC4F10C04C4F1200220FA07
:1003200002F001FA04F340EA0300294630BD21FA45
:1003300004F0294630BD94F0000F83F4801306BF0B
:1003400081F480110134013D4EE77FEA645C18BFFF
:100350007FEA655C29D094EA050F08BF90EA020F96
:1003600005D054EA000C04BF1946104630BD91EA8E
:10037000030F1EBF0021002030BD5FEA545C05D191
:100380004000494128BF41F0004130BD14F58004D0
:100390003CBF01F5801130BD01F0004545F0FE4144
:1003A00041F470014FF0000030BD7FEA645C1ABF79
:1003B000194610467FEA655C1CBF0B46024650EAB0
:1003C000013406BF52EA033591EA030F41F40021DC
:1003D00030BD00BF90F0000F04BF0021704730B562
:1003E0004FF4806404F132044FF000054FF0000137
:1003F00050E700BF90F0000F04BF0021704730B5F8
:100400004FF4806404F1320410F0004548BF4042CC
:100410004FF000013EE700BF42004FEAE2014FEA21
:1004200031014FEA02701FBF12F07F4393F07F4FFC
:1004300081F06051704732F07F4208BF704793F0FF
:100440007F4F04BF41F40021704730B54FF4607412
:1004500001F0004521F000411CE700BF50EA010215
:1004600008BF704730B54FF000050AE050EA0102BE
:1004700008BF704730B511F0004502D5404261EB2E
:1004800041014FF4806404F132045FEA915C3FF46F
:10049000D8AE4FF003025FEADC0C18BF03325FEA0C
:1004A000DC0C18BF033202EBDC02C2F1200300FABD
:1004B00003FC20FA02F001FA03FE40EA0E0021FAE2
:1004C00002F11444BDE600BF4FF0FF3C06E000BF60
:1004D0004FF0010C02E000BF4FF0010C4DF804CDCD
:1004E0004FEA410C7FEA6C5C4FEA430C18BF7FEA8D
:1004F0006C5C1BD001B050EA410C0CBF52EA430CBB
:1005000091EA030F02BF90EA020F0020704710F13A
:10051000000F91EA030F58BF994208BF90422CBFC9
:10052000D8176FEAE37040F0010070474FEA410CC2
:100530007FEA6C5C02D150EA013C07D14FEA430CE0
:100540007FEA6C5CD6D152EA033CD3D05DF8040B51
:10055000704700BF8446104662468C461946634683
:1005600000E000BF01B5FFF7B7FF002848BF10F15A
:10057000000F01BD4DF808EDFFF7F4FF0CBF01209F
:1005800000205DF808FB00BF4DF808EDFFF7EAFF1B
:1005900034BF012000205DF808FB00BF4DF808EDD6
:1005A000FFF7E0FF94BF012000205DF808FB00BFCB
:1005B0004DF808EDFFF7CEFF94BF012000205DF855
:1005C00008FB00BF4DF808EDFFF7C4FF34BF012062
:1005D00000205DF808FB00BF80F0004002E000BF93
:1005E00081F0004142001FBF5FEA410392EA030F1E
:1005F0007FEA226C7FEA236C6AD04FEA1262D2EB68
:100600001363C1BFD218414048404140B8BF5B426C
:10061000192B88BF704710F0004F40F4000020F005
:100620007F4018BF404211F0004F41F4000121F01B
:100630007F4118BF494292EA030F3FD0A2F1010265
:1006400041FA03FC10EB0C00C3F1200301FA03F1A3
:1006500000F0004302D5494260EB4000B0F5000FC6
:1006600013D3B0F1807F06D340084FEA310102F185
:100670000102FE2A51D2B1F1004F40EBC25008BF37
:1006800020F0010040EA03007047490040EB000001
:10069000013A28BFB0F5000FEDD2B0FA80FCACF102
:1006A000080CB2EB0C0200FA0CF0AABF00EBC2502F
:1006B00052421843BCBFD0401843704792F0000F1D
:1006C00081F4000106BF80F400000132013BB5E770
:1006D0004FEA41037FEA226C18BF7FEA236C21D0E6
:1006E00092EA030F04D092F0000F08BF084670474B
:1006F00090EA010F1CBF0020704712F07F4F04D119
:10070000400028BF40F00040704712F100723CBF2B
:1007100000F50000704700F0004343F0FE4040F455
:10072000000070477FEA226216BF08467FEA236313
:100730000146420206BF5FEA412390EA010F40F4FE
:10074000800070474FF0000304E000BF10F000434A
:1007500048BF40425FEA000C08BF704743F0964331
:1007600001464FF000001CE050EA010208BF70474C
:100770004FF000030AE000BF50EA010208BF7047D3
:1007800011F0004302D5404261EB41015FEA010CE8
:1007900002BF84460146002043F0B64308BFA3F1E0
:1007A0008053A3F50003BCFA8CF2083AA3EBC253C2
:1007B00010DB01FA02FC634400FA02FCC2F12002E1
:1007C000BCF1004F20FA02F243EB020008BF20F018
:1007D0000100704702F1200201FA02FCC2F120027E
:1007E00050EA4C0021FA02F243EB020008BF20EA73
:1007F000DC7070474FF0FF0C1CEAD0521EBF1CEAA1
:10080000D15392EA0C0F93EA0C0F6FD01A4480EA8E
:10081000010C400218BF5FEA41211ED04FF0006377
:1008200043EA501043EA5111A0FB01310CF00040A3
:10083000B1F5000F3EBF490041EAD3715B0040EAC9
:10084000010062F17F02FD2A1DD8B3F1004F40EB99
:10085000C25008BF20F00100704790F0000F0CF06C
:10086000004C08BF49024CEA502040EA51207F3A30
:10087000C2BFD2F1FF0340EAC250704740F400000B
:100880004FF00003013A5DDC12F1190FDCBF00F0FC
:1008900000407047C2F10002410021FA02F1C2F1AA
:1008A000200200FA02FC5FEA310040F1000053EA46
:1008B0004C0308BF20EADC70704792F0000F00F094
:1008C000004C02BF400010F4000F013AF9D040EA9A
:1008D0000C0093F0000F01F0004C02BF490011F42E
:1008E000000F013BF9D041EA0C018FE70CEAD1532C
:1008F00092EA0C0F18BF93EA0C0F0AD030F0004CAC
:1009000018BF31F0004CD8D180EA010000F000405F
:10091000704790F0000F17BF90F0004F084691F01D
:10092000000F91F0004F14D092EA0C0F01D1420257
:100930000FD193EA0C0F03D14B0218BF084608D120
:1009400080EA010000F0004040F0FE4040F400006A
:10095000704740F0FE4040F4400070474FF0FF0CFD
:100960001CEAD0521EBF1CEAD15392EA0C0F93EA44
:100970000C0F69D0A2EB030280EA010C49024FEA96
:10098000402037D04FF0805343EA111143EA10134F
:100990000CF000408B4238BF5B0042F17D024FF407
:1009A000000C8B4224BF5B1A40EA0C00B3EB510FE2
:1009B00024BFA3EB510340EA5C00B3EB910F24BFCB
:1009C000A3EB910340EA9C00B3EBD10F24BFA3EB50
:1009D000D10340EADC001B0118BF5FEA1C1CE0D118
:1009E000FD2A3FF650AF8B4240EBC25008BF20F0CB
:1009F000010070470CF0004C4CEA50207F32C2BF1F
:100A0000D2F1FF0340EAC250704740F400004FF0BB
:100A10000003013A37E792F0000F00F0004C02BFEC
:100A2000400010F4000F013AF9D040EA0C0093F0B6
:100A3000000F01F0004C02BF490011F4000F013B10
:100A4000F9D041EA0C0195E70CEAD15392EA0C0F78
:100A500008D142027FF47DAF93EA0C0F7FF470AFB0
:100A6000084676E793EA0C0F04D14B023FF44CAFF3
:100A700008466EE730F0004C18BF31F0004CCAD188
:100A800030F000427FF45CAF31F000437FF43CAFC4
:100A90005FE700BF4FEA4002B2F1FE4F0FD34FF0C5
:100AA0009E03B3EB12620DD94FEA002343F00043DB
:100AB00010F0004F23FA02F018BF404270474FF089
:100AC0000000704712F1610F01D1420205D110F010
:100AD000004008BF6FF0004070474FF000007047C3
:100AE00080B485B000AF78600023FB6016E0FB683F
:100AF00003F5003301339B027A689A420BD2FB68FC
:100B000003F500339B027A689A4204D3FB6803F52D
:100B100000339B0206E0FB680133FB60FB687F2B20
:100B2000E5DD002318461437BD4680BC7047000041
:100B3000B0B58AB000AFF860B9601346FB800023FF
:100B40007B6205F019F8F868FFF7CAFF3862FB8886
:100B50009B001A46FB681344FB61F869FFF7C0FF6E
:100B6000B861204B00221A601E4A3B6A9360BA6942
:100B70003B6AD31A9B0A01331A4AD36007F1140364
:100B80001946184805F0EAF80346002B1FD005F077
:100B900029F8034622E07B6A9B00BA6813441B686D
:100BA00000221C46154622462B46F968022004F016
:100BB00073FF0346002B06D1FB680433FB607B6A9E
:100BC00001337B6203E005F00DF8034606E0FB8885
:100BD0007A6A9A42DFDB04F0F5FF002318462837D3
:100BE000BD46B0BDAC00002080B485B000AFF86059
:100BF000B9601346FB80FB681A68BB681A60FB6823
:100C00000433FB60BB680433BB60FB885A1EFA8068
:100C1000002B00D0EFE700BF00BF1437BD4680BCFB
:100C20007047000080B584B000AFF860B9607A60AA
:100C30003B60FB68DAB2314B1A71BB68DAB22F4BFA
:100C40005A713B68DAB22D4B9A707B68DAB22B4B43
:100C5000DA7000F041F9402000F05EF900F09EF9F2
:100C600000F0CAF900F038F9C02000F055F900F0A2
:100C700095F9224B1B781A46214B9B5C184600F0D5
:100C80004BF900F08BF91D4B5B781A461C4B9B5CB3
:100C9000184600F041F900F081F9184B9B781A468C
:100CA000174B9B5C184600F037F900F077F9134BAF
:100CB000DB781A46134B9B5C184600F02DF900F0C8
:100CC0006DF90E4B1B791A460F4B9B5C184600F0D2
:100CD00023F900F063F9094B5B791A460A4B9B5CD8
:100CE000184600F019F900F059F900F085F987204D
:100CF00000F0AEF900BF1037BD4680BD00000020F7
:100D0000A88E0008B48E0008988E000880B584B0C4
:100D100000AFF860B9607A603B60FB68DAB2314BD3
:100D2000DA70BB68DAB22F4B1A717B68DAB22D4BDE
:100D30005A703B68DAB22B4B9A7000F09FF9402052
:100D400000F0BCF900F0FCF900F028FA00F096F988
:100D5000C02000F0B3F900F0F3F9224B1B781A46DB
:100D6000214B9B5C184600F0A9F900F0E9F91D4BF6
:100D70005B781A461C4B9B5C184600F09FF900F00C
:100D8000DFF9184B9B781A46174B9B5C184600F00E
:100D900095F900F0D5F9134BDB781A46124B9B5CA2
:100DA000184600F08BF900F0CBF90E4B1B791A4670
:100DB0000D4B9B5C184600F081F900F0C1F9094B1E
:100DC0005B791A46084B9B5C184600F077F900F0F7
:100DD000B7F900F0E3F9872000F00CFA00BF1037F4
:100DE000BD4680BD08000020C08E000880B584B0DC
:100DF00000AFF860B9607A603B60FB68DAB2344BF0
:100E00001A71BB68DAB2324BDA707B68DAB2304BF7
:100E10005A703B68DAB22E4B1A703B7E0A33DAB254
:100E20002B4B9A7000F0FCF9402000F015FA00F00E
:100E30004FFA00F077FA00F0F3F9C02000F00CFA56
:100E400000F046FA224B1B781A46224B9B5C184650
:100E500000F002FA00F03CFA1D4B5B781A461D4B7D
:100E60009B5C184600F0F8F900F032FA184B9B78BA
:100E70001A46184B9B5C184600F0EEF900F028FA71
:100E8000134BDB781A46134B9B5C184600F0E4F9D1
:100E900000F01EFA0E4B1B791A460E4B9B5C18464F
:100EA00000F0DAF900F014FA094B5B791A46094BA5
:100EB0009B5C184600F0D0F900F00AFA00F032FA14
:100EC000872000F057FA00BF1037BD4680BD00BF35
:100ED00010000020CC8E000880B500AF01224FF436
:100EE00080510C4805F07DF911214FF4005000F0BD
:100EF00057FA01224FF40051064805F072F902201A
:100F000000F082FA00224FF40051024805F069F91E
:100F100000BF80BD000C014080B584B000AF034627
:100F2000FB7111214FF4005000F03AFA0023FB60EE
:100F300029E000224FF48051174805F052F9FB795F
:100F400003F00103002B06D001224FF40051124898
:100F500005F047F905E000224FF400510E4805F076
:100F600040F9032000F050FAFB795B08FB71012285
:100F70004FF48051084805F034F9032000F044FA9A
:100F8000FB680133FB60FB68072BD2DD00BF00BFAD
:100F90001037BD4680BD00BF000C014080B500AFDA
:100FA00000224FF48051134805F01BF9052000F092
:100FB0002BFA00214FF4005000F0F2F94FF40051E9
:100FC0000C4805F0F7F80346002B01D0FF230FE093
:100FD00001224FF48051074805F003F9022000F088
:100FE00013FA00224FF48051024805F0FAF8012369
:100FF000184680BD000C014080B500AF00224FF4C0
:101000008051124805F0EDF8022000F0FDF91121A1
:101010004FF4005000F0C4F900224FF400510B4887
:1010200005F0DFF8022000F0EFF901224FF48051C3
:10103000064805F0D6F8022000F0E6F901224FF448
:101040000051024805F0CDF800BF80BD000C014002
:1010500080B582B000AF0346FB71FFF73DFFFB791F
:1010600063F07703DBB21846FFF756FFFFF796FFF2
:10107000FFF7C2FF00BF0837BD4680BD80B500AF97
:1010800001224FF480410C4805F0ABF811214FF4D8
:10109000004000F085F901224FF40041064805F0B8
:1010A000A0F8022000F0B0F900224FF400410248FD
:1010B00005F097F800BF80BD000C014080B584B0FA
:1010C00000AF0346FB7111214FF4004000F068F9B6
:1010D0000023FB6029E000224FF48041174805F00F
:1010E00080F8FB7903F00103002B06D001224FF4B6
:1010F0000041124805F075F805E000224FF4004168
:101100000E4805F06EF8032000F07EF9FB795B08CD
:10111000FB7101224FF48041084805F062F803207A
:1011200000F072F9FB680133FB60FB68072BD2DD2E
:1011300000BF00BF1037BD4680BD00BF000C01409E
:1011400080B500AF00224FF48041134805F049F804
:10115000052000F059F900214FF4004000F020F97B
:101160004FF400410C4805F025F80346002B01D050
:10117000FF230FE001224FF48041074805F031F8CA
:10118000022000F041F900224FF48041024805F0AE
:1011900028F80123184680BD000C014080B500AF3F
:1011A00000224FF48041124805F01BF8022000F0A5
:1011B0002BF911214FF4004000F0F2F800224FF417
:1011C00000410B4805F00DF8022000F01DF9012246
:1011D0004FF48041064805F004F8022000F014F9AD
:1011E00001224FF40041024804F0FBFF00BF80BD24
:1011F000000C014080B582B000AF0346FB71FFF7E1
:101200003DFFFB7963F07703DBB21846FFF756FF2B
:10121000FFF796FFFFF7C2FF00BF0837BD4680BD4E
:1012200080B500AF012280210A4804F0DAFF1121C5
:10123000402000F0B5F801224021064804F0D1FF1B
:10124000022000F0E1F800224021024804F0C9FF2A
:1012500000BF80BD0008014080B584B000AF0346E8
:10126000FB711121402000F09BF80023FB6025E07A
:1012700000228021154804F0B4FFFB7903F001033C
:10128000002B05D001224021104804F0AAFF04E001
:10129000002240210D4804F0A4FF032000F0B4F820
:1012A000FB795B08FB7101228021084804F099FF5B
:1012B000032000F0A9F8FB680133FB60FB68072BF3
:1012C000D6DD00BF00BF1037BD4680BD000801401D
:1012D00080B500AF00228021114804F082FF052074
:1012E00000F092F80021402000F05AF840210C480C
:1012F00004F060FF0346002B01D0FF230DE0012224
:101300008021074804F06DFF022000F07DF80022E4
:101310008021034804F065FF0123184680BD00BF0B
:101320000008014080B500AF00228021104804F081
:1013300058FF022000F068F81121402000F030F83A
:10134000002240210A4804F04CFF022000F05CF823
:1013500001228021064804F044FF022000F054F8E6
:1013600001224021024804F03CFF00BF80BD00BFC5
:101370000008014080B582B000AF0346FB71FFF763
:101380004FFFFB7963F07703DBB21846FFF764FF8A
:10139000FFF79EFFFFF7C6FF00BF0837BD4680BDC1
:1013A00080B586B000AF7860396007F1080300228D
:1013B0001A605A609A60DA607B68BB603B68FB60C9
:1013C0003B68112B02D102237B6101E001233B61C9
:1013D0007B68402B02D07B68802B06D107F1080385
:1013E0001946074804F062FD06E007F108031946B4
:1013F000044804F05BFD00BF00BF1837BD4680BD48
:1014000000080140000C014080B483B000AF786058
:101410001AE000BF00BF00BF00BF00BF00BF00BF99
:1014200000BF00BF00BF00BF00BF00BF00BF00BFC4
:1014300000BF00BF00BF00BF00BF00BF00BF00BFB4
:1014400000BF00BF00BF00BF7B685A1E7A60002B40
:10145000DFD100BF00BF0C37BD4680BC7047000025
:1014600080B500AF032212491248FFF7BDFB104BB5
:101470001B78FF2B17D10E4B1E225A800C4B2D22AE
:101480009A800B4B4FF4E162DA80094B04221A7008
:10149000074B3C225A70064B00221A720322044961
:1014A0000448FFF745FB044B01221A7000BF80BDC2
:1014B000D000002000FC01081700002080B500AF1C
:1014C000032203490348FFF733FB00BF80BD00BF81
:1014D000D000002000FC0108B0B588B002AF974BE7
:1014E0001B78032B01F2408001A252F823F000BFC9
:1014F00001150008CD1800085D1D00082321000813
:101500008F4B1B78002B2CD08D4B00221A708D4BEB
:101510005B888D4AA2FB03235B099BB2D8B2894B3F
:101520005B88894AA2FB03125209642101FB02F283
:101530009B1A9BB2854AA2FB0323DB089BB2DCB259
:10154000804B5A88814BA3FB0213D9080B469B00A2
:101550000B445B00D31A9BB2DBB21A46214602F061
:1015600003FF80217A4804F025FE0346012B05D0B5
:10157000784B1B68784A934240F08780142003F030
:10158000AFF98021724804F015FE0346012B05D007
:10159000704B1B68704A934240F082816D4B002271
:1015A0001A606E4B00221A606D4B00221A70654B58
:1015B0005B8840F2E632934206D8624B5B88013387
:1015C0009AB2604B5A8002E05E4B00225A805D4B1B
:1015D0005B885D4AA2FB03235B099BB2D8B2594BDF
:1015E0005B88594AA2FB03125209642101FB02F2F3
:1015F0009B1A9BB2554AA2FB0323DB089BB2DCB2C9
:10160000504B5A88514BA3FB0213D9080B469B0041
:101610000B445B00D31A9BB2DBB21A46214602F0A0
:10162000A3FE504B01221A701AE04F4B1B88013366
:101630009AB24D4B1A804C4B1B881E2B0DD94A4B2E
:101640001B8803F00103DA00474B1B8803F00103FA
:10165000DB000A210A20FFF7E5FA642003F040F9D5
:1016600080213B4804F0A6FD0346012BDDD03E4B14
:101670001B881E2B05D9002300220A210A20FFF710
:10168000D1FA394B00221A800AE12021304804F0B7
:1016900091FD0346012B40F09A80142003F020F9BD
:1016A00020212B4804F086FD0346012B40F055878E
:1016B000284B00221A60294B00221A60284B002276
:1016C0001A70204B5B88002B06D01E4B5B88013BB9
:1016D0009AB21C4B5A8003E01A4B40F2E7325A8010
:1016E000184B5B88184AA2FB03235B099BB2D8B254
:1016F000144B5B88144AA2FB03125209642101FBBC
:1017000002F29B1A9BB2114AA2FB0323DB089BB295
:10171000DCB20C4B5A880D4BA3FB0213D9080B46C5
:101720009B000B445B00D31A9BB2DBB21A462146E6
:1017300002F01AFE0B4B01221A7032E03101002038
:1017400017000020D00000201F85EB51CDCCCCCC61
:10175000000C0140C8000020100991001002002078
:101760001402002016000020CC0000204E4B1B88E5
:1017700001339AB24C4B1A804B4B1B881E2B0DD950
:10178000494B1B8803F00103DA00474B1B8803F029
:101790000103DB000A210A20FFF744FA642003F06A
:1017A0009FF82021414804F005FD0346012BDDD0C0
:1017B0003D4B1B881E2B05D9002300220A210A203D
:1017C000FFF730FA384B00221A8000F0C6BE4021E5
:1017D000364804F0EFFC0346012B05D0344B1B6860
:1017E000344A934240F0B986142003F079F840213E
:1017F0002E4804F0DFFC0346012B05D02C4B1B6860
:101800002C4A934240F0A986294B00221A602A4BA9
:1018100000221A60294B00221A70294B1B780133D1
:10182000DAB2274B1A70274B01221A700C220C21B6
:101830000C2002F099FD244B01221A701AE01A4B79
:101840001B8801339AB2184B1A80174B1B881E2B2A
:101850000DD9154B1B8803F00103DA00124B1B88CE
:1018600003F00103DB000A210A20FFF7DBF9642003
:1018700003F036F840210D4804F09CFC0346012B90
:10188000DDD0094B1B881E2B05D9002300220A211D
:101890000A20FFF7C7F9044B00221A8000F05DBE52
:1018A00000BF00F05ABE00BFCC000020000C014079
:1018B000C8000020044990001002002014020020FB
:1018C000310100201700002016000020804B1B78FB
:1018D000002B4CD07E4B00221A707E4BDB887E4A58
:1018E000A2FB03239B099BB218467A4BDB887B4AF9
:1018F000A2FB03235B099AB2794BA3FB0213D9081D
:101900000B469B000B445B00D31A9BB21C46714BE9
:10191000DA88724BA3FB021359090B461B015B1AB1
:101920009B00D31A9BB26E4AA2FB0323DB089BB237
:101930001D46684BDA88694BA3FB021359090B4615
:101940001B015B1A9B00D31A9AB2654BA3FB0213CF
:10195000D9080B469B000B445B00D31A9BB21A4676
:101960000123009313462A462146FFF73FFA8021C0
:101970005C4804F01FFC0346012B05D05A4B1B6842
:101980005A4A934240F0BC80142002F0A9FF802103
:10199000544804F00FFC0346012B05D0524B1B6842
:1019A000524A934240F0BD814F4B00221A60504B87
:1019B00000221A604F4B00221A70464BDB8841F21E
:1019C0002972934205D8434BDB880A339AB2414BC4
:1019D000DA80404BDB88404AA2FB03239B099BB281
:1019E00018463C4BDB883D4AA2FB03235B099AB2B5
:1019F0003B4BA3FB0213D9080B469B000B445B0037
:101A0000D31A9BB21C46334BDA88344BA3FB021328
:101A100059090B461B015B1A9B00D31A9BB2304A33
:101A2000A2FB0323DB089BB21D462A4BDA882B4B13
:101A3000A3FB021359090B461B015B1A9B00D31A27
:101A40009AB2274BA3FB0213D9080B469B000B4409
:101A50005B00D31A9BB21A460123009313462A4611
:101A60002146FFF7C3F9244B01221A701AE0234BD9
:101A70001B8801339AB2214B1A80204B1B881E2BE6
:101A80000DD91E4B1B8803F00103DA001B4B1B888A
:101A900003F00103DB000A210A20FFF7C3F86420EA
:101AA00002F01EFF80210F4804F084FB0346012B47
:101AB000DDD0124B1B881E2B05D9002300220A21E2
:101AC0000A20FFF7AFF80D4B00221A8029E100BF72
:101AD00017000020D0000020B5814E1B898888881F
:101AE000CDCCCCCC000C0140C800002010099100E6
:101AF000100200201402002016000020CC0000205C
:101B00002021894804F056FB0346012B40F09D80BC
:101B1000142002F0E5FE2021834804F04BFB03462D
:101B2000012B40F01C85814B00221A60804B002263
:101B30001A60804B00221A707F4BDB88092B05D975
:101B40007D4BDB880A3B9AB27B4BDA807A4BDB8891
:101B50007A4AA2FB03239B099BB21846764BDB888B
:101B6000774AA2FB03235B099AB2764BA3FB0213CD
:101B7000D9080B469B000B445B00D31A9BB21C4652
:101B80006D4BDA886E4BA3FB021359090B461B0100
:101B90005B1A9B00D31A9BB26A4AA2FB0323DB08A1
:101BA0009BB21D46644BDA88654BA3FB02135909AF
:101BB0000B461B015B1A9B00D31A9AB2614BA3FB25
:101BC0000213D9080B469B000B445B00D31A9BB24F
:101BD0001A460123009313462A462146FFF706F9C9
:101BE000594B01221A701AE0584B1B8801339AB2E4
:101BF000564B1A80554B1B881E2B0DD9534B1B88F7
:101C000003F00103DA00514B1B8803F00103DB00F2
:101C10000A210A20FFF706F8642002F061FE202165
:101C2000414804F0C7FA0346012BDDD0474B1B881F
:101C30001E2B05D9002300220A210A20FEF7F2FFFD
:101C4000424B00221A8000F08ABC4021364804F042
:101C5000B1FA0346012B05D0344B1B683C4A934232
:101C600040F07D84142002F03BFE40212E4804F019
:101C7000A1FA0346012B05D02C4B1B68344A934232
:101C800040F06D84294B00221A60294B00221A6013
:101C9000284B00221A702F4B1B780133DAB22D4BE0
:101CA0001A702D4B01221A70002300930A230A2276
:101CB0000A210A20FFF79AF8234B01221A701AE032
:101CC000224B1B8801339AB2204B1A801F4B1B8872
:101CD0001E2B0DD91D4B1B8803F00103DA001B4B93
:101CE0001B8803F00103DB000A210A20FEF79AFF9C
:101CF000642002F0F5FD40210B4804F05BFA034636
:101D0000012BDDD0114B1B881E2B05D9002300228F
:101D10000A210A20FEF786FF0C4B00221A8000F0F1
:101D20001EBC00BF00F01BBC000C0140C80000201E
:101D30001002002014020020D0000020B5814E1BAC
:101D400089888888CDCCCCCC16000020CC0000201F
:101D5000044990003101002017000020864B1B78B9
:101D6000002B1BD0844B00221A70844B9B88844A22
:101D7000A2FB0323DB089BB21846804B9A88804B5A
:101D8000A3FB0213D9080B469B000B445B00D31A3C
:101D90009BB2194600230022FEF744FF80217948B8
:101DA00004F008FA0346012B05D0774B1B68774AED
:101DB000934240F09A80142002F092FD80217148F5
:101DC00004F0F8F90346012B05D06F4B1B686F4AEE
:101DD000934240F0A4816C4B00221A606C4B0022AD
:101DE0001A606C4B00221A70644B9B88622B06D8D9
:101DF000624B9B8801339AB2604B9A8002E05F4B42
:101E000000229A805D4B9B885D4AA2FB0323DB087E
:101E10009BB21846594B9A88594BA3FB0213D90819
:101E20000B469B000B445B00D31A9BB21946002360
:101E30000022FEF7F7FE584B01221A702DE0574B97
:101E40001B8801339AB2554B1A80544B1B881E2BAA
:101E500020D94A4B9B884A4AA2FB0323DB089BB24A
:101E60001846464B9A88464BA3FB0213D9080B46EB
:101E70009B000B445B00D31A9BB21946474B1B884F
:101E800003F00103DA00454B1B8803F00103DB007C
:101E9000FEF7C8FE642002F023FD8021394804F0DB
:101EA00089F90346012BCAD03C4B1B881E2B18D93D
:101EB000324B9B88324AA2FB0323DB089BB21846B5
:101EC0002E4B9A882E4BA3FB0213D9080B469B007E
:101ED0000B445B00D31A9BB2194600230022FEF785
:101EE000A1FE2E4B00221A8019E12021254804F082
:101EF00061F90346012B40F0A980142002F0F0FCA8
:101F00002021204804F056F90346012B40F0298394
:101F10001D4B00221A601E4B00221A601D4B00222E
:101F20001A70164B9B88002B06D0144B9B88013BE4
:101F30009AB2124B9A8002E0104B63229A800F4BA8
:101F40009B880F4AA2FB0323DB089BB218460B4B6E
:101F50009A880B4BA3FB0213D9080B469B000B443A
:101F60005B00D31A9BB2194600230022FEF75AFEEB
:101F7000094B01221A7041E017000020D000002018
:101F8000CDCCCCCC000C0140C80000201009910041
:101F9000100200201402002016000020CC000020B7
:101FA000A24B1B8801339AB2A04B1A809F4B1B880F
:101FB0001E2B20D99E4B9B889E4AA2FB0323DB0845
:101FC0009BB218469A4B9A889A4BA3FB0213D908E6
:101FD0000B469B000B445B00D31A9BB21946934BF4
:101FE0001B8803F00103DA00904B1B8803F0010308
:101FF000DB00FEF717FE642002F072FC20218E4801
:1020000004F0D8F80346012BCAD0884B1B881E2B3E
:1020100018D9874B9B88874AA2FB0323DB089BB216
:102020001846834B9A88834BA3FB0213D9080B46AF
:102030009B000B445B00D31A9BB21946002300227D
:10204000FEF7F0FD794B00221A808AE240217A489F
:1020500004F0B0F80346012B05D0784B1B68784A92
:10206000934240F07E82142002F03AFC40217248F4
:1020700004F0A0F80346012B05D0704B1B68704A92
:10208000934240F06E826D4B00221A606D4B00222D
:102090001A606D4B00221A706C4B1B780133DAB258
:1020A0006A4B1A706A4B01221A70002300220A211F
:1020B0000A20FEF7B7FD674B01221A701AE05B4B4E
:1020C0001B8801339AB2594B1A80584B1B881E2B20
:1020D0000DD9564B1B8803F00103DA00534B1B88C4
:1020E00003F00103DB000A210A20FEF79BFD6420B8
:1020F00002F0F6FB4021504804F05CF80346012B47
:10210000DDD04A4B1B881E2B05D9002300220A2153
:102110000A20FEF787FD454B00221A8021E200BF0E
:102120001FE24B4B1B78002B27D0494B00221A7023
:102130003F4B1B7AFF2B02D13D4B02221A723C4BC4
:1021400019783B4B1B7A0A33DBB21A460C2002F09B
:102150000BF900237B610AE07B69DBB20133DBB260
:102160000F21184602F0EAF87B6901337B61304B9E
:102170001B781A467B699342EEDB80212E4804F0DF
:1021800019F80346012B05D02C4B1B68324A9342A9
:1021900040F0A980142002F0A3FB8021264804F01F
:1021A00009F80346012B05D0244B1B682A4A9342A9
:1021B00040F0D181214B00221A60224B00221A608C
:1021C000214B00221A701A4B1B780133DAB2184BDC
:1021D0001A70174B1B78042B1AD900233B610AE0B5
:1021E0003B69DBB20133DBB20021184602F0A6F8EE
:1021F0003B6901333B613B69032BF1DD0C4B022250
:102200001A700B4B1B7AC3F10103DAB2084B1A7236
:10221000074B1978064B1B7A0A33DBB21A460C209F
:1022200002F0A2F80023FB6023E000BFCC000020F6
:10223000D0000020CDCCCCCC000C0140C800002048
:1022400004499000100200201402002031010020F7
:10225000170000201600002010099100FB68DBB277
:102260000133DBB20F21184602F068F8FB68013336
:10227000FB608D4B1B781A46FB689342EEDB8B4B61
:1022800001221A701AE08A4B1B8801339AB2884BDC
:102290001A80874B1B881E2B0DD9854B1B8803F09A
:1022A0000103DA00824B1B8803F00103DB000A21E3
:1022B0000A20FEF7B7FC642002F012FB80217D4863
:1022C00003F078FF0346012BDDD0794B1B881E2BD2
:1022D00005D9002300220A210A20FEF7A3FC744B33
:1022E00000221A8037E12021724803F063FF034681
:1022F000012B40F08F80142002F0F2FA20216D486B
:1023000003F058FF0346012B40F02D816A4B002259
:102310001A606A4B00221A60694B00221A70624BE5
:102320001B78022B1AD90023BB600AE0BB68DBB222
:102330000133DBB20021184602F000F8BB6801331C
:10234000BB60594B1B781A46BB689342EEDB564B79
:102350001B78013BDAB2544B1A7009E0524B04224D
:102360001A70514B1B7AC3F10103DAB24E4B1A7249
:102370004D4B19784C4B1B7A0A33DBB21A460C20B2
:1023800001F0F2FF00237B600AE07B68DBB20133DF
:10239000DBB20F21184601F0D1FF7B6801337B606F
:1023A000414B1B781A467B689342EEDB3F4B012280
:1023B0001A701AE03E4B1B8801339AB23C4B1A80CC
:1023C0003B4B1B881E2B0DD9394B1B8803F0010397
:1023D000DA00374B1B8803F00103DB000A210A20D7
:1023E000FEF720FC642002F07BFA2021314803F044
:1023F000E1FE0346012BDDD02D4B1B881E2B05D99A
:10240000002300220A210A20FEF70CFC284B0022A0
:102410001A80A8E04021274803F0CCFE0346012B98
:1024200005D0254B1B68274A934240F09C8014201E
:1024300002F056FA40211F4803F0BCFE0346012B70
:1024400005D01D4B1B681F4A934240F08C801A4BED
:1024500000221A60194B00221A60194B00221A70D0
:102460000C220C210C2001F07FFF00233B600AE0CE
:102470003B68DBB20133DBB20021184601F05EFF9E
:102480003B6801333B60084B1B781A463B6893421C
:10249000EEDB0D4B00221A700C4B01221A70034B1D
:1024A00001221A7042E000BFD00000201600002078
:1024B000CC000020000C0140C800002010020020C9
:1024C0001402002004499000310100201700002070
:1024D000274B1B8801339AB2254B1A80244B1B884B
:1024E0001E2B20D9234B1B88234AA2FB0323DB0886
:1024F0009BB218461F4B1A881F4BA3FB0213D90827
:102500000B469B000B445B00D31A9BB21946184B39
:102510001B8803F00103DA00154B1B8803F001034D
:10252000DB00FEF77FFB642002F0DAF9402113485C
:1025300003F040FE0346012BCAD00D4B1B881E2B17
:1025400005D9002300220A210A20FEF76BFB084B65
:1025500000221A8007E000BF05E000BF04E000BFD2
:1025600002E000BF00E000BF00BF1837BD46B0BDAD
:10257000CC000020DC000020CDCCCCCC000C0140F5
:1025800080B584B000AF0346FB71FB79002B01D00E
:10259000FEF766FF154B1B78012B02D8134B042264
:1025A0001A70134B01221A700023FB600DE0FB68C8
:1025B000DBB20133D9B20F4AFB681B01134401336C
:1025C0000A461A70FB680133FB60084B1B781A46F9
:1025D000FB689342EBDBFB68022B02D1054B042224
:1025E0005A74012318461037BD4680BDD000002024
:1025F00030010020EC000020B0B584B002AFAD4B3C
:1026000001221A70AC4B01221A60AC4B00221A80D6
:10261000AB4B9A88AB4B1A80A94BDB88A84A127A3D
:1026200092B202FB03F39AB2A74B1A80A44B1B7819
:10263000022B02D1A54B04225A7400237B604DE08B
:10264000A24A7B681B0113440F221A709F4A7B68C1
:102650001B01134404334FF000021A60984B1B7A9D
:102660009BB2974A528802FB03F39BB2944A1278BA
:1026700011467A688A42B4BF01220022D2B292B2D5
:1026800002FB03F399B2914A7B681B0113440833A0
:102690000A461A808D4A7B681B0113440A330022C4
:1026A0001A808A4A7B681B0113440C3300221A806B
:1026B000864A7B681B011344023300221A70834A46
:1026C0007B681B01134401331B78012B03D17B680A
:1026D000DAB27F4B1A707B6801337B60784B1B78D2
:1026E0001A467B689342ABDB764B1B88794AA2FB88
:1026F0000323DB089BB21846724B1A88754BA3FB69
:102700000213D9080B469B000B445B00D31A9BB203
:10271000194608230822FEF785FA674B1B686D4AA5
:10272000A2FB0323DB081846634B1968694BA3FB24
:102730000123DA0813469B0013445B00CA1A1446AF
:102740005E4B1B88634AA2FB0323DB089BB21D463A
:102750005A4B1A885F4BA3FB0213D9080B469B0008
:102760000B445B00D31A9BB22A462146FEF7CEFAF1
:10277000554B1B88584AA2FB03239B099BB2184662
:10278000514B1B88554AA2FB03235B099AB2514B5C
:10279000A3FB0213D9080B469B000B445B00D31A22
:1027A0009BB21C46484B1A884C4BA3FB0213590999
:1027B0000B461B015B1A9B00D31A9BB2454AA2FB36
:1027C0000323DB089BB21D463F4B1A88434BA3FBF8
:1027D000021359090B461B015B1A9B00D31A9AB2CC
:1027E0003C4BA3FB0213D9080B469B000B445B0038
:1027F000D31A9BB21A460123009313462A46214658
:10280000FEF7F4FA2E4B5B88354AA2FB03235B09E3
:102810009BB2D8B22A4B5B88314AA2FB0312520901
:10282000642101FB02F29B1A9BB22A4AA2FB0323FA
:10283000DB089BB2DCB2224B5A88264BA3FB021367
:10284000D9080B469B000B445B00D31A9BB2DBB24A
:102850001A46214601F088FD00233B601AE01B4A1E
:102860003B681B01134401331A7818493B681B016C
:102870000B441B781946104601F060FD3B68DBB243
:102880000133DBB201220021184601F0ADFD3B68A7
:1028900001333B600A4B1B781A463B689342DEDBF0
:1028A00001F0C6FD0F4B01221A70012318460837AC
:1028B000BD46B0BD30010020E0000020E80000204F
:1028C000D0000020DC000020DE000020EC00002012
:1028D0002C010020CDCCCCCCB5814E1B89888888BA
:1028E0001F85EB51CE000020B0B586B000AF564B2F
:1028F0001B78002B00F0BE80544B9A88544B1A80F2
:10290000544B1B78544A1B01134404331B68534A2D
:102910001360534B1B68013B1846FDF713FF02463B
:102920004E4B1B6819461046FDF764FF03461C46D4
:102930004C4B1B881846FDF709FF034619462046F5
:10294000FDF750FE03461D46454B1B681846FDF734
:10295000F9FE03463F4A1278144619462846FDF709
:10296000FDFF034619463C4A230113440433196012
:10297000384B1B78384A1B01134404331B68184634
:10298000FDF74AFD2EA3D3E90023FDF71BFE034606
:10299000002B07D02F4B1B782F4A1B011344043305
:1029A000314A1A602A4B1B88304AA2FB0323DB08FA
:1029B0009BB21846264B1A882C4BA3FB0213D9084E
:1029C0000B469B000B445B00D31A9BB219460823AD
:1029D0000822FEF727F900237B6120E01D4B1B78BE
:1029E0001A467B6993420CD11A4B1B781A4A1B0179
:1029F000134401331B7801220121184601F0F4FC35
:102A00000AE0154A7B691B01134401331B7801223C
:102A10000021184601F0E8FC7B6901337B610B4B18
:102A20001B781A467B699342D8DB114B00221A703F
:102A3000054B00221A70002301F010B8AFF300809C
:102A40008FC2F5285CFF5840CE000020D000002047
:102A5000DC0000202C010020EC000020E40000201D
:102A6000E0000020E8000020E1FAC742CDCCCCCC49
:102A700030010020A04B1B68002B20D09E4B1B6810
:102A80009E4A93421BD09C4B1B689D4A934216D092
:102A9000994B1B689B4A934211D0974B1B689A4AEB
:102AA00093420CD04FF4967001F01AFF974B00221E
:102AB0001A60974B00221A708F4B00221A608021F7
:102AC000944803F077FB0346012B05D08A4B1B6823
:102AD0008C4A934240F09482142001F001FF80213F
:102AE0008C4803F067FB0346012B05D0824B1B6823
:102AF000844A934240F00686874B9A88874B1A8017
:102B0000874B1B8801339AB2854B1A80854B1B7803
:102B1000854A1B0113440A331A88814B1B889A4249
:102B20000AD2804B1B7818467D4B19887E4A0301D8
:102B300013440A330A461A80794B1B88632B2ED81C
:102B40007A4B1B68632B2AD8784B1B68784AA2FB08
:102B50000323DB081846754B1968754BA3FB01234B
:102B6000DA0813469B0013445B00CA1A14466C4BE8
:102B70001B886F4AA2FB0323DB089BB21D46684BF0
:102B80001A886B4BA3FB0213D9080B469B000B441E
:102B90005B00D31A9BB22A462146FEF7B7F8634B77
:102BA0001B68013B1846FDF7CDFD0246614B1B68D3
:102BB00019461046FDF71EFE03461C46584B1B885F
:102BC0001846FDF7C3FD034619462046FDF70AFDEA
:102BD00003461D46554B1B681846FDF7B3FD0346DB
:102BE000504A1278144619462846FDF7B7FE0346A8
:102BF00019464D4A2301134404331960494B1B788D
:102C0000494A1B01134404331B681846FDF704FCB2
:102C100037A3D3E90023FDF7D5FC0346002B07D0EB
:102C2000404B1B78404A1B0113440433424A1A604C
:102C3000394B1B7A002B00F00B8101F071FC03462D
:102C4000013BDAB23D4B1A7000233B61F8E0364A93
:102C50003B691B01134408331B88002B00F0EC80F8
:102C6000304B1B781A463B69934240F08F802E4AC6
:102C70003B691B01134408331A88304B1B789BB205
:102C8000134499B2284A3B691B01134408330A468E
:102C90001A80254A3B691B01134402331B78002B21
:102CA00061D0264B1B789AB21F493B691B010B442C
:102CB0000C331B889A4243D3204B1B789AB21A4993
:102CC0003B691B010B440C331B88D31A99B2164A7B
:102CD0003B691B0113440C330A461A80124A3B69B4
:102CE0001B011344023300221A70A6E0AFF30080E8
:102CF0008FC2F5285CFF5840C8000020088990006A
:102D0000044990001009910020099200100200204F
:102D100014020020000C0140D0000020DC00002044
:102D2000E80000202C010020EC000020E000002042
:102D3000CDCCCCCCE4000020E1FAC7422D0100202C
:102D4000A34A3B691B0113440C331A88A14B1B781F
:102D50009BB2D31A99B29E4A3B691B0113440C33B0
:102D60000A461A8069E09A4A3B691B0113440C33F6
:102D70001A88984B1B789BB2134499B2944A3B69CA
:102D80001B0113440C330A461A8056E0904A3B69F3
:102D90001B01134408331B88002B0ED08C4A3B695F
:102DA0001B01134408331B88013B99B2884A3B69D5
:102DB0001B01134408330A461A80854A3B691B01EC
:102DC000134402331B78002B0FD0814A3B691B014F
:102DD00013440C331B88013399B27D4A3B691B01B4
:102DE00013440C330A461A8027E0794A3B691B01D9
:102DF00013440C331B88002B0ED1754A3B691B0111
:102E000013440C3301221A80714A3B691B0113449D
:102E1000023301221A7010E06D4A3B691B01134412
:102E20000C331B88013B99B2694A3B691B0113446F
:102E30000C330A461A8000E000BF3B6901333B6156
:102E4000654B1B781A463B699342FFF600AF59E089
:102E5000624B1B785E4A1B01134408331B885F4A90
:102E600012781046013399B2594A030113440833CA
:102E70000A461A80594B1B78554A1B0113440233EA
:102E80001B78002B2CD0554B1B78514A1B01134447
:102E90000C331B88012B10D1504B1B784C4A1B0163
:102EA00013440C3300221A804C4B1B78484A1B01F8
:102EB0001344023300221A7024E0484B1B78444A22
:102EC0001B0113440C331B88444A12781046013B03
:102ED00099B23F4A030113440C330A461A8011E0A9
:102EE0003E4B1B783A4A1B0113440C331B883B4A68
:102EF00012781046013399B2354A030113440C335A
:102F00000A461A8001F094FA354B00221A60354BBC
:102F100000221A60344B00221A70344B01221A70BE
:102F20002DE0334B1B8801339AB2314B1A80304B62
:102F30001B881E2B20D92F4B1B882F4AA2FB032353
:102F4000DB089BB218462B4B1A882B4BA3FB0213B2
:102F5000D9080B469B000B445B00D31A9BB2194661
:102F6000234B1B8803F00103DA00214B1B8803F07D
:102F70000103DB00FDF756FE642001F0B1FC802167
:102F80001E4803F017F90346012BCAD0184B1B88C3
:102F90001E2B18D9174B1B88174AA2FB0323DB08EB
:102FA0009BB21846134B1A88134BA3FB0213D90884
:102FB0000B469B000B445B00D31A9BB219460023BF
:102FC0000022FDF72FFE0A4B00221A809AE300BF71
:102FD000EC0000202D010020D00000202C0100205A
:102FE000C80000201002002014020020160000205B
:102FF000CC000020DC000020CDCCCCCC000C01406B
:1030000020219D4803F0D6F80346012B40F086822C
:10301000142001F065FC2021974803F0CBF803460B
:10302000012B40F07083954B1B88002B05D0934BF0
:103030001B88013B9AB2914B1A80914B1B78914AA5
:103040001B0113440A331A888C4B1B889A420AD9F5
:103050008B4B1B781846894B19888A4A0301134405
:103060000A330A461A80854B1B88632B2ED8864B61
:103070001B68632B2AD8844B1B68844AA2FB03235A
:10308000DB081846804B1968804BA3FB0123DA0844
:1030900013469B0013445B00CA1A1446774B1B88E7
:1030A0007A4AA2FB0323DB089BB21D46734B1A88A6
:1030B000764BA3FB0213D9080B469B000B445B0025
:1030C000D31A9BB22A462146FDF720FE6E4B1B68A1
:1030D000013B1846FDF736FB02466D4B1B6819464F
:1030E0001046FDF787FB03461C46644B1B881846B9
:1030F000FDF72CFB034619462046FDF773FA0346FD
:103100001D46614B1B681846FDF71CFB03465C4AD5
:103110001278144619462846FDF720FC0346194646
:10312000584A2301134404331960554B1B78554A00
:103130001B01134404331B681846FDF76DF94CA3BB
:10314000D3E90023FDF73EFA0346002B07D04C4B92
:103150001B784C4A1B01134404334E4A1A604E4BF1
:103160001B7A002B00F0098101F0DAF90346013BDC
:10317000DAB24A4B1A700023FB60F6E0414AFB6862
:103180001B01134408331B88002B00F0EA803C4BE2
:103190001B781A46FB68934240F09580394AFB68D9
:1031A0001B01134408331A883C4B1B789BB29A428C
:1031B00015D3334B1B78334A1B01134408331A8849
:1031C000364B1B789BB22E4909780846D31A99B220
:1031D0002C4A0301134408330A461A8007E0284B9F
:1031E0001B78284A1B011344083300221A80254A01
:1031F000FB681B01134402331B78002B12D0214AB9
:10320000FB681B0113440C331A88244B1B789BB2B8
:10321000134499B21B4AFB681B0113440C330A4642
:103220001A809FE01D4B1B789AB21649FB681B0160
:103230000B440C331B889A4232D9184B1B789AB234
:103240001049FB681B010B440C331B88D31A99B23D
:103250000C4AFB681B0113440C330A461A80094AC6
:10326000FB681B011344023301221A707AE000BF8D
:103270008FC2F5285CFF5840000C0140E800002098
:103280002C010020EC000020E0000020CDCCCCCCB4
:10329000E4000020E1FAC742D00000202D01002008
:1032A000954AFB681B0113440C331A88934B1B7817
:1032B0009BB2D31A99B2904AFB681B0113440C339A
:1032C0000A461A804EE08C4AFB681B0113440833FF
:1032D0001B88013399B2884AFB681B0113440833E9
:1032E0000A461A80844AFB681B01134402331B7888
:1032F000002B26D0804AFB681B0113440C331B882B
:10330000012B0ED17C4AFB681B0113440C330022B5
:103310001A80794AFB681B011344023300221A7099
:1033200020E0754AFB681B0113440C331B88013BEA
:1033300099B2714AFB681B0113440C330A461A8088
:1033400010E06D4AFB681B0113440C331B880133EA
:1033500099B2694AFB681B0113440C330A461A8070
:1033600000E000BFFB680133FB60654B1B781A4629
:10337000FB689342FFF602AF62E0624B1B785E4A45
:103380001B01134408331B88002B11D05D4B1B78A5
:10339000594A1B01134408331B885A4A12781046B5
:1033A000013B99B2544A0301134408330A461A8078
:1033B000544B1B78504A1B01134402331B78002BDB
:1033C00012D0504B1B784C4A1B0113440C331B8802
:1033D0004C4A12781046013399B2474A030113440C
:1033E0000C330A461A802BE0464B1B78424A1B01DD
:1033F00013440C331B88002B10D1424B1B783E4AE0
:103400001B0113440C3301221A803E4B1B783A4AAD
:103410001B011344023301221A7011E0394B1B784F
:10342000354A1B0113440C331B88364A1278104668
:10343000013B99B2304A030113440C330A461A8007
:1034400000F0F6FF304B01221A702DE02F4B1B8845
:1034500001339AB22D4B1A802C4B1B881E2B20D97E
:103460002B4B1B882B4AA2FB0323DB089BB218467D
:10347000274B1A88274BA3FB0213D9080B469B0046
:103480000B445B00D31A9BB21946204B1B8803F0F8
:103490000103DA001D4B1B8803F00103DB00FDF77D
:1034A000C1FB642001F01CFA20211B4802F082FEBF
:1034B0000346012BCAD0154B1B881E2B18D9144B61
:1034C0001B88144AA2FB0323DB089BB21846104B4F
:1034D0001A88104BA3FB0213D9080B469B000B4420
:1034E0005B00D31A9BB2194600230022FDF79AFB1A
:1034F000064B00221A8006E1EC0000202D0100207E
:10350000D00000202C01002016000020CC0000205C
:10351000DC000020CDCCCCCC000C01404021844804
:1035200002F048FE0346012B05D0824B1B68824AFD
:10353000934240F0E880142001F0D2F940217C4809
:1035400002F038FE0346012B05D07A4B1B687A4AFD
:10355000934240F0D880794B1B78184601F006F86A
:103560000346FB70FB78FF2B01D1FB7876E2FB78FA
:10357000734A1B01134401331A78704B1B7870494E
:103580001B010B4401331B789A4204D26D4B1B681C
:1035900001336C4A1360694AFB7813706A4B00224E
:1035A0001A800023BB6010E0654ABB681B0113440E
:1035B0000C3300221A80624ABB681B011344023399
:1035C00000221A70BB680133BB60604B1B781A463F
:1035D000BB689342E8DB5B4B1B68632B2AD8594BD3
:1035E0001B685B4AA2FB0323DB081846554B19688E
:1035F000574BA3FB0123DA0813469B0013445B00DF
:10360000CA1A1446504B1B88514AA2FB0323DB08FD
:103610009BB21D464C4B1A884D4BA3FB0213D90895
:103620000B469B000B445B00D31A9BB22A462146F3
:10363000FDF76CFB00F0FCFE3E4B00221A60454B90
:1036400000221A60444B00221A70444B01221A7067
:10365000434B01221A702DE0424B1B8801339AB272
:10366000404B1A803F4B1B881E2B20D93E4B1B889A
:10367000374AA2FB0323DB089BB218463A4B1A8851
:10368000334BA3FB0213D9080B469B000B445B0092
:10369000D31A9BB21946334B1B8803F00103DA009F
:1036A000304B1B8803F00103DB00FDF7BBFA6420FD
:1036B00001F016F940211E4802F07CFD0346012B63
:1036C000CAD0284B1B881E2B18D9274B1B88204A91
:1036D000A2FB0323DB089BB21846234B1A881C4B22
:1036E000A3FB0213D9080B469B000B445B00D31AC3
:1036F0009BB2194600230022FDF794FA194B0022D1
:103700001A8000E000BF0221094802F053FD034681
:10371000012B40F04281142001F0E2F8022104481C
:1037200002F048FD0346012B40F037810DE100BF58
:10373000000C0140C8000020044990002C0100202A
:10374000EC000020E0000020E8000020D000002075
:10375000CDCCCCCC1002002014020020160000209A
:10376000CE000020CC000020DC0000206A4B1B882B
:1037700001339AB2684B1A80674B1B88142B40F2B6
:10378000E180664B1B88664AA2FB0323DB089BB2E1
:103790001846624B1A88624BA3FB0213D9080B46EA
:1037A0009B000B445B00D31A9BB219465A4B1B88F3
:1037B00003F00103DA00584B1B8803F00103DB0020
:1037C000FDF730FA8021574802F0F4FC0346012B44
:1037D00027D1554B1B78554A1B0113441B785B00BE
:1037E0005BB243F001035AB24F4B1B78D1B24F4A40
:1037F0001B0113440A461A704B4B1B784B4A1B01A2
:10380000134401331A78484B1B7848491B010B4479
:103810001B781946104600F091FD454B01221A70A5
:1038200090E020213F4802F0C5FC0346012B33D134
:103830003D4B1B783D4A1B0113441B78002B27D0BE
:10384000394B1B78394A1B0113441B785B08DBB2E8
:10385000354A1278104603F00F03D9B2334A0301F8
:1038600013440A461A70304B1B78304A1B0113442C
:1038700001331A782C4B1B782C491B010B441B7805
:103880001946104600F05AFD2A4B9A88234B1A809D
:10389000274B01221A7055E04021224802F08AFC91
:1038A0000346012B4ED1244B01221A701E4B0022DD
:1038B0001A70224B00221A801E4BDA88204B1A8085
:1038C00000237B600BE07B68DBB20133DBB20122BB
:1038D0000021184600F088FD7B6801337B60154BA2
:1038E0001B781A467B689342EDDB114B01221A705C
:1038F000104B1B7A002B0CD00E4B1B78022B08D9D7
:1039000000F00EFE0346012B01D1FF23A6E000F0DC
:10391000C1FE0123A2E000BFCC000020DC0000209B
:10392000CDCCCCCC000C01402C010020EC000020C0
:1039300016000020D000002030010020E800002008
:10394000DE000020642000F0CBFF0221454802F099
:1039500031FC0346012B3FF409AF434B1B88142B6A
:1039600018D9424B1B88424AA2FB0323DB089BB2B7
:1039700018463E4B1A883E4BA3FB0213D9080B4650
:103980009B000B445B00D31A9BB219460023002214
:10399000FDF748F9344B00221A80364B1B68364A33
:1039A00093423BD1334B00221A60344B00221A6001
:1039B000334B00221A70334B1B78334A1B011344DC
:1039C0001B78002B27D02F4B1B782F4A1B01134449
:1039D0001B785B08DBB22B4A1278104603F00F030A
:1039E000D9B2294A030113440A461A70254B1B78A1
:1039F000254A1B01134401331A78224B1B782249B4
:103A00001B010B441B781946104600F097FC1F4B16
:103A10009A88164B1A801E4B01221A70154B1B6890
:103A20001C4A934219D1134B00221A60134B0022F7
:103A30001A60134B00221A70154B01221A70164B94
:103A40001B78002B03D0144B00221A7005E0134B97
:103A500000221A80104B01221A70002318461837D2
:103A6000BD46B0BD000C0140CC000020DC000020B1
:103A7000CDCCCCCCC80000200889900010020020DA
:103A8000140200202C010020EC000020D0000020B7
:103A90001600002020099200300100202E01002095
:103AA0002DE9F04198B00EAF0346396287F8273010
:103AB0006B4B01221A7097F8272097F8271097F878
:103AC0002730184600F050FC664B1B7803F00803C3
:103AD000DBB2002B0BD097F8270097F82710614B2B
:103AE0001B7803F007030822FDF79CF80AE097F81B
:103AF000270097F827105B4B1B7803F00702002381
:103B0000FDF790F897F8270097F8271097F82720E7
:103B100097F82730FDF7FAF897F8270097F827105D
:103B200097F8272097F8273001240094FDF75EF9D5
:103B30004D4B1B68002B4DD197F827C097F827E015
:103B400097F8271097F8270097F8274097F82750FD
:103B500097F8276097F82730FB6197F82720BA611C
:103B600097F827307B6197F827203A6197F827303C
:103B7000FB6097F82720BA6097F82780C7F8048081
:103B800097F8272097F827300D930C92D7F80480E8
:103B9000CDF82C80D7F80880CDF82880D7F80C8095
:103BA000CDF82480D7F81080CDF82080D7F8148085
:103BB000CDF81C80BA690692FB69059304960395BB
:103BC000029401900091734662460121274804F057
:103BD000C3F82CE097F827C097F827E097F827302C
:103BE00097F8272097F8271097F8270097F827408D
:103BF00097F8275097F8276097F82780C7F81C8018
:103C0000DFF86480D8F80080CDF82080D7F81C80D9
:103C1000CDF81C80069605950494039002910192BC
:103C20000093734662460121114804F095F8022181
:103C3000104804F091F8C82000F052FE094B1B78A0
:103C4000013BDAB2074B1A70064B1B78002B02D1EE
:103C5000044B10221A7000BF2837BD46BDE8F08122
:103C60001600002018000020C8000020848D0008E5
:103C7000B08D0008D08D000880B500AF8021A64827
:103C800002F098FA0346012B78D1142000F028FEA8
:103C90008021A14802F08EFA0346012B40F03981C1
:103CA0002DE09E4B1B8801339AB29C4B1A809B4B94
:103CB0001B88142B20D99A4B1B789A4AA2FB03230A
:103CC000DB08DBB21846964B1A78964BA3FB02131F
:103CD000D9080B469B000B445B00D31ADBB2194694
:103CE0008E4B1B8803F00103DA008C4B1B8803F01A
:103CF0000103DB00FCF796FF642000F0F1FD80215A
:103D0000854802F057FA0346012BCAD0834B1B8823
:103D1000142B04D9814B00221A800123FAE07F4B37
:103D200000221A80804B1B785B08DBB203F00F0384
:103D3000DAB27D4B1A707C4B1B781946002000F0DC
:103D4000FDFA794B1B78002B02D1774B1F221A709A
:103D5000734B1B780133DAB2714B1A70704B1B78BE
:103D6000092B02D96E4B00221A706D4B1B786F4ADB
:103D7000126811461846FFF793FECAE020216648F4
:103D800002F018FA0346012B19D04021624802F0D4
:103D900011FA0346012B12D002215F4802F00AFA01
:103DA0000346012B0BD001215B4802F003FA0346C6
:103DB000012B04D05D4B1B68002B00F0AA8014205F
:103DC00000F08EFD2021544802F0F4F90346012B47
:103DD00019D04021504802F0EDF90346012B12D0D2
:103DE00002214D4802F0E6F90346012B0BD00121D8
:103DF000494802F0DFF90346012B04D04B4B1B6806
:103E0000002B00F08680484B1B785B08DBB203F088
:103E10000F03DAB2444B1A70434B1B78194600204B
:103E200000F08CFA404B1B78002B02D13E4B1F2236
:103E30001A703B4B1B780133DAB2394B1A70384B8E
:103E40001B78092B02D9364B00221A70344B1B7891
:103E5000364A126811461846FFF722FE334B0022FD
:103E60001A60334B00221A60324B00221A702DE088
:103E70002A4B1B8801339AB2284B1A80274B1B8888
:103E8000142B20D9264B1B78264AA2FB0323DB08E0
:103E9000DBB21846224B1A78224BA3FB0213D90837
:103EA0000B469B000B445B00D31ADBB219461B4B3D
:103EB0001B8803F00103DA00184B1B8803F0010391
:103EC000DB00FCF7AFFE642000F00AFD0121124880
:103ED00002F070F90346012BCAD020210E4802F0EF
:103EE00069F90346012BC3D040210B4802F062F967
:103EF0000346012BBCD00221074802F05BF90346C0
:103F0000012BB5D08021044802F054F90346012B5F
:103F1000AED00023184680BD000C0140CC0000202C
:103F200032010020CDCCCCCC19000020C8000020EC
:103F30001002002014020020B0B582B002AF994BED
:103F40001B78DBB2002B00F0CA81964B00221A705E
:103F5000954B1B78002B40F0C481944B1B88013398
:103F60009AB2924B1A80914B1B88B3F5167F02D3FD
:103F70008E4B00221A808D4B1A888D4BA3FB0213A7
:103F8000D9080B469B000B445B00D31A9BB2002B55
:103F900040F03B81874B1B7A002B5CD0864B1B8803
:103FA000002B00F0AE80844B1B88013B9AB2824B01
:103FB0001A80814B1B88814AA2FB03239B099BB279
:103FC00018467D4B1B887E4AA2FB03235B099AB2ED
:103FD000774BA3FB0213D9080B469B000B445B00F5
:103FE000D31A9BB21C46744B1A88754BA3FB021361
:103FF00059090B461B015B1A9B00D31A9BB26C4AF2
:10400000A2FB0323DB089BB21D466B4B1A886C4B4B
:10401000A3FB021359090B461B015B1A9B00D31A21
:104020009AB2634BA3FB0213D9080B469B000B44C7
:104030005B00D31A9BB21A460123009313462A460B
:104040002146FCF7D3FE5C4B1B88002B59D15D4BFE
:104050000F221A7055E0584B1B8841F26F72934241
:104060004FD8554B1B8801339AB2534B1A80524B91
:104070001B88524AA2FB03239B099BB218464E4B56
:104080001B884F4AA2FB03235B099AB2484BA3FB50
:104090000213D9080B469B000B445B00D31A9BB25A
:1040A0001C46454B1A88464BA3FB021359090B4685
:1040B0001B015B1A9B00D31A9BB23D4AA2FB032350
:1040C000DB089BB21D463C4B1A883D4BA3FB0213F9
:1040D00059090B461B015B1A9B00D31A9AB2344B49
:1040E000A3FB0213D9080B469B000B445B00D31AB9
:1040F0009BB21A460123009313462A462146FCF739
:1041000075FE314B1B88002B7FD02F4B1B88013B4A
:104110009AB22D4B1A802C4B1B880F2B19D92A4B86
:104120001B88234AA2FB0323DB089BB21846264BBD
:104130001A881F4BA3FB0213D9080B469B000B44A4
:104140005B00D31A9BB2194608230822FCF76AFDCC
:104150005BE01D4B1B88072B38D91B4B1B88144A6F
:10416000A2FB0323DB089BB21846174B1A88104B9F
:10417000A3FB0213D9080B469B000B445B00D31A28
:104180009BB21946104B1B8803F007030822FCF76B
:1041900049FD0D4B1B880A2B37D80A4B01221A7098
:1041A00033E000BFC6000020300100202E010020B7
:1041B000CDCCCCCCD0000020DE000020B5814E1B41
:1041C0008988888816000020DC000020464B1B8868
:1041D000464AA2FB0323DB089BB21846424B1A88CF
:1041E000424BA3FB0213D9080B469B000B445B0018
:1041F000D31A9BB219463C4B1B8803F007020023DD
:10420000FCF710FD3A4B01221A703A4B1A88374BD3
:10421000A3FB021399080B469B000B44D31A9BB2D5
:10422000002B5FD1334B1A88304BA3FB0213D90804
:104230000B469B000B445B00D31A9BB2002B51D062
:104240002C4B1B88002B4DD02B4B1B882B4AA2FBE1
:1042500003239B099BB21846274B1B88284AA2FBC5
:1042600003235B099AB2214BA3FB0213D9080B4627
:104270009B000B445B00D31A9BB21C461E4B1A8852
:104280001F4BA3FB021359090B461B015B1A9B0032
:10429000D31A9BB2154AA2FB0323DB089BB21D462F
:1042A000154B1A88164BA3FB021359090B461B0129
:1042B0005B1A9B00D31A9AB20C4BA3FB0213D908CA
:1042C0000B469B000B445B00D31A9BB21A4600239B
:1042D000009313462A462146FCF788FD02E000BF02
:1042E00000E000BFBD46B0BDDC000020CDCCCCCC92
:1042F000160000202E010020DE000020B5814E1B9C
:104300008988888880B582B000AF0346FB71FB794D
:1043100001221946074803F01FFDFB7902221946C6
:10432000054803F019FDC82000F0DAFA00BF08378D
:10433000BD4680BDDC8D0008F88D000880B582B0D8
:1043400000AF03460A46FB711346BB71F979BB798E
:1043500030330322034803F0FFFC00BF0837BD469B
:1043600080BD00BF048E000880B584B002AF034654
:10437000FB710B46BB7113467B717B790C2B04D10F
:104380000121144803F0E8FC1CE07B790B2B06D1DB
:10439000BB791A460121104803F0DEFC12E07B795C
:1043A0000A2B06D1BB791A4601210C4803F0D4FC34
:1043B00008E0FA79B9797B7900930B460121084826
:1043C00003F0CAFC074803F04DFD00BF0837BD46A7
:1043D00080BD00BF108E00081C8E00082C8E0008C7
:1043E0003C8E00084C8E000880B584B002AF0346B6
:1043F000FB710B46BB7113467B71F979BA797B79F6
:10440000009313460422034803F0A6FC00BF0837BC
:10441000BD4680BD548E000880B400AF034B01221E
:104420001A7000BFBD4680BC704700BF1600002058
:1044300080B582B000AF00237B6007E07B68DBB211
:10444000184600F019F87B6801337B60084B1B7835
:104450001A467B689342F1DB0221064803F07CFC9C
:104460004FF4967000F03CFA00BF0837BD4680BD9F
:10447000D0000020D08D00082DE9F04188B006AFB3
:104480000346FB71FB79234A1B01134401331B785C
:104490009846FB795C1CFB791E4A1B0113440833C8
:1044A0001B881D46FB791B4A1B01134404331B6800
:1044B00019491846FCF79EF903461846FCF7EAFA34
:1044C0000146FB79134A1B0113440A331B881E461D
:1044D000FB79104A1B01134402331B78002B01D1D6
:1044E000452300E04423FA790A48120102440C32C1
:1044F00012880492039302960191009523460122AB
:104500004146064803F028FC00BF0837BD46BDE819
:10451000F08100BFEC0000200000C842648E00085B
:1045200080B483B000AF0023FB7100233B600DE03B
:104530000C4A3B681B01134408331B88002B02D034
:10454000FB790133FB713B6801333B60064B1B7801
:104550001A463B689342EBDBFB7918460C37BD46A5
:1045600080BC7047EC000020D000002080B487B0F1
:1045700000AF0346FB71454B1B7A002B03D0434B26
:104580001B78022B0AD1FB790133404A127893FB46
:10459000F2F101FB02F29B1ADBB272E000237B61B5
:1045A00022E000233B6116E0394A3B691B011344BA
:1045B00001331B781A467B6901339A4208D13B6963
:1045C000D9B207F10C027B6913440A461A7008E05D
:1045D0003B6901333B612D4B1B781A463B69934283
:1045E000E2DB7B6901337B61284B1B781A467B69D0
:1045F0009342D6DB00237B610AE007F10C027B6962
:1046000013441B78FA799A4209D07B6901337B61A4
:104610001E4B1B781A467B699342EEDB00E000BF1D
:1046200001233B6126E07A693B691344174A1278FB
:1046300093FBF2F101FB02F29B1A18333B4413F88F
:104640000C3C134A1B01134408331B88002B0ED06B
:104650007A693B6913440D4A127893FBF2F101FB2E
:1046600002F29B1A18333B4413F80C3C09E03B69F7
:1046700001333B61054B1B781A463B699342D2DB01
:10468000FF2318461C37BD4680BC7047D000002071
:10469000EC00002080B487B000AF8C4B1B88FB81FE
:1046A0008B4B1B78022B40F20C8100237B612DE0A9
:1046B00000233B6121E0874A3B691B01134401331E
:1046C0001B781A467B6901339A4213D13B69D9B2F0
:1046D00007F108027B6913440A461A707D4A3B6958
:1046E0001B011344013319783A1D7B6913440A46B0
:1046F0001A7008E03B6901333B61754B1B781A4621
:104700003B699342D7DB7B6901337B61704B1B783C
:104710001A467B699342CBDB6D4B1B78032B3CD154
:104720006D4B1B78002B18D03B7A7979694A1B01B5
:10473000134401330A461A707B7A3979654A1B01A2
:10474000134401330A461A70BB7AB979614A1B01D6
:10475000134401330A461A7017E03B7AB9795D4A6F
:104760001B01134401330A461A707B7A7979594A3E
:104770001B01134401330A461A70BB7A3979554A32
:104780001B01134401330A461A70534B1B78C3F1C3
:104790000103DAB2504B1A7094E03B7A79794D4AB2
:1047A0001B01134401330A461A70FA894B4BA3FBD1
:1047B000021359080B465B000B44D31A9BB2022B21
:1047C0004FD0022B7EDC002B02D0012B19D079E0D8
:1047D0007B7A39793F4A1B01134401330A461A7028
:1047E000BB7AF9793B4A1B01134401330A461A701C
:1047F000FB7AB979374A1B01134401330A461A7010
:1048000060E07B7AB979334A1B01134401330A46CD
:104810001A70FB8903F001039BB2002B10D0BB7A06
:1048200039792C4A1B01134401330A461A70FB7A6A
:10483000F979284A1B01134401330A461A7041E0F2
:10484000BB7AF979234A1B01134401330A461A70D3
:10485000FB7A39791F4A1B01134401330A461A7047
:1048600030E07B7AF9791B4A1B01134401330A4675
:104870001A70FB8903F001039BB2002B10D1BB7AA5
:104880003979144A1B01134401330A461A70FB7A22
:10489000B979104A1B01134401330A461A7011E01A
:1048A000BB7AB9790B4A1B01134401330A461A70CB
:1048B000FB7A3979074A1B01134401330A461A70FF
:1048C00000E000BF1C37BD4680BC7047BC00002024
:1048D000D0000020EC00002033010020ABAAAAAADF
:1048E00080B483B000AF78600B4A7B6813600B4BD9
:1048F00001221A700A4B00221A6000BF084B1A6886
:10490000054B1B689A42F9D9044B00221A7000BF6C
:104910000C37BD4680BC704734010020BE0000202B
:10492000C000002080B582B000AF7860391D4FF024
:10493000FF330122034802F052FD7B681846083716
:10494000BD4680BDC801002080B582B002AF00F036
:1049500083FE00F079FA00F079FB00F04DFB00F0E7
:10496000FFFA00F0ADFAB44802F0EEF8B24B1B6863
:1049700000225A62B14802F031F90120FDF700FE31
:10498000AF4B1B78042BFBD801A252F823F000BFD9
:10499000A5490008094B0008554C00084F4D000878
:1049A0001D4D00084FF40041A64801F032FC0023E1
:1049B00000220A210A20FCF735F90A230A220A21DB
:1049C0000A20FCF7A3F9002300930A230A220A21F4
:1049D0000A20FCF70BFA012200210020FFF704FD5A
:1049E0000C220C210C20FFF7BFFC00210020FFF758
:1049F000A5FC0020FFF786FCFFF70EFD0121924881
:104A000001F0D8FB0346012B39D11420FFF768FFD2
:104A100001218D4801F0CEFB0346012B6DD11AE038
:104A20008A4B1B8801339AB2884B1A80874B1B88AC
:104A3000142B0DD9854B1B8803F00103DA00834B3F
:104A40001B8803F00103DB000A210A20FCF7EAF8C7
:104A50006420FFF745FF01217B4801F0ABFB0346D3
:104A6000012BDDD0794B1B88142B04D9FFF7D4FC24
:104A7000734B01221A70754B00221A803DE0802191
:104A8000714801F097FB0346012B36D11420FFF744
:104A900027FF80216C4801F08DFB0346012B2CD1B0
:104AA0001AE06A4B1B8801339AB2684B1A80674B35
:104AB0001B88142B0DD9654B1B8803F00103DA000A
:104AC000624B1B8803F00103DB000A210A20FCF77C
:104AD000A9F86420FFF704FF80215B4801F06AFB1E
:104AE0000346012BDDD0594B1B88142B02D9544BA4
:104AF00004221A70554B00221A80514B1B78002B50
:104B000000D17BE700BF94E100210020FFF716FCF5
:104B1000FDF772FD4FF400414A4801F07AFBFFF7C0
:104B20000BFA0121484801F045FB0346012B3DD11A
:104B30001420FFF7D5FE0121434801F03BFB03465B
:104B4000012B73D11AE0414B1B8801339AB23F4BC2
:104B50001A803E4B1B88142B0DD93C4B1B8803F04D
:104B60000103DA00394B1B8803F00103DB000A2143
:104B70000A20FCF757F86420FFF7B2FE0121324803
:104B800001F018FB0346012BDDD0304B1B88142BA2
:104B900003D92B4B00221A7004E0FFF73DFC284B91
:104BA00002221A70294B00221A803FE00221264877
:104BB00001F000FB0346012B38D11420FFF790FED3
:104BC0000221214801F0F6FA0346012B2ED11AE00A
:104BD0001E4B1B8801339AB21C4B1A801B4B1B883F
:104BE000142B0DD9194B1B8803F00103DA00174B66
:104BF0001B8803F00103DB000A210A20FCF712F8EE
:104C00006420FFF76DFE02210F4801F0D3FA03463E
:104C1000012BDDD00D4B1B88142B04D9FFF7FCFBB7
:104C2000074B03221A70094B00221A80044B1B7891
:104C3000012B0DD173E700BF380100208001002057
:104C40000C02002000080140000C01400E02002070
:104C500000BFEEE00821774801F0DBFAFDF744FEE3
:104C600003461A46744B1A70734B1B78012B03D101
:104C7000724B01221A7007E06F4B1B78FF2B03D198
:104C80000F210020FFF75AFBFFF756F90121694871
:104C900001F090FA0346012B39D11420FFF720FED2
:104CA0000121644801F086FA0346012B2FD11AE056
:104CB000634B1B8801339AB2614B1A80604B1B888F
:104CC000142B0DD95E4B1B8803F00103DA005C4BFB
:104CD0001B8803F00103DB000A210A20FBF7A2FF77
:104CE0006420FFF7FDFD0121524801F063FA0346FD
:104CF000012BDDD0524B1B88142B05D90020FDF76A
:104D00003FFC4E4B00221A704D4B00221A804B4B39
:104D10001B78022B00D1A1E700BF8AE00F21002001
:104D2000FFF70CFB474B1B6819460020FEF7B8FE47
:104D3000FEF7A2FF0346002B02D0404B00221A7060
:104D40003E4B1B78042B00D1F2E700BF71E0FCF76B
:104D500087FB002300220A210A20FBF763FF0A23B6
:104D60000A220A210A20FBF7D1FF002300930A231D
:104D70000A220A210A20FCF739F80C220C210C2007
:104D8000FFF7F2FA00210020FFF7D8FA0020FFF722
:104D9000B9FAFCF7A1FBFFF7CFF80221254801F093
:104DA00009FA0346012B3DD11420FFF799FD02219A
:104DB000204801F0FFF90346012B33D11AE0204BC4
:104DC0001B8801339AB21E4B1A801D4B1B88142B73
:104DD0000DD91B4B1B8803F00103DA00184B1B880D
:104DE00003F00103DB000A210A20FBF71BFF64200C
:104DF000FFF776FD02210F4801F0DCF90346012B95
:104E0000DDD00F4B1B88142B09D9FFF705FB0020C1
:104E1000FDF7B6FBFCF752FB084B01221A70084B5A
:104E200000221A80054B1B78032B00D1B1E700BF8D
:104E300000BFA5E5000C01400D0200200C0200207F
:104E40000E020020C800002080B590B000AF07F12E
:104E5000180328220021184602F076FF3B1D00228D
:104E60001A605A609A60DA601A610223BB610123FA
:104E7000BB621023FB6200237B6307F11803184613
:104E800001F0F8F90346002B01D000F0B7F90F2329
:104E90007B600023BB600023FB6000233B61002399
:104EA0007B613B1D0021184601F066FC0346002B88
:104EB00001D000F0A3F900BF4037BD4680BD00001F
:104EC00080B586B000AF07F1080300221A605A606F
:104ED0009A60DA603B4600221A605A601E4B1F4AF5
:104EE0001A601D4B07225A601B4B00229A601A4B16
:104EF0004FF6FF72DA60184B00221A61164B00223F
:104F00005A61154B00229A61134801F0CDFD03460A
:104F1000002B01D000F072F94FF48053BB6007F111
:104F2000080319460C4801F0B3FF0346002B01D0DB
:104F300000F064F900233B6000237B603B46194688
:104F4000054802F08FF90346002B01D000F056F916
:104F500000BF1837BD4680BD38010020002C01403D
:104F600080B586B000AF07F1080300221A605A60CE
:104F70009A60DA603B4600221A605A601D4B4FF07F
:104F800080421A601B4B4F225A601A4B00229A60D3
:104F9000184B42F20F72DA60164B00221A61154B61
:104FA00080229A61134801F07FFD0346002B01D057
:104FB00000F024F94FF48053BB6007F10803194651
:104FC0000C4801F065FF0346002B01D000F016F9F4
:104FD00000233B6000237B603B461946054802F0F6
:104FE00041F90346002B01D000F008F900BF183743
:104FF000BD4680BD8001002080B500AF114B124A34
:105000001A60104B4FF416525A600E4B00229A60F1
:105010000C4B0022DA600B4B00221A61094B0C2268
:105020005A61084B00229A61064B0022DA6105485A
:1050300002F088F90346002B01D000F0DFF800BF32
:1050400080BD00BFC80100200048004080B586B088
:1050500000AF07F1080300221A605A609A60DA6014
:10506000334B9B69324A43F004039361304B9B6995
:1050700003F004037B607B682D4B9B692C4A43F053
:10508000080393612A4B9B6903F008033B603B686C
:10509000002248F2C001274801F0A3F800224FF295
:1050A0001811254801F09DF848F2C003BB600123A8
:1050B000FB6000233B6102237B6107F10803194673
:1050C0001C4800F0F3FEE323BB600023FB600223D7
:1050D0003B6107F108031946174800F0E7FE4FF25D
:1050E0001813BB600123FB6000233B6102237B613B
:1050F00007F108031946104800F0D8FE4FF400638A
:10510000BB600E4BFB6001233B6107F108031946AE
:10511000084800F0CBFE00220021282000F0D5FB3B
:10512000282000F0EEFB00BF1837BD4680BD00BF51
:105130000010024000080140000C01400000311046
:1051400080B582B000AF0346FB80FB88B3F5006FEB
:1051500045D14FF40061244801F02CF80346002BA0
:1051600004D1224B1B6800225A6239E01F4B1B6896
:105170005B6AB3F57A7F0DD91D4B1B78DBB21A46FB
:105180004FF0004323FA02F21A4B1B681343194AEB
:1051900013600CE0164B1B78DBB21A464FF000434D
:1051A000D340DA43134B1B681340124A1360104B71
:1051B0001B78DBB20133DAB20D4B1A700C4B1B7843
:1051C000DBB2182B0CD10B4B1B681B0A0A4A13606D
:1051D000084B00221A60064B00221A7000E000BF44
:1051E00000BF0837BD4680BD0008014038010020DF
:1051F0001402002010020020C800002080B400AF7C
:1052000072B600BFFEE7000080B485B000AF154B5A
:105210009B69144A43F001039361124B9B6903F0AD
:105220000103BB60BB680F4BDB690E4A43F0805340
:10523000D3610C4BDB6903F080537B607B680A4BC6
:105240005B68FB60FB6823F0E063FB60FB6843F096
:105250000073FB60044AFB68536000BF1437BD460F
:1052600080BC7047001002400000014080B584B04F
:1052700000AF78607B681B68164A93420CD1164BCE
:105280009B69154A43F400639361134B9B6903F4D4
:105290000063FB60FB6818E07B681B68B3F1804F1C
:1052A00013D10D4BDB690C4A43F00103D3610A4B68
:1052B000DB6903F00103BB60BB68002201211C20F5
:1052C00000F003FB1C2000F01CFB00BF1037BD46A4
:1052D00080BD00BF002C01400010024080B588B0A6
:1052E00000AF786007F1100300221A605A609A60DC
:1052F000DA607B681B68204A934239D11F4BDB6917
:105300001E4A43F48023D3611C4BDB6903F48023E2
:10531000FB60FB68194B9B69184A43F008039361D3
:10532000164B9B6903F00803BB60BB684FF48063B6
:105330003B6102237B610323FB6107F110031946E4
:105340000F4800F0B3FD4FF400633B6100237B6125
:105350000023BB6107F110031946094800F0A6FDC0
:1053600000220221272000F0B0FA272000F0C9FA1D
:1053700000BF2037BD4680BD0048004000100240FD
:10538000000C014080B500AF224B1B889BB201335B
:105390009AB2204B1A80204B1B78DBB2012B05D12F
:1053A0001E4B1B6801331D4A136002E01B4B002299
:1053B0001A60184B1B889BB242F21072934202D1C2
:1053C000144B00221A80134B1B889BB2144AA2FB79
:1053D00003125209642101FB02F29B1A9BB2002BBB
:1053E00002D1104B01221A700A4B1B889BB20C4A47
:1053F000A2FB03125209642101FB02F29B1A9BB229
:10540000002B02D1084B01221A7000F06BF900BF8B
:1054100080BD00BFBC000020BE000020C0000020F6
:105420001F85EB51C4000020C500002080B500AFEF
:10543000164B01221A70164B1B78DBB2002B12D0D0
:10544000134B1B78DBB2FF2B0DD001224FF4807180
:10545000104800F0C6FE0E4B1B78DBB2013BDAB2FF
:105460000B4B1A700DE00A4B1B78DBB2002B08D1F6
:1054700000224FF48071074800F0B3FE044BFF2276
:105480001A70054801F0FCFB00BF80BDC60000207B
:1054900016000020000C01408001002080B500AF04
:1054A000024802F02FF800BF80BD00BFC8010020F5
:1054B00080B500AF4FF4006000F0C4FE00BF80BDB7
:1054C00080B586B000AFF860B9607A6000237B6178
:1054D0000AE0AFF300800146BB685A1CBA60CAB24A
:1054E0001A707B6901337B617A697B689A42F0DBD1
:1054F0007B6818461837BD4680BD80B586B000AFC2
:10550000F860B9607A6000237B6109E0BB685A1CCF
:10551000BA601B781846FFF705FA7B6901337B6197
:105520007A697B689A42F1DB7B6818461837BD467A
:1055300080BD80B483B000AF78604FF0FF33184671
:105540000C37BD4680BC704780B483B000AF786034
:1055500039603B684FF400525A60002318460C37FC
:10556000BD4680BC704780B483B000AF7860012333
:1055700018460C37BD4680BC704780B485B000AF7C
:10558000F860B9607A60002318461437BD4680BCC5
:105590007047000080B586B000AF7860144A154BA4
:1055A000D31A7B617B693B61134B1B68002B02D1D3
:1055B000114B124A1A60104B1A687B6813443A69FF
:1055C0009A4207D202F096FB03460C221A604FF073
:1055D000FF3309E0084B1B68FB60074B1A687B68C8
:1055E0001344054A1360FB6818461837BD4680BD52
:1055F000005000200004000018020020500200208B
:1056000080B400AF00BFBD4680BC70470C480D4958
:105610000D4A002302E0D458C4500433C4188C420D
:10562000F9D30A4A0A4C002301E013600432A24273
:10563000FBD3FFF7E5FF02F063FBFFF785F9704747
:10564000000000208C000020908F000890000020B7
:1056500050020020FEE7000080B500AF084B1B6839
:10566000074A43F010031360032000F023F90F20D2
:1056700000F008F8FFF7C8FD0023184680BD00BF02
:105680000020024080B582B000AF7860124B1A68EB
:10569000124B1B7819464FF47A73B3FBF1F3B2FB4C
:1056A000F3F3184600F03BF90346002B01D0012329
:1056B0000EE07B680F2B0AD8002279684FF0FF308C
:1056C00000F003F9064A7B681360002300E0012321
:1056D00018460837BD4680BD1C000020240000206D
:1056E0002000002080B400AF054B1B781A46054B04
:1056F0001B681344034A136000BFBD4680BC70475B
:10570000240000201C02002080B400AF024B1B6864
:105710001846BD4680BC70471C02002080B485B08E
:1057200000AF78607B6803F00703FB600C4BDB681D
:10573000BB60BA684FF6FF031340BB60FB681A02F8
:10574000BB68134343F0BF6343F40033BB60044AB8
:10575000BB68D36000BF1437BD4680BC704700BF34
:1057600000ED00E080B400AF044BDB681B0A03F0DF
:1057700007031846BD4680BC704700BF00ED00E03F
:1057800080B483B000AF0346FB7197F90730002B5C
:105790000BDBFB7903F01F02064997F907305B0921
:1057A000012000FA02F241F8232000BF0C37BD4669
:1057B00080BC704700E100E080B483B000AF0346D6
:1057C0003960FB7197F90730002B0ADB3B68DAB2CE
:1057D0000C4997F907301201D2B20B4483F8002329
:1057E0000AE03B68DAB20849FB7903F00F03043B97
:1057F0001201D2B20B441A7600BF0C37BD4680BCF2
:10580000704700BF00E100E000ED00E080B489B027
:1058100000AFF860B9607A60FB6803F00703FB61D2
:10582000FB69C3F10703042B28BF0423BB61FB6999
:105830000433062B02D9FB69033B00E000237B61A4
:105840004FF0FF32BB6902FA03F3DA43BB681A4038
:105850007B699A404FF0FF317B6901FA03F3D9432A
:105860007B680B40134318462437BD4680BC704705
:1058700080B582B000AF78607B68013BB3F1807F78
:1058800001D301230FE00A4A7B68013B53600F21DB
:105890004FF0FF30FFF790FF054B00229A60044B5A
:1058A00007221A60002318460837BD4680BD00BF96
:1058B00010E000E080B582B000AF78607868FFF754
:1058C0002DFF00BF0837BD4680BD80B586B000AF54
:1058D0000346B9607A60FB7300237B61FFF742FFE8
:1058E00078617A68B9687869FFF790FF024697F99E
:1058F0000F3011461846FFF75FFF00BF1837BD464F
:1059000080BD80B582B000AF0346FB7197F90730C8
:105910001846FFF735FF00BF0837BD4680BD80B58C
:1059200082B000AF78607868FFF7A2FF03461846A0
:105930000837BD4680BD80B485B000AF78600023D5
:10594000FB737B6893F82130022B08D07B6804221C
:105950009A637B68002283F82020012320E07B6883
:105960001B681A687B681B6822F00E021A607B684D
:105970001B681A687B681B6822F001021A607B684A
:105980001A6C7B68DB6B012101FA02F25A607B68BA
:10599000012283F821207B68002283F82020FB7BF2
:1059A00018461437BD4680BC7047000080B584B0EF
:1059B00000AF78600023FB737B6893F82130022BE3
:1059C00005D07B6804229A630123FB7351E07B6856
:1059D0001B681A687B681B6822F00E021A607B68DD
:1059E0001B681A687B681B6822F001021A607B68DA
:1059F0001B68224A934229D07B681B68204A934245
:105A000022D07B681B681F4A93421AD07B681B68B0
:105A10001D4A934212D07B681B681C4A93420AD0ED
:105A20007B681B681A4A934202D14FF480130EE040
:105A30004FF080730BE04FF4803308E04FF4805355
:105A400005E04FF4807302E0102300E00123114AC7
:105A500053607B68012283F821207B68002283F851
:105A600020207B685B6B002B03D07B685B6B7868C6
:105A70009847FB7B18461037BD4680BD08000240A2
:105A80001C00024030000240440002405800024026
:105A90006C00024000000240F0B587B000AFF86033
:105AA000B960C7E900230123FB750023BB75002300
:105AB0007B752F4B1B7E012B01D1022354E02C4B15
:105AC00001221A764CF2503000F0B2F80346FB7512
:105AD000FB7D002B44D1FB68012B02D101237B7598
