:020000040800F2
:10000000005000203951000881510008815100083A
:100010008151000881510008815100080000000052
:1000200000000000000000000000000081510008F6
:10003000815100080000000081510008114E0008A5
:100040008151000881510008815100088151000848
:100050008151000881510008815100088151000838
:100060008151000881510008815100088151000828
:100070008151000881510008815100088151000818
:100080008151000881510008815100088151000808
:1000900081510008815100088151000881510008F8
:1000A00081510008815100088151000881510008E8
:1000B000B94E0008815100088151000881510008A3
:1000C00081510008815100088151000881510008C8
:1000D000815100088151000881510008294F000812
:1000E0003D4F0008815100088151000800000000C8
:1000F0000000000000000000000000000000000000
:0C01000000000000000000005FF808F1A3
:1001100010B5054C237833B9044B13B10448AFF341
:1001200000800123237010BD90000020000000001B
:10013000AC88000808B5034B1BB103490348AFF373
:10014000008008BD0000000094000020AC8800087A
:1001500081F0004102E000BF83F0004330B54FEA78
:1001600041044FEA430594EA050F08BF90EA020FE5
:100170001FBF54EA000C55EA020C7FEA645C7FEA78
:10018000655C00F0E2804FEA5454D4EB5555B8BF9B
:100190006D420CDD2C4480EA020281EA030382EA0C
:1001A000000083EA010180EA020281EA0303362D9E
:1001B00088BF30BD11F0004F4FEA01314FF4801C71
:1001C0004CEA113102D0404261EB410113F0004F83
:1001D0004FEA03334CEA133302D0524263EB43033A
:1001E00094EA050F00F0A780A4F10104D5F1200ED8
:1001F0000DDB02FA0EFC22FA05F2801841F1000133
:1002000003FA0EF2801843FA05F359410EE0A5F106
:1002100020050EF1200E012A03FA0EFC28BF4CF037
:10022000020C43FA05F3C01851EBE37101F00045ED
:1002300007D54FF0000EDCF1000C7EEB00006EEBFA
:100240000101B1F5801F1BD3B1F5001F0CD3490884
:100250005FEA30004FEA3C0C04F101044FEA4452DB
:1002600012F5800F80F09A80BCF1004F08BF5FEA62
:10027000500C50F1000041EB045141EA050130BD42
:100280005FEA4C0C404141EB0101013C28BFB1F554
:10029000801FE9D291F0000F04BF01460020B1FA9F
:1002A00081F308BF2033A3F10B03B3F120020CDA72
:1002B0000C3208DD02F1140CC2F10C0201FA0CF050
:1002C00021FA02F10CE002F11402D8BFC2F1200CB5
:1002D00001FA02F120FA0CFCDCBF41EA0C0190406B
:1002E000E41AA2BF01EB0451294330BD6FEA0404B4
:1002F0001F3C1CDA0C340EDC04F11404C4F120029F
:1003000020FA04F001FA02F340EA030021FA04F3B0
:1003100045EA030130BDC4F10C04C4F1200220FA07
:1003200002F001FA04F340EA0300294630BD21FA45
:1003300004F0294630BD94F0000F83F4801306BF0B
:1003400081F480110134013D4EE77FEA645C18BFFF
:100350007FEA655C29D094EA050F08BF90EA020F96
:1003600005D054EA000C04BF1946104630BD91EA8E
:10037000030F1EBF0021002030BD5FEA545C05D191
:100380004000494128BF41F0004130BD14F58004D0
:100390003CBF01F5801130BD01F0004545F0FE4144
:1003A00041F470014FF0000030BD7FEA645C1ABF79
:1003B000194610467FEA655C1CBF0B46024650EAB0
:1003C000013406BF52EA033591EA030F41F40021DC
:1003D00030BD00BF90F0000F04BF0021704730B562
:1003E0004FF4806404F132044FF000054FF0000137
:1003F00050E700BF90F0000F04BF0021704730B5F8
:100400004FF4806404F1320410F0004548BF4042CC
:100410004FF000013EE700BF42004FEAE2014FEA21
:1004200031014FEA02701FBF12F07F4393F07F4FFC
:1004300081F06051704732F07F4208BF704793F0FF
:100440007F4F04BF41F40021704730B54FF4607412
:1004500001F0004521F000411CE700BF50EA010215
:1004600008BF704730B54FF000050AE050EA0102BE
:1004700008BF704730B511F0004502D5404261EB2E
:1004800041014FF4806404F132045FEA915C3FF46F
:10049000D8AE4FF003025FEADC0C18BF03325FEA0C
:1004A000DC0C18BF033202EBDC02C2F1200300FABD
:1004B00003FC20FA02F001FA03FE40EA0E0021FAE2
:1004C00002F11444BDE600BF4FF0FF3C06E000BF60
:1004D0004FF0010C02E000BF4FF0010C4DF804CDCD
:1004E0004FEA410C7FEA6C5C4FEA430C18BF7FEA8D
:1004F0006C5C1BD001B050EA410C0CBF52EA430CBB
:1005000091EA030F02BF90EA020F0020704710F13A
:10051000000F91EA030F58BF994208BF90422CBFC9
:10052000D8176FEAE37040F0010070474FEA410CC2
:100530007FEA6C5C02D150EA013C07D14FEA430CE0
:100540007FEA6C5CD6D152EA033CD3D05DF8040B51
:10055000704700BF8446104662468C461946634683
:1005600000E000BF01B5FFF7B7FF002848BF10F15A
:10057000000F01BD4DF808EDFFF7F4FF0CBF01209F
:1005800000205DF808FB00BF4DF808EDFFF7EAFF1B
:1005900034BF012000205DF808FB00BF4DF808EDD6
:1005A000FFF7E0FF94BF012000205DF808FB00BFCB
:1005B0004DF808EDFFF7CEFF94BF012000205DF855
:1005C00008FB00BF4DF808EDFFF7C4FF34BF012062
:1005D00000205DF808FB00BF80F0004002E000BF93
:1005E00081F0004142001FBF5FEA410392EA030F1E
:1005F0007FEA226C7FEA236C6AD04FEA1262D2EB68
:100600001363C1BFD218414048404140B8BF5B426C
:10061000192B88BF704710F0004F40F4000020F005
:100620007F4018BF404211F0004F41F4000121F01B
:100630007F4118BF494292EA030F3FD0A2F1010265
:1006400041FA03FC10EB0C00C3F1200301FA03F1A3
:1006500000F0004302D5494260EB4000B0F5000FC6
:1006600013D3B0F1807F06D340084FEA310102F185
:100670000102FE2A51D2B1F1004F40EBC25008BF37
:1006800020F0010040EA03007047490040EB000001
:10069000013A28BFB0F5000FEDD2B0FA80FCACF102
:1006A000080CB2EB0C0200FA0CF0AABF00EBC2502F
:1006B00052421843BCBFD0401843704792F0000F1D
:1006C00081F4000106BF80F400000132013BB5E770
:1006D0004FEA41037FEA226C18BF7FEA236C21D0E6
:1006E00092EA030F04D092F0000F08BF084670474B
:1006F00090EA010F1CBF0020704712F07F4F04D119
:10070000400028BF40F00040704712F100723CBF2B
:1007100000F50000704700F0004343F0FE4040F455
:10072000000070477FEA226216BF08467FEA236313
:100730000146420206BF5FEA412390EA010F40F4FE
:10074000800070474FF0000304E000BF10F000434A
:1007500048BF40425FEA000C08BF704743F0964331
:1007600001464FF000001CE050EA010208BF70474C
:100770004FF000030AE000BF50EA010208BF7047D3
:1007800011F0004302D5404261EB41015FEA010CE8
:1007900002BF84460146002043F0B64308BFA3F1E0
:1007A0008053A3F50003BCFA8CF2083AA3EBC253C2
:1007B00010DB01FA02FC634400FA02FCC2F12002E1
:1007C000BCF1004F20FA02F243EB020008BF20F018
:1007D0000100704702F1200201FA02FCC2F120027E
:1007E00050EA4C0021FA02F243EB020008BF20EA73
:1007F000DC7070474FF0FF0C1CEAD0521EBF1CEAA1
:10080000D15392EA0C0F93EA0C0F6FD01A4480EA8E
:10081000010C400218BF5FEA41211ED04FF0006377
:1008200043EA501043EA5111A0FB01310CF00040A3
:10083000B1F5000F3EBF490041EAD3715B0040EAC9
:10084000010062F17F02FD2A1DD8B3F1004F40EB99
:10085000C25008BF20F00100704790F0000F0CF06C
:10086000004C08BF49024CEA502040EA51207F3A30
:10087000C2BFD2F1FF0340EAC250704740F400000B
:100880004FF00003013A5DDC12F1190FDCBF00F0FC
:1008900000407047C2F10002410021FA02F1C2F1AA
:1008A000200200FA02FC5FEA310040F1000053EA46
:1008B0004C0308BF20EADC70704792F0000F00F094
:1008C000004C02BF400010F4000F013AF9D040EA9A
:1008D0000C0093F0000F01F0004C02BF490011F42E
:1008E000000F013BF9D041EA0C018FE70CEAD1532C
:1008F00092EA0C0F18BF93EA0C0F0AD030F0004CAC
:1009000018BF31F0004CD8D180EA010000F000405F
:10091000704790F0000F17BF90F0004F084691F01D
:10092000000F91F0004F14D092EA0C0F01D1420257
:100930000FD193EA0C0F03D14B0218BF084608D120
:1009400080EA010000F0004040F0FE4040F400006A
:10095000704740F0FE4040F4400070474FF0FF0CFD
:100960001CEAD0521EBF1CEAD15392EA0C0F93EA44
:100970000C0F69D0A2EB030280EA010C49024FEA96
:10098000402037D04FF0805343EA111143EA10134F
:100990000CF000408B4238BF5B0042F17D024FF407
:1009A000000C8B4224BF5B1A40EA0C00B3EB510FE2
:1009B00024BFA3EB510340EA5C00B3EB910F24BFCB
:1009C000A3EB910340EA9C00B3EBD10F24BFA3EB50
:1009D000D10340EADC001B0118BF5FEA1C1CE0D118
:1009E000FD2A3FF650AF8B4240EBC25008BF20F0CB
:1009F000010070470CF0004C4CEA50207F32C2BF1F
:100A0000D2F1FF0340EAC250704740F400004FF0BB
:100A10000003013A37E792F0000F00F0004C02BFEC
:100A2000400010F4000F013AF9D040EA0C0093F0B6
:100A3000000F01F0004C02BF490011F4000F013B10
:100A4000F9D041EA0C0195E70CEAD15392EA0C0F78
:100A500008D142027FF47DAF93EA0C0F7FF470AFB0
:100A6000084676E793EA0C0F04D14B023FF44CAFF3
:100A700008466EE730F0004C18BF31F0004CCAD188
:100A800030F000427FF45CAF31F000437FF43CAFC4
:100A90005FE700BF4FEA4002B2F1FE4F0FD34FF0C5
:100AA0009E03B3EB12620DD94FEA002343F00043DB
:100AB00010F0004F23FA02F018BF404270474FF089
:100AC0000000704712F1610F01D1420205D110F010
:100AD000004008BF6FF0004070474FF000007047C3
:100AE00080B485B000AF78600023FB6016E0FB683F
:100AF00003F5003301339B027A689A420BD2FB68FC
:100B000003F500339B027A689A4204D3FB6803F52D
:100B100000339B0206E0FB680133FB60FB687F2B20
:100B2000E5DD002318461437BD4680BC7047000041
:100B3000B0B58AB000AFF860B9601346FB800023FF
:100B40007B6204F0AFFDF868FFF7CAFF3862FB88EC
:100B50009B001A46FB681344FB61F869FFF7C0FF6E
:100B6000B861204B00221A601E4A3B6A9360BA6942
:100B70003B6AD31A9B0A01331A4AD36007F1140364
:100B80001946184804F080FE0346002B1FD004F0DD
:100B9000BFFD034622E07B6A9B00BA6813441B68D2
:100BA00000221C46154622462B46F968022004F016
:100BB00009FD0346002B06D1FB680433FB607B6A0A
:100BC00001337B6203E004F0A3FD034606E0FB88EB
:100BD0007A6A9A42DFDB04F08BFD0023184628373F
:100BE000BD46B0BDAC00002080B485B000AFF86059
:100BF000B9601346FB80FB681A68BB681A60FB6823
:100C00000433FB60BB680433BB60FB885A1EFA8068
:100C1000002B00D0EFE700BF00BF1437BD4680BCFB
:100C20007047000080B584B000AFF860B9607A60AA
:100C30003B60FB68DAB2314B1A71BB68DAB22F4BFA
:100C40005A713B68DAB22D4B9A707B68DAB22B4B43
:100C5000DA7000F041F9402000F05EF900F09EF9F2
:100C600000F0CAF900F038F9C02000F055F900F0A2
:100C700095F9224B1B781A46214B9B5C184600F0D5
:100C80004BF900F08BF91D4B5B781A461C4B9B5CB3
:100C9000184600F041F900F081F9184B9B781A468C
:100CA000174B9B5C184600F037F900F077F9134BAF
:100CB000DB781A46134B9B5C184600F02DF900F0C8
:100CC0006DF90E4B1B791A460F4B9B5C184600F0D2
:100CD00023F900F063F9094B5B791A460A4B9B5CD8
:100CE000184600F019F900F059F900F085F987204D
:100CF00000F0AEF900BF1037BD4680BD00000020F7
:100D0000C8890008D4890008B889000880B584B073
:100D100000AFF860B9607A603B60FB68DAB2314BD3
:100D2000DA70BB68DAB22F4B1A717B68DAB22D4BDE
:100D30005A703B68DAB22B4B9A7000F09FF9402052
:100D400000F0BCF900F0FCF900F028FA00F096F988
:100D5000C02000F0B3F900F0F3F9224B1B781A46DB
:100D6000214B9B5C184600F0A9F900F0E9F91D4BF6
:100D70005B781A461C4B9B5C184600F09FF900F00C
:100D8000DFF9184B9B781A46174B9B5C184600F00E
:100D900095F900F0D5F9134BDB781A46124B9B5CA2
:100DA000184600F08BF900F0CBF90E4B1B791A4670
:100DB0000D4B9B5C184600F081F900F0C1F9094B1E
:100DC0005B791A46084B9B5C184600F077F900F0F7
:100DD000B7F900F0E3F9872000F00CFA00BF1037F4
:100DE000BD4680BD08000020E089000880B584B0C1
:100DF00000AFF860B9607A603B60FB68DAB2344BF0
:100E00001A71BB68DAB2324BDA707B68DAB2304BF7
:100E10005A703B68DAB22E4B1A703B7E0A33DAB254
:100E20002B4B9A7000F0FCF9402000F015FA00F00E
:100E30004FFA00F077FA00F0F3F9C02000F00CFA56
:100E400000F046FA224B1B781A46224B9B5C184650
:100E500000F002FA00F03CFA1D4B5B781A461D4B7D
:100E60009B5C184600F0F8F900F032FA184B9B78BA
:100E70001A46184B9B5C184600F0EEF900F028FA71
:100E8000134BDB781A46134B9B5C184600F0E4F9D1
:100E900000F01EFA0E4B1B791A460E4B9B5C18464F
:100EA00000F0DAF900F014FA094B5B791A46094BA5
:100EB0009B5C184600F0D0F900F00AFA00F032FA14
:100EC000872000F057FA00BF1037BD4680BD00BF35
:100ED00010000020EC89000880B500AF01224FF41B
:100EE00080510C4804F013FF11214FF4005000F022
:100EF00057FA01224FF40051064804F008FF02207F
:100F000000F082FA00224FF40051024804F0FFFE84
:100F100000BF80BD000C014080B584B000AF034627
:100F2000FB7111214FF4005000F03AFA0023FB60EE
:100F300029E000224FF48051174804F0E8FEFB79C5
:100F400003F00103002B06D001224FF40051124898
:100F500004F0DDFE05E000224FF400510E4804F0DD
:100F6000D6FE032000F050FAFB795B08FB710122EA
:100F70004FF48051084804F0CAFE032000F044FA00
:100F8000FB680133FB60FB68072BD2DD00BF00BFAD
:100F90001037BD4680BD00BF000C014080B500AFDA
:100FA00000224FF48051134804F0B1FE052000F0F8
:100FB0002BFA00214FF4005000F0F2F94FF40051E9
:100FC0000C4804F08DFE0346002B01D0FF230FE0F8
:100FD00001224FF48051074804F099FE022000F0EE
:100FE00013FA00224FF48051024804F090FE0123CE
:100FF000184680BD000C014080B500AF00224FF4C0
:101000008051124804F083FE022000F0FDF9112106
:101010004FF4005000F0C4F900224FF400510B4887
:1010200004F075FE022000F0EFF901224FF4805128
:10103000064804F06CFE022000F0E6F901224FF4AD
:101040000051024804F063FE00BF80BD000C014067
:1010500080B582B000AF0346FB71FFF73DFFFB791F
:1010600063F07703DBB21846FFF756FFFFF796FFF2
:10107000FFF7C2FF00BF0837BD4680BD80B500AF97
:1010800001224FF480410C4804F041FE11214FF43D
:10109000004000F085F901224FF40041064804F0B9
:1010A00036FE022000F0B0F900224FF40041024861
:1010B00004F02DFE00BF80BD000C014080B584B05F
:1010C00000AF0346FB7111214FF4004000F068F9B6
:1010D0000023FB6029E000224FF48041174804F010
:1010E00016FEFB7903F00103002B06D001224FF41A
:1010F0000041124804F00BFE05E000224FF40041CD
:101100000E4804F004FE032000F07EF9FB795B0832
:10111000FB7101224FF48041084804F0F8FD0320E0
:1011200000F072F9FB680133FB60FB68072BD2DD2E
:1011300000BF00BF1037BD4680BD00BF000C01409E
:1011400080B500AF00224FF48041134804F0DFFD6A
:10115000052000F059F900214FF4004000F020F97B
:101160004FF400410C4804F0BBFD0346002B01D0B6
:10117000FF230FE001224FF48041074804F0C7FD30
:10118000022000F041F900224FF48041024804F0AF
:10119000BEFD0123184680BD000C014080B500AFA4
:1011A00000224FF48041124804F0B1FD022000F00B
:1011B0002BF911214FF4004000F0F2F800224FF417
:1011C00000410B4804F0A3FD022000F01DF90122AC
:1011D0004FF48041064804F09AFD022000F014F913
:1011E00001224FF40041024804F091FD00BF80BD90
:1011F000000C014080B582B000AF0346FB71FFF7E1
:101200003DFFFB7963F07703DBB21846FFF756FF2B
:10121000FFF796FFFFF7C2FF00BF0837BD4680BD4E
:1012200080B500AF012280210A4804F070FD112131
:10123000402000F0B5F801224021064804F067FD87
:10124000022000F0E1F800224021024804F05FFD96
:1012500000BF80BD0008014080B584B000AF0346E8
:10126000FB711121402000F09BF80023FB6025E07A
:1012700000228021154804F04AFDFB7903F00103A8
:10128000002B05D001224021104804F040FD04E06D
:10129000002240210D4804F03AFD032000F0B4F88C
:1012A000FB795B08FB7101228021084804F02FFDC7
:1012B000032000F0A9F8FB680133FB60FB68072BF3
:1012C000D6DD00BF00BF1037BD4680BD000801401D
:1012D00080B500AF00228021114804F018FD0520E0
:1012E00000F092F80021402000F05AF840210C480C
:1012F00004F0F6FC0346002B01D0FF230DE0012291
:101300008021074804F003FD022000F07DF8002250
:101310008021034804F0FBFC0123184680BD00BF78
:101320000008014080B500AF00228021104804F081
:10133000EEFC022000F068F81121402000F030F8A7
:10134000002240210A4804F0E2FC022000F05CF890
:1013500001228021064804F0DAFC022000F054F853
:1013600001224021024804F0D2FC00BF80BD00BF32
:101370000008014080B582B000AF0346FB71FFF763
:101380004FFFFB7963F07703DBB21846FFF764FF8A
:10139000FFF79EFFFFF7C6FF00BF0837BD4680BDC1
:1013A00080B586B000AF7860396007F1080300228D
:1013B0001A605A609A60DA607B68BB603B68FB60C9
:1013C0003B68112B02D102237B6101E001233B61C9
:1013D0007B68402B02D07B68802B06D107F1080385
:1013E0001946074804F0F8FA06E007F10803194621
:1013F000044804F0F1FA00BF00BF1837BD4680BDB5
:1014000000080140000C014080B483B000AF786058
:101410001AE000BF00BF00BF00BF00BF00BF00BF99
:1014200000BF00BF00BF00BF00BF00BF00BF00BFC4
:1014300000BF00BF00BF00BF00BF00BF00BF00BFB4
:1014400000BF00BF00BF00BF7B685A1E7A60002B40
:10145000DFD100BF00BF0C37BD4680BC7047000025
:1014600080B500AF032212491248FFF7BDFB104BB5
:101470001B78FF2B17D10E4B1E225A800C4B2D22AE
:101480009A800B4B4FF4E162DA80094B04221A7008
:10149000074B3C225A70064B00221A720322044961
:1014A0000448FFF745FB044B01221A7000BF80BDC2
:1014B000D000002000FC01081700002080B500AF1C
:1014C000032203490348FFF733FB00BF80BD00BF81
:1014D000D000002000FC0108B0B588B002AFA44BDA
:1014E0001B78032B00F2B08701A252F823F000BF53
:1014F0000115000865180008991C000869200008FB
:101500009C4B1B78002B2CD09A4B00221A709A4BC4
:101510005B889A4AA2FB03235B099BB2D8B2964B25
:101520005B88964AA2FB03125209642101FB02F276
:101530009B1A9BB2924AA2FB0323DB089BB2DCB24C
:101540008D4B5A888E4BA3FB0213D9080B469B0088
:101550000B445B00D31A9BB2DBB21A46214602F061
:1015600003FD8021874804F0BBFB0346012B04D018
:10157000854B1B68854A93427AD1142002F05CFFA8
:101580008021804804F0ACFB0346012B05D07E4B44
:101590001B687E4A934240F062817B4B00221A60B6
:1015A000754B5B88622B05D8734B5B8801339AB20D
:1015B000714B5A80704B5B88704AA2FB03235B0916
:1015C0009BB2D8B26C4B5B886C4AA2FB03125209E7
:1015D000642101FB02F29B1A9BB2694AA2FB03231E
:1015E000DB089BB2DCB2644B5A88654BA3FB021349
:1015F000D9080B469B000B445B00D31A9BB2DBB2AD
:101600001A46214602F0B0FC614B01221A701AE022
:10161000604B1B8801339AB25E4B1A805D4B1B886E
:101620001E2B0DD95B4B1B8803F00103DA00594BCD
:101630001B8803F00103DB000A210A20FFF7F2FAFE
:10164000642002F0F9FE80214E4804F049FB034675
:10165000012BDDD04F4B1B881E2B05D90023002208
:101660000A210A20FFF7DEFA4A4B00221A80F6E030
:101670002021444804F034FB0346012B40F08C80C9
:10168000142002F0D9FE20213E4804F029FB034635
:10169000012B40F0D2863C4B00221A60364B5B880F
:1016A000002B05D0344B5B88013B9AB2324B5A80F9
:1016B000314B5B88314AA2FB03235B099BB2D8B252
:1016C0002D4B5B882D4AA2FB03125209642101FBBA
:1016D00002F29B1A9BB22A4AA2FB0323DB089BB2AD
:1016E000DCB2254B5A88264BA3FB0213D9080B46C4
:1016F0009B000B445B00D31A9BB2DBB21A46214617
:1017000002F032FC224B01221A701AE0214B1B8896
:1017100001339AB21F4B1A801E4B1B881E2B0DD90A
:101720001C4B1B8803F00103DA001A4B1B8803F0E3
:101730000103DB000A210A20FFF774FA642002F09B
:101740007BFE20210F4804F0CBFA0346012BDDD0AD
:10175000104B1B881E2B05D9002300220A210A20CA
:10176000FFF760FA0B4B00221A8000F066BE00BF44
:101770003101002017000020D00000201F85EB5110
:10178000CDCCCCCC000C0140C80000201009910049
:1017900016000020CC0000204021B04804F0A0FA40
:1017A0000346012B05D0AE4B1B68AE4A934240F076
:1017B0004486142002F040FE4021A84804F090FA2C
:1017C0000346012B05D0A64B1B68A64A934240F066
:1017D0003486A34B00221A60A34B1B780133DAB284
:1017E000A14B1A70A14B01221A700C220C210C2063
:1017F00002F0BAFB9E4B01221A701AE09D4B1B8827
:1018000001339AB29B4B1A809A4B1B881E2B0DD921
:10181000984B1B8803F00103DA00964B1B8803F0FA
:101820000103DB000A210A20FFF7FCF9642002F023
:1018300003FE4021894804F053FA0346012BDDD012
:101840008C4B1B881E2B05D9002300220A210A205D
:10185000FFF7E8F9874B00221A8000F0EEBD00BFC9
:1018600000F0EBBD814B1B78002B4CD07F4B00224E
:101870001A70814BDB88814AA2FB03239B099BB230
:1018800018467D4BDB887E4AA2FB03235B099AB294
:101890007C4BA3FB0213D9080B469B000B445B0057
:1018A000D31A9BB21C46744BDA88754BA3FB021308
:1018B00059090B461B015B1A9B00D31A9BB2714A54
:1018C000A2FB0323DB089BB21D466B4BDA886C4BF3
:1018D000A3FB021359090B461B015B1A9B00D31A89
:1018E0009AB2684BA3FB0213D9080B469B000B442A
:1018F0005B00D31A9BB21A460123009313462A4673
:101900002146FFF773FA8021544804F0E9F90346B1
:10191000012B05D0524B1B685B4A934240F0B680C6
:10192000142002F089FD80214C4804F0D9F90346C7
:10193000012B05D04A4B1B68534A934240F0AA81C1
:10194000474B00221A604C4BDB8841F229729342CC
:1019500005D8494BDB880A339AB2474BDA80464BAD
:10196000DB88464AA2FB03239B099BB21846424BE5
:10197000DB88434AA2FB03235B099AB2414BA3FBDA
:101980000213D9080B469B000B445B00D31A9BB291
:101990001C46394BDA883A4BA3FB021359090B4614
:1019A0001B015B1A9B00D31A9BB2364AA2FB03238E
:1019B000DB089BB21D46304BDA88314BA3FB021388
:1019C00059090B461B015B1A9B00D31A9AB22D4B87
:1019D000A3FB0213D9080B469B000B445B00D31AF0
:1019E0009BB21A460123009313462A462146FFF76D
:1019F000FDF91F4B01221A701AE01E4B1B880133A0
:101A00009AB21C4B1A801B4B1B881E2B0DD9194BED
:101A10001B8803F00103DA00164B1B8803F0010357
:101A2000DB000A210A20FFF7FDF8642002F004FD24
:101A300080210A4804F054F90346012BDDD00D4BF8
:101A40001B881E2B05D9002300220A210A20FFF73C
:101A5000E9F8084B00221A801CE100BF000C01408D
:101A6000C800002004499000310100201700002028
:101A700016000020CC000020D0000020B5814E1BB5
:101A800089888888CDCCCCCC100991002021A84829
:101A900004F026F90346012B40F09780142002F051
:101AA000CBFC2021A24804F01BF90346012B40F097
:101AB000C684A04B00221A609F4BDB88092B05D9F6
:101AC0009D4BDB880A3B9AB29B4BDA809A4BDB88B2
:101AD0009A4AA2FB03239B099BB21846964BDB88CC
:101AE000974AA2FB03235B099AB2964BA3FB02130E
:101AF000D9080B469B000B445B00D31A9BB21C46D3
:101B00008D4BDA888E4BA3FB021359090B461B0140
:101B10005B1A9B00D31A9BB28A4AA2FB0323DB0801
:101B20009BB21D46844BDA88854BA3FB02135909EF
:101B30000B461B015B1A9B00D31A9AB2814BA3FB85
:101B40000213D9080B469B000B445B00D31A9BB2CF
:101B50001A460123009313462A462146FFF746F909
:101B6000794B01221A701AE0784B1B8801339AB224
:101B7000764B1A80754B1B881E2B0DD9734B1B8817
:101B800003F00103DA00714B1B8803F00103DB0053
:101B90000A210A20FFF746F8642002F04DFC2021BC
:101BA000634804F09DF80346012BDDD0674B1B888A
:101BB0001E2B05D9002300220A210A20FFF732F844
:101BC000624B00221A8000F03ABC4021584804F0D1
:101BD00087F80346012B05D0564B1B685C4A93429D
:101BE00040F02D84142002F027FC4021504804F0DE
:101BF00077F80346012B05D04E4B1B68544A93429D
:101C000040F01D844B4B00221A60524B1B7801336D
:101C1000DAB2504B1A70504B01221A700023009315
:101C20000A230A220A210A20FFF7E0F8464B012284
:101C30001A701AE0454B1B8801339AB2434B1A8045
:101C4000424B1B881E2B0DD9404B1B8803F0010310
:101C5000DA003E4B1B8803F00103DB000A210A2057
:101C6000FEF7E0FF642002F0E7FB4021304804F07B
:101C700037F80346012BDDD0344B1B881E2B05D9CA
:101C8000002300220A210A20FEF7CCFF2F4B00225E
:101C90001A80D4E300BFD2E32F4B1B78002B1BD05C
:101CA0002D4B00221A70244B9B88264AA2FB03234B
:101CB000DB089BB21846204B9A88224BA3FB0213E9
:101CC000D9080B469B000B445B00D31A9BB2194604
:101CD00000230022FEF7A6FF8021154804F000F83B
:101CE0000346012B05D0134B1B681C4A934240F05E
:101CF000AD80142002F0A0FB80210D4803F0F0FF1E
:101D00000346012B05D00B4B1B68144A934240F04D
:101D1000A981084B00221A60074B9B88622B1FD8B1
:101D2000054B9B8801339AB2034B9A801BE000BF9E
:101D3000000C0140C8000020D0000020B5814E1BDF
:101D400089888888CDCCCCCC16000020CC0000201F
:101D50000449900031010020170000201009910073
:101D60009F4B00229A809E4B9B889E4AA2FB032396
:101D7000DB089BB218469A4B9A889A4BA3FB021336
:101D8000D9080B469B000B445B00D31A9BB2194643
:101D900000230022FEF746FF934B01221A702DE02C
:101DA000924B1B8801339AB2904B1A808F4B1B8841
:101DB0001E2B20D98A4B9B888A4AA2FB0323DB086F
:101DC0009BB21846864B9A88864BA3FB0213D90810
:101DD0000B469B000B445B00D31A9BB21946834B06
:101DE0001B8803F00103DA00804B1B8803F001031A
:101DF000DB00FEF717FF642002F01EFB80217C4809
:101E000003F06EFF0346012BCAD0784B1B881E2BB4
:101E100018D9734B9B88734AA2FB0323DB089BB240
:101E200018466F4B9A886F4BA3FB0213D9080B46D9
:101E30009B000B445B00D31A9BB21946002300227F
:101E4000FEF7F0FE694B00221A800BE12021684862
:101E500003F046FF0346012B40F08F80142002F070
:101E6000EBFA2021624803F03BFF0346012B40F0D0
:101E7000E882604B00221A60594B9B88002B06D0E9
:101E8000574B9B88013B9AB2554B9A8002E0544BCA
:101E900063229A80524B9B88524AA2FB0323DB08A1
:101EA0009BB218464E4B9A884E4BA3FB0213D9089F
:101EB0000B469B000B445B00D31A9BB219460023D0
:101EC0000022FEF7AFFE484B01221A702DE0474B6F
:101ED0001B8801339AB2454B1A80444B1B881E2B3A
:101EE00020D93F4B9B883F4AA2FB0323DB089BB2D0
:101EF00018463B4B9A883B4BA3FB0213D9080B4671
:101F00009B000B445B00D31A9BB21946374B1B88CE
:101F100003F00103DA00354B1B8803F00103DB00FB
:101F2000FEF780FE642002F087FA2021304803F09B
:101F3000D7FE0346012BCAD02C4B1B881E2B18D969
:101F4000274B9B88274AA2FB0323DB089BB218463A
:101F5000234B9A88234BA3FB0213D9080B469B0003
:101F60000B445B00D31A9BB2194600230022FEF7F4
:101F700059FE1E4B00221A8063E240211C4803F0E8
:101F8000AFFE0346012B05D01A4B1B681A4A934239
:101F900040F05782142002F04FFA4021144803F019
:101FA0009FFE0346012B05D0124B1B68124A934239
:101FB00040F047820F4B00221A60104B1B78013310
:101FC000DAB20E4B1A700E4B01221A700023002257
:101FD0000A210A20FEF726FE034B01221A702CE08C
:101FE000D0000020CDCCCCCC16000020CC000020AE
:101FF000000C0140C800002004499000310100207D
:1020000017000020A04B1B8801339AB29E4B1A8008
:102010009D4B1B881E2B0DD99B4B1B8803F0010386
:10202000DA00994B1B8803F00103DB000A210A2028
:10203000FEF7F8FD642002F0FFF94021934803F019
:102040004FFE0346012BDDD08F4B1B881E2B05D97D
:10205000002300220A210A20FEF7E4FD8A4B002219
:102060001A80EEE100BFECE1894B1B78002B27D0F2
:10207000874B00221A70874B1B7AFF2B02D1854BAE
:1020800002221A72834B1978824B1B7A0A33DBB215
:102090001A460C2001F068FF00237B610AE07B698F
:1020A000DBB20133DBB20F21184601F047FF7B6939
:1020B00001337B61774B1B781A467B699342EEDBD9
:1020C0008021724803F00CFE0346012B05D0724BB1
:1020D0001B68724A934240F08A80142002F0ACF9E7
:1020E00080216A4803F0FCFD0346012B05D06A4BB2
:1020F0001B686A4A934240F09E81674B00221A6037
:10210000644B1B780133DAB2624B1A70614B1B7857
:10211000042B1AD900233B610AE03B69DBB201338F
:10212000DBB20021184601F009FF3B6901333B6136
:102130003B69032BF1DD574B02221A70554B1B7A7A
:10214000C3F10103DAB2534B1A72524B1978514B57
:102150001B7A0A33DBB21A460C2001F005FF00237C
:10216000FB600AE0FB68DBB20133DBB20F211846EB
:1021700001F0E4FEFB680133FB60464B1B781A4616
:10218000FB689342EEDB464B01221A701AE03E4B8D
:102190001B8801339AB23C4B1A803B4B1B881E2B89
:1021A0000DD9394B1B8803F00103DA00364B1B882D
:1021B00003F00103DB000A210A20FEF733FD64204F
:1021C00002F03AF98021314803F08AFD0346012BE1
:1021D000DDD02D4B1B881E2B05D9002300220A21A0
:1021E0000A20FEF71FFD284B00221A8023E1202140
:1021F000264803F075FD0346012B40F0988014201B
:1022000002F01AF92021214803F06AFD0346012B50
:1022100040F01981204B00221A601E4B1B78022BC4
:102220001AD90023BB600AE0BB68DBB20133DBB222
:102230000021184601F082FEBB680133BB60154BDC
:102240001B781A46BB689342EEDB124B1B78013BAE
:10225000DAB2104B1A7009E00E4B04221A700D4BC3
:102260001B7AC3F10103DAB20A4B1A72094B1978CF
:10227000084B1B7A0A33DBB21A460C2001F074FEBD
:1022800000237B6019E000BFCC000020000C01405F
:1022900017000020D0000020C80000201009910085
:1022A000160000207B68DBB20133DBB20F21184639
:1022B00001F044FE7B6801337B60654B1B781A4656
:1022C0007B689342EEDB634B01221A701AE0624B8B
:1022D0001B8801339AB2604B1A805F4B1B881E2B00
:1022E0000DD95D4B1B8803F00103DA005A4B1B88A4
:1022F00003F00103DB000A210A20FEF793FC6420AF
:1023000002F09AF82021554803F0EAFC0346012B1D
:10231000DDD0514B1B881E2B05D9002300220A213A
:102320000A20FEF77FFC4C4B00221A808BE04021F4
:102330004A4803F0D5FC0346012B04D0484B1B68E8
:10234000484A93427FD1142002F076F84021434856
:1023500003F0C6FC0346012B04D0414B1B68414AE5
:10236000934270D13E4B00221A600C220C210C20AB
:1023700001F0FAFD00233B600AE03B68DBB2013369
:10238000DBB20021184601F0D9FD3B6801333B6008
:102390002F4B1B781A463B689342EEDB324B0022F0
:1023A0001A70324B01221A702A4B01221A702DE04A
:1023B000294B1B8801339AB2274B1A80264B1B8866
:1023C0001E2B20D92A4B1B882A4AA2FB0323DB0899
:1023D0009BB21846264B1A88264BA3FB0213D9083A
:1023E0000B469B000B445B00D31A9BB219461A4B59
:1023F0001B8803F00103DA00174B1B8803F001036D
:10240000DB00FEF70FFC642002F016F840211348B1
:1024100003F066FC0346012BCAD00F4B1B881E2B12
:1024200005D9002300220A210A20FEF7FBFB0A4BF4
:1024300000221A8007E000BF05E000BF04E000BFF3
:1024400002E000BF00E000BF00BF1837BD46B0BDCE
:10245000D000002016000020CC000020000C01401D
:10246000C80000200449900031010020170000201E
:10247000DC000020CDCCCCCC80B584B000AF0346CE
:10248000FB71FB79002B01D0FEF7EAFF154B1B789F
:10249000012B02D8134B04221A70134B01221A701D
:1024A0000023FB600DE0FB68DBB20133D9B20F4AB9
:1024B000FB681B01134401330A461A70FB680133A1
:1024C000FB60084B1B781A46FB689342EBDBFB680A
:1024D000022B02D1054B04225A74012318461037EF
:1024E000BD4680BDD000002030010020EC0000205F
:1024F000B0B584B002AFAA4B01221A70A94B0122D9
:102500001A60A94B00221A80A84B9A88A84B1A80FF
:10251000A64BDB88A54A127A92B202FB03F39AB269
:10252000A44B1A8000237B604DE0A34A7B681B010B
:1025300013440F221A70A04A7B681B011344043312
:102540004FF000021A60994B1B7A9BB2974A52884F
:1025500002FB03F39BB2954A127811467A688A42CD
:10256000B4BF01220022D2B292B202FB03F399B2AD
:10257000914A7B681B01134408330A461A808E4A2D
:102580007B681B0113440A3300221A808A4A7B6845
:102590001B0113440C3300221A80874A7B681B01FD
:1025A0001344023300221A70834A7B681B011344D0
:1025B00001331B78012B03D17B68DAB27F4B1A7091
:1025C0007B6801337B60794B1B781A467B689342AA
:1025D000ABDB774B1B887A4AA2FB0323DB089BB259
:1025E0001846734B1A88764BA3FB0213D9080B4687
:1025F0009B000B445B00D31A9BB2194608230822A8
:10260000FEF710FB674B1B686D4AA2FB0323DB0838
:102610001846644B19686A4BA3FB0123DA0813467A
:102620009B0013445B00CA1A14465F4B1B88644A24
:10263000A2FB0323DB089BB21D465B4B1A88604B51
:10264000A3FB0213D9080B469B000B445B00D31A73
:102650009BB22A462146FEF759FB564B1B88594A26
:10266000A2FB03239B099BB21846524B1B88564A78
:10267000A2FB03235B099AB2514BA3FB0213D908B7
:102680000B469B000B445B00D31A9BB21C46494B84
:102690001A884D4BA3FB021359090B461B015B1A09
:1026A0009B00D31A9BB2464AA2FB0323DB089BB2D2
:1026B0001D46404B1A88444BA3FB021359090B4695
:1026C0001B015B1A9B00D31A9AB23D4BA3FB02136A
:1026D000D9080B469B000B445B00D31A9BB21A46E9
:1026E0000123009313462A462146FEF77FFB2F4B1A
:1026F0005B88364AA2FB03235B099BB2D8B22B4B03
:102700005B88324AA2FB03125209642101FB02F2E8
:102710009B1A9BB22A4AA2FB0323DB089BB2DCB2C2
:10272000224B5A88264BA3FB0213D9080B469B0069
:102730000B445B00D31A9BB2DBB21A46214601F070
:1027400013FC00233B601AE01B4A3B681B01134447
:1027500001331A7818493B681B010B441B78194652
:10276000104601F0EBFB3B68DBB20133DBB2012228
:102770000021184601F038FC3B6801333B600B4BED
:102780001B781A463B689342DEDB01F051FC104B8C
:1027900001221A70012318460837BD46B0BD00BF9C
:1027A00030010020E0000020E8000020D0000020E0
:1027B000DC000020DE000020EC0000202C010020C6
:1027C000CDCCCCCCB5814E1B898888881F85EB5138
:1027D000CE00002000000000B0B586B000AF564B20
:1027E0001B78002B00F0BE80544B9A88544B1A8003
:1027F000544B1B78544A1B01134404331B68534A3F
:102800001360534B1B68013B1846FDF79BFF0246C4
:102810004E4B1B6819461046FDF7ECFF03461C465D
:102820004C4B1B881846FDF791FF0346194620467E
:10283000FDF7D8FE03461D46454B1B681846FDF7BD
:1028400081FF03463F4A1278144619462846FEF790
:1028500085F8034619463C4A2301134404331960A2
:10286000384B1B78384A1B01134404331B68184645
:10287000FDF7D2FD2EA3D3E90023FDF7A3FE034607
:10288000002B07D02F4B1B782F4A1B011344043316
:10289000314A1A602A4B1B88304AA2FB0323DB080B
:1028A0009BB21846264B1A882C4BA3FB0213D9085F
:1028B0000B469B000B445B00D31A9BB219460823BE
:1028C0000822FEF7AFF900237B6120E01D4B1B7847
:1028D0001A467B6993420CD11A4B1B781A4A1B018A
:1028E000134401331B7801220121184601F07CFBBF
:1028F0000AE0154A7B691B01134401331B7801224E
:102900000021184601F070FB7B6901337B610B4BA2
:102910001B781A467B699342D8DB114B00221A7050
:10292000054B00221A70002300F0EDBEAFF30080CB
:102930008FC2F5285CFF5840CE000020D000002058
:10294000DC0000202C010020EC000020E40000202E
:10295000E0000020E8000020E1FAC742CDCCCCCC5A
:10296000300100208021A24803F0BAF90346012B70
:1029700005D0A04B1B68A04A934240F06B82142004
:1029800001F05AFD80219A4803F0AAF90346012B71
:1029900005D0984B1B68984A934240F04D85954B63
:1029A00000221A60954B9A88954B1A80954B1B888C
:1029B00001339AB2934B1A80934B1B78934A1B01B5
:1029C00013440A331A888F4B1B889A420AD28E4BC3
:1029D0001B7818468B4B19888C4A030113440A3321
:1029E0000A461A80874B1B88632B2ED8884B1B689E
:1029F000632B2AD8864B1B68864AA2FB0323DB087D
:102A00001846834B1968834BA3FB0123DA0813464E
:102A10009B0013445B00CA1A14467A4B1B887D4AFC
:102A2000A2FB0323DB089BB21D46764B1A88794B29
:102A3000A3FB0213D9080B469B000B445B00D31A7F
:102A40009BB22A462146FEF761F9714B1B68013B98
:102A50001846FDF777FE02466F4B1B681946104675
:102A6000FDF7C8FE03461C46664B1B881846FDF75B
:102A70006DFE034619462046FDF7B4FD03461D468C
:102A8000634B1B681846FDF75DFE03465E4A1278ED
:102A9000144619462846FDF761FF034619465B4A6E
:102AA0002301134404331960574B1B78574A1B0109
:102AB000134404331B681846FDF7AEFC4AA3D3E960
:102AC0000023FDF77FFD0346002B07D04E4B1B78FC
:102AD0004E4A1B0113440433504A1A60474B1B7A79
:102AE000002B00F0018101F01BFB0346013BDAB231
:102AF0004B4B1A7000233B61EEE0444A3B691B01DB
:102B0000134408331B88002B00F0E2803E4B1B78F7
:102B10001A463B69934240F085803C4A3B691B0161
:102B2000134408331A883E4B1B789BB2134499B266
:102B3000364A3B691B01134408330A461A80334A5C
:102B40003B691B01134402331B78002B37D0344BF5
:102B50001B789AB22D493B691B010B440C331B882F
:102B60009A4219D32E4B1B789AB228493B691B0114
:102B70000B440C331B88D31A99B2244A3B691B01BE
:102B800013440C330A461A80204A3B691B01134444
:102B9000023300221A709CE01C4A3B691B0113445B
:102BA0000C331A881E4B1B789BB2D31A99B2174A62
:102BB0003B691B0113440C330A461A8089E0134A0F
:102BC0003B691B0113440C331A88154B1B789BB2CD
:102BD000134499B20D4A3B691B0113440C330A4656
:102BE0001A8076E0AFF300808FC2F5285CFF584072
:102BF000000C0140C800002010099100D000002006
:102C0000DC000020E80000202C010020EC00002067
:102C1000E0000020CDCCCCCCE4000020E1FAC7429B
:102C20002D010020A04A3B691B01134408331B8877
:102C3000002B0ED09C4A3B691B01134408331B88B0
:102C4000013B99B2984A3B691B01134408330A4679
:102C50001A80954A3B691B01134402331B78002BF1
:102C60000FD0914A3B691B0113440C331B8801337D
:102C700099B28D4A3B691B0113440C330A461A80F2
:102C800027E0894A3B691B0113440C331B88002B46
:102C90000ED1854A3B691B0113440C3301221A8073
:102CA000814A3B691B011344023301221A7010E070
:102CB0007D4A3B691B0113440C331B88013B99B2CD
:102CC000794A3B691B0113440C330A461A8000E021
:102CD00000BF3B6901333B61744B1B781A463B696B
:102CE0009342FFF60AAF59E0714B1B786E4A1B0105
:102CF000134408331B886E4A12781046013399B288
:102D0000694A0301134408330A461A80684B1B784A
:102D1000654A1B01134402331B78002B2CD0644BF3
:102D20001B78614A1B0113440C331B88012B10D103
:102D30005F4B1B785C4A1B0113440C3300221A8042
:102D40005B4B1B78584A1B011344023300221A7054
:102D500024E0574B1B78544A1B0113440C331B8847
:102D6000534A12781046013B99B24F4A030113446B
:102D70000C330A461A8011E04D4B1B784A4A1B015E
:102D800013440C331B884A4A12781046013399B217
:102D9000454A030113440C330A461A8001F048F9EE
:102DA000444B01221A702DE0434B1B8801339AB229
:102DB000414B1A80404B1B881E2B20D93F4B1B8850
:102DC0003F4AA2FB0323DB089BB218463B4B1A8801
:102DD0003B4BA3FB0213D9080B469B000B445B0043
:102DE000D31A9BB21946344B1B8803F00103DA0057
:102DF000314B1B8803F00103DB00FDF713FF642058
:102E000001F01AFB80212F4802F06AFF0346012BD4
:102E1000CAD0294B1B881E2B18D9284B1B88284A3F
:102E2000A2FB0323DB089BB21846244B1A88244BD1
:102E3000A3FB0213D9080B469B000B445B00D31A7B
:102E40009BB2194600230022FDF7ECFE1A4B00222C
:102E50001A80F1E220211B4802F042FF0346012BB9
:102E600040F0E281142001F0E7FA2021154802F039
:102E700037FF0346012B40F0E082134B00221A601B
:102E80000A4B9A880D4B1A80084B1B7A002B00F0D6
:102E9000048101F045F90346013BDAB20B4B1A708D
:102EA0000023FB60F1E000BFEC000020D000002018
:102EB0002C01002016000020CC000020DC000020A7
:102EC000CDCCCCCC000C0140C80000202D0100204E
:102ED0009A4AFB681B01134408331B88002B00F03F
:102EE000D080974B1B781A46FB6893427BD1934A5C
:102EF000FB681B01134408331A88924B1B789BB262
:102F00009A4215D38E4B1B788C4A1B01134408330D
:102F10001A888C4B1B789BB2894909780846D31ACA
:102F200099B2864A0301134408330A461A8007E01F
:102F3000834B1B78814A1B011344083300221A80FB
:102F40007E4AFB681B01134402331B78002B12D00E
:102F50007A4AFB681B0113440C331A88794B1B789F
:102F60009BB2134499B2754AFB681B0113440C339E
:102F70000A461A8086E0734B1B789AB26F49FB6849
:102F80001B010B440C331B889A4219D96D4B1B78DB
:102F90009AB26A49FB681B010B440C331B88D31A95
:102FA00099B2664AFB681B0113440C330A461A8027
:102FB000624AFB681B011344023301221A7061E06C
:102FC0005E4AFB681B0113440C331A885D4B1B7867
:102FD0009BB2D31A99B2594AFB681B0113440C33B4
:102FE0000A461A804EE0554AFB681B011344083319
:102FF0001B88013399B2514AFB681B011344083303
:103000000A461A804D4AFB681B01134402331B78A1
:10301000002B26D0494AFB681B0113440C331B8844
:10302000012B0ED1454AFB681B0113440C330022CF
:103030001A80424AFB681B011344023300221A70B3
:1030400020E03E4AFB681B0113440C331B88013B04
:1030500099B23A4AFB681B0113440C330A461A80A2
:1030600010E0364AFB681B0113440C331B88013304
:1030700099B2324AFB681B0113440C330A461A808A
:1030800000E000BFFB680133FB602F4B1B781A4642
:10309000FB689342FFF61CAF6AE0294B1B78274A76
:1030A0001B01134408331B88002B11D0244B1B78C1
:1030B000224A1B01134408331B88214A1278104608
:1030C000013B99B21D4A0301134408330A461A8092
:1030D0001B4B1B78194A1B01134402331B78002B2E
:1030E00012D0174B1B78154A1B0113440C331B8855
:1030F000134A12781046013399B2104A030113445F
:103100000C330A461A8033E00D4B1B780B4A1B0127
:1031100013440C331B88002B18D1094B1B78074A2A
:103120001B0113440C3301221A80054B1B78034A00
:103130001B011344023301221A7019E0EC00002035
:103140002C0100202D010020D0000020824B1B7894
:10315000824A1B0113440C331B887F4A12781046A5
:10316000013B99B27D4A030113440C330A461A808D
:1031700000F05EFF7A4B01221A702DE0794B1B881C
:1031800001339AB2774B1A80764B1B881E2B20D9BD
:10319000754B1B88754AA2FB0323DB089BB21846BC
:1031A000714B1A88714BA3FB0213D9080B469B0085
:1031B0000B445B00D31A9BB219466A4B1B8803F081
:1031C0000103DA00674B1B8803F00103DB00FDF706
:1031D00029FD642001F030F92021654802F080FDCE
:1031E0000346012BCAD05F4B1B881E2B18D95E4BA0
:1031F0001B885E4AA2FB0323DB089BB218465A4B8E
:103200001A885A4BA3FB0213D9080B469B000B44A8
:103210005B00D31A9BB2194600230022FDF702FD82
:10322000504B00221A8008E14021514802F058FD1D
:103230000346012B05D04F4B1B684F4A934240F089
:10324000FC80142001F0F8F84021494802F048FDC4
:103250000346012B05D0474B1B68474A934240F079
:10326000EC80444B00221A603B4B1B78184600F060
:103270007DFF0346FB70FB78FF2B01D1FB7842E218
:10328000FB78364A1B01134401331A78324B1B7802
:1032900032491B010B4401331B789A4204D2374B4D
:1032A0001B680133354A13602B4AFB781370344B8B
:1032B00000221A800023BB6010E0284ABB681B0173
:1032C00013440C3300221A80244ABB681B011344A8
:1032D000023300221A70BB680133BB60294B1B7894
:1032E0001A46BB689342E8DB244B1B68632B2AD841
:1032F000224B1B681D4AA2FB0323DB0818461F4B09
:1033000019681A4BA3FB0123DA0813469B001344E8
:103310005B00CA1A14461A4B1B88144AA2FB0323EB
:10332000DB089BB21D46164B1A88104BA3FB0213F9
:10333000D9080B469B000B445B00D31A9BB22A466C
:103340002146FDF7E3FC00F073FE054B01221A70E5
:103350000D4B01221A7047E02C010020EC000020E8
:1033600016000020CC000020DC000020CDCCCCCC0E
:10337000000C0140C800002004499000E00000203B
:10338000E8000020D0000020CE0000209F4B1B88CA
:1033900001339AB29D4B1A809C4B1B881E2B20D95F
:1033A0009B4B1B889B4AA2FB0323DB089BB218465E
:1033B000974B1A88974BA3FB0213D9080B469B0027
:1033C0000B445B00D31A9BB21946904B1B8803F049
:1033D0000103DA008D4B1B8803F00103DB00FDF7CE
:1033E00021FC642001F028F840218B4802F078FC91
:1033F0000346012BCAD0854B1B881E2B18D9844B42
:103400001B88844AA2FB0323DB089BB21846804B2F
:103410001A88804BA3FB0213D9080B469B000B4470
:103420005B00D31A9BB2194600230022FDF7FAFB7A
:10343000764B00221A8000E000BF0221764802F09D
:103440004FFC0346012B40F02281142000F0F4FFD2
:103450000221714802F044FC0346012B40F0178121
:10346000EDE06A4B1B8801339AB2684B1A80674BB8
:103470001B88142B40F2E080654B1B88654AA2FB39
:103480000323DB089BB21846614B1A88614BA3FBF0
:103490000213D9080B469B000B445B00D31A9BB266
:1034A00019465A4B1B8803F00103DA00574B1B885F
:1034B00003F00103DB00FDF7B5FB8021564802F065
:1034C0000FFC0346012B27D1544B1B78544A1B0198
:1034D00013441B785B005BB243F001035AB24F4BBD
:1034E0001B78D1B24E4A1B0113440A461A704B4B4B
:1034F0001B784B4A1B01134401331A78474B1B7846
:1035000047491B010B441B781946104600F016FD75
:10351000444B01221A708FE020213F4802F0E0FB6B
:103520000346012B33D13D4B1B783D4A1B0113440D
:103530001B78002B27D0394B1B78394A1B011344C9
:103540001B785B08DBB2354A1278104603F00F0394
:10355000D9B2334A030113440A461A702F4B1B7821
:103560002F4A1B01134401331A782C4B1B782C492A
:103570001B010B441B781946104600F0DFFC2A4B58
:103580009A88234B1A80274B01221A7054E040215D
:10359000214802F0A5FB0346012B4DD1234B01220C
:1035A0001A701E4B00221A70214B00221A801E4BEB
:1035B000DA88204B1A8000237B600BE07B68DBB24B
:1035C0000133DBB201220021184600F00DFD7B68BB
:1035D00001337B60144B1B781A467B689342EDDB0A
:1035E000104B01221A70104B1B7A002B0CD00E4B83
:1035F0001B78032B08D900F093FD0346012B01D162
:10360000FF2380E000F042FE01237CE0CC0000209C
:10361000DC000020CDCCCCCC000C01402C010020E3
:10362000EC00002016000020D00000203001002017
:10363000E8000020DE000020642000F0FDFE0221F2
:10364000334802F04DFB0346012B3FF40AAF314BE8
:103650001B88142B18D9304B1B88304AA2FB03233C
:10366000DB089BB218462C4B1A882C4BA3FB021389
:10367000D9080B469B000B445B00D31A9BB219463A
:1036800000230022FDF7CEFA224B00221A80244BA1
:103690001B68244A934235D1214B00221A60224BE9
:1036A0001B78224A1B0113441B78002B27D01E4B8A
:1036B0001B781E4A1B0113441B785B08DBB21A4AB5
:1036C0001278104603F00F03D9B2184A03011344CD
:1036D0000A461A70144B1B78144A1B011344013319
:1036E0001A78114B1B7811491B010B441B781946A2
:1036F000104600F023FC0E4B9A88074B1A800D4BA6
:1037000001221A70002318461837BD46B0BD00BF0D
:10371000000C0140CC000020DC000020CDCCCCCC43
:10372000C8000020088990002C010020EC00002037
:10373000D0000020160000202DE9F04196B00EAF19
:103740000346FB77444B01221A70FA7FF97FFB7F17
:10375000184600F009FC414B1B7803F00803DBB26C
:10376000002B09D0F87FF97F3C4B1B7803F007034F
:103770000822FDF757FA08E0F87FF97F374B1B78EE
:1037800003F007020023FDF74DFAF87FF97FFA7F77
:10379000FB7FFDF7BBFAF87FF97FFA7FFB7F0124FF
:1037A0000094FDF723FB97F81FC097F81FE0F97FFF
:1037B000F87FFC7FFD7FFE7FFB7FBB61FA7F7A6134
:1037C000FB7F3B61FA7FFA60FB7FBB60FA7F7A6028
:1037D00097F81F80C7F80080FA7FFB7F0D930C924B
:1037E000D7F80080CDF82C80D7F80480CDF8288059
:1037F000D7F80880CDF82480D7F80C80CDF8208049
:10380000D7F81080CDF81C807A690692BB690593C1
:10381000049603950294019000917346624601213B
:103820000F4804F039F802210E4804F035F8C8209A
:1038300000F002FE094B1B78013BDAB2074B1A700D
:10384000064B1B78002B02D1044B10221A7000BFCC
:103850002037BD46BDE8F08116000020180000208A
:10386000C4880008F088000880B500AF8021A04817
:1038700002F036FA0346012B75D1142000F0DCFD6E
:1038800080219B4802F02CFA0346012B40F02C814A
:103890002DE0984B1B8801339AB2964B1A80954BBA
:1038A0001B88142B20D9944B1B78944AA2FB03232A
:1038B000DB08DBB21846904B1A78904BA3FB02133F
:1038C000D9080B469B000B445B00D31ADBB21946A8
:1038D000884B1B8803F00103DA00864B1B8803F03A
:1038E0000103DB00FDF79EF9642000F0A5FD8021B7
:1038F0007F4802F0F5F90346012BCAD07D4B1B88A7
:10390000142B04D97B4B00221A800123EDE0794B64
:1039100000221A807A4B1B785B08DBB203F00F039E
:10392000DAB2774B1A70764B1B781946002000F0FC
:1039300005FB734B1B78002B02D1714B1F221A70B1
:103940006D4B1B780133DAB26B4B1A706A4B1B78E4
:10395000092B02D9684B00221A70674B1B78184656
:10396000FFF7EAFEC0E02021614802F0B9F9034602
:10397000012B19D040215E4802F0B2F90346012B19
:1039800012D002215A4802F0ABF90346012B0BD0AA
:103990000121574802F0A4F90346012B04D0594BEA
:1039A0001B68002B00F0A080142000F045FD2021B2
:1039B0004F4802F095F90346012B18D040214C489E
:1039C00002F08EF90346012B11D00221484802F083
:1039D00087F90346012B0AD00121454802F080F9FE
:1039E0000346012B03D0474B1B68002B7CD0454B73
:1039F00000221A60424B1B785B08DBB203F00F0316
:103A0000DAB23F4B1A703E4B1B781946002000F08B
:103A100095FA3B4B1B78002B02D1394B1F221A70B1
:103A2000354B1B780133DAB2334B1A70324B1B78AB
:103A3000092B02D9304B00221A702F4B1B781846E5
:103A4000FFF77AFE2DE02B4B1B8801339AB2294BEE
:103A50001A80284B1B88142B20D9274B1B78274A08
:103A6000A2FB0323DB08DBB21846234B1A78234B57
:103A7000A3FB0213D9080B469B000B445B00D31A2F
:103A8000DBB219461B4B1B8803F00103DA00194B0C
:103A90001B8803F00103DB00FDF7C4F8642000F08D
:103AA000CBFC0121124802F01BF90346012BCAD0BE
:103AB00020210F4802F014F90346012BC3D0402106
:103AC0000B4802F00DF90346012BBCD00221084837
:103AD00002F006F90346012BB5D08021044802F01C
:103AE000FFF80346012BAED00023184680BD00BF6F
:103AF000000C0140CC00002032010020CDCCCCCC09
:103B000019000020C8000020B0B582B002AFA34B5E
:103B10001B78DBB2002B00F0E281A04B00221A7070
:103B20009F4B1B689F4A934213D19D4B00221A6002
:103B30009D4B01221A709D4B1B78002B03D09B4B91
:103B400000221A7005E09A4B00221A80974B01223E
:103B50001A70964B1B78002B40F0C381944B1B8846
:103B600001339AB2924B1A80914B1B88B3F5167FA2
:103B700002D38F4B00221A808D4B1A888D4BA3FBEA
:103B80000213D9080B469B000B445B00D31A9BB26F
:103B9000002B40F03A81884B1B7A002B5CD0874B7E
:103BA0001B88002B00F0AE80844B1B88013B9AB22F
:103BB000824B1A80814B1B88814AA2FB03239B09FD
:103BC0009BB218467D4B1B887E4AA2FB03235B09F0
:103BD0009AB2784BA3FB0213D9080B469B000B4407
:103BE0005B00D31A9BB21C46744B1A88754BA3FB1F
:103BF000021359090B461B015B1A9B00D31A9BB297
:103C00006C4AA2FB0323DB089BB21D466B4B1A8850
:103C10006C4BA3FB021359090B461B015B1A9B005B
:103C2000D31A9AB2634BA3FB0213D9080B469B002D
:103C30000B445B00D31A9BB21A4601230093134630
:103C40002A462146FDF7D2F85C4B1B88002B59D140
:103C5000554B0F221A7055E0584B1B8841F26F727A
:103C600093424FD8554B1B8801339AB2534B1A805D
:103C7000524B1B88524AA2FB03239B099BB2184656
:103C80004E4B1B884F4AA2FB03235B099AB2494B58
:103C9000A3FB0213D9080B469B000B445B00D31A0D
:103CA0009BB21C46454B1A88464BA3FB021359098D
:103CB0000B461B015B1A9B00D31A9BB23D4AA2FB29
:103CC0000323DB089BB21D463C4B1A883D4BA3FBEC
:103CD000021359090B461B015B1A9B00D31A9AB2B7
:103CE000344BA3FB0213D9080B469B000B445B002B
:103CF000D31A9BB21A460123009313462A46214643
:103D0000FDF774F8304B1B88002B7ED02E4B1B88A0
:103D1000013B9AB22C4B1A802B4B1B880F2B19D9C5
:103D2000294B1B88234AA2FB0323DB089BB21846BE
:103D3000254B1A881F4BA3FB0213D9080B469B0087
:103D40000B445B00D31A9BB2194608230822FCF7E8
:103D500069FF5AE01C4B1B88072B37D91A4B1B886D
:103D6000144AA2FB0323DB089BB21846164B1A88A1
:103D7000104BA3FB0213D9080B469B000B445B00BE
:103D8000D31A9BB21946104B1B8803F00703082275
:103D9000FCF748FF044B01221A7036E0C6000020F1
:103DA000C8000020200992001600002030010020E9
:103DB0002E010020CDCCCCCCD0000020DE00002095
:103DC000B5814E1B89888888DC000020464B1B8803
:103DD000464AA2FB0323DB089BB21846424B1A88D3
:103DE000424BA3FB0213D9080B469B000B445B001C
:103DF000D31A9BB219463C4B1B8803F007020023E1
:103E0000FCF710FF3A4B01221A703A4B1A88374BD5
:103E1000A3FB021399080B469B000B44D31A9BB2D9
:103E2000002B5FD1334B1A88304BA3FB0213D90808
:103E30000B469B000B445B00D31A9BB2002B51D066
:103E40002C4B1B88002B4DD02B4B1B882B4AA2FBE5
:103E500003239B099BB21846274B1B88284AA2FBC9
:103E600003235B099AB2214BA3FB0213D9080B462B
:103E70009B000B445B00D31A9BB21C461E4B1A8856
:103E80001F4BA3FB021359090B461B015B1A9B0036
:103E9000D31A9BB2154AA2FB0323DB089BB21D4633
:103EA000154B1A88164BA3FB021359090B461B012D
:103EB0005B1A9B00D31A9AB20C4BA3FB0213D908CE
:103EC0000B469B000B445B00D31A9BB21A4600239F
:103ED000009313462A462146FCF788FF02E000BF04
:103EE00000E000BFBD46B0BDDC000020CDCCCCCC96
:103EF000160000202E010020DE000020B5814E1BA0
:103F00008988888880B582B000AF0346FB71FB7951
:103F100001221946074803F0BFFCFB79022219462B
:103F2000054803F0B9FCC82000F086FA00BF083746
:103F3000BD4680BDFC8800081889000880B582B0A5
:103F400000AF03460A46FB711346BB71F979BB7992
:103F500030330322034803F09FFC00BF0837BD46FF
:103F600080BD00BF2489000880B584B002AF03463D
:103F7000FB710B46BB7113467B717B790C2B04D113
:103F80000121144803F088FC1CE07B790B2B06D13F
:103F9000BB791A460121104803F07EFC12E07B79C0
:103FA0000A2B06D1BB791A4601210C4803F074FC98
:103FB00008E0FA79B9797B7900930B46012108482A
:103FC00003F06AFC074803F0EDFC00BF0837BD466C
:103FD00080BD00BF308900083C8900084C8900087A
:103FE0005C8900086C89000880B584B002AF034684
:103FF000FB710B46BB7113467B71F979BA797B79FA
:10400000009313460422034803F046FC00BF083720
:10401000BD4680BD7489000880B400AF034B012207
:104020001A7000BFBD4680BC704700BF160000205C
:1040300080B582B000AF00237B6007E07B68DBB215
:10404000184600F019F87B6801337B60084B1B7839
:104050001A467B689342F1DB0221064803F01CFC00
:104060004FF4967000F0E8F900BF0837BD4680BDF8
:10407000D0000020F08800082DE9F04188B006AF9C
:104080000346FB71FB79234A1B01134401331B7860
:104090009846FB795C1CFB791E4A1B0113440833CC
:1040A0001B881D46FB791B4A1B01134404331B6804
:1040B00019491846FCF79EFB03461846FCF7EAFC34
:1040C0000146FB79134A1B0113440A331B881E4621
:1040D000FB79104A1B01134402331B78002B01D1DA
:1040E000452300E04423FA790A48120102440C32C5
:1040F00012880492039302960191009523460122AF
:104100004146064803F0C8FB00BF0837BD46BDE87E
:10411000F08100BFEC0000200000C8428489000844
:1041200080B483B000AF0023FB7100233B600DE03F
:104130000C4A3B681B01134408331B88002B02D038
:10414000FB790133FB713B6801333B60064B1B7805
:104150001A463B689342EBDBFB7918460C37BD46A9
:1041600080BC7047EC000020D000002080B487B0F5
:1041700000AF0346FB71434B1B7A002B0AD1FB793E
:104180000133404A127893FBF2F101FB02F29B1AD1
:10419000DBB272E000237B6122E000233B6116E08A
:1041A000394A3B691B01134401331B781A467B696A
:1041B00001339A4208D13B69D9B207F10C027B69FD
:1041C00013440A461A7008E03B6901333B612D4BEA
:1041D0001B781A463B699342E2DB7B6901337B61C2
:1041E000284B1B781A467B699342D6DB00237B6100
:1041F0000AE007F10C027B6913441B78FA799A42B2
:1042000009D07B6901337B611E4B1B781A467B69A1
:104210009342EEDB00E000BF01233B6126E07A69B8
:104220003B691344174A127893FBF2F101FB02F247
:104230009B1A18333B4413F80C3C134A1B011344DC
:1042400008331B88002B0ED07A693B6913440D4A52
:10425000127893FBF2F101FB02F29B1A18333B44F4
:1042600013F80C3C09E03B6901333B61054B1B78BB
:104270001A463B699342D2DBFF2318461C37BD46E2
:1042800080BC7047D0000020EC00002080B487B0D4
:1042900000AF664B1B88FB8100237B612AE0002373
:1042A0003B6121E0624A3B691B01134401331B78E7
:1042B0001A467B6901339A4213D13B69D9B207F19F
:1042C00008027B6913440A461A70594A3B691B016C
:1042D0001344013319783A1D7B6913440A461A7056
:1042E00005E03B6901333B613B69032BDADD7B6908
:1042F00001337B617B69032BD1DD3B7A79794C4AB1
:104300001B01134401330A461A70FA89494BA3FB77
:10431000021359080B465B000B44D31A9BB2022BC5
:104320004FD0022B7DDC002B02D0012B19D078E07E
:104330007B7A39793E4A1B01134401330A461A70CD
:10434000BB7AF9793A4A1B01134401330A461A70C1
:10435000FB7AB979364A1B01134401330A461A70B5
:104360005FE07B7AB979324A1B01134401330A4674
:104370001A70FB8903F001039BB2002B10D0BB7AAB
:1043800039792B4A1B01134401330A461A70FB7A10
:10439000F979274A1B01134401330A461A7040E099
:1043A000BB7AF979224A1B01134401330A461A7079
:1043B000FB7A39791E4A1B01134401330A461A70ED
:1043C0002FE07B7AF9791A4A1B01134401330A461C
:1043D0001A70FB8903F001039BB2002B10D1BB7A4A
:1043E0003979134A1B01134401330A461A70FB7AC8
:1043F000B9790F4A1B01134401330A461A700FE0C2
:10440000BB7AB9790A4A1B01134401330A461A7070
:10441000FB7A3979064A1B01134401330A461A70A4
:1044200000BF00BF1C37BD4680BC7047BC000020E9
:10443000EC000020ABAAAAAA80B483B000AF7860D9
:104440000B4A7B6813600B4B01221A700A4B002247
:104450001A6000BF084B1A68054B1B689A42F9D9CD
:10446000044B00221A7000BF0C37BD4680BC704759
:1044700034010020BE000020C000002080B582B0C2
:1044800000AF7860391D4FF0FF330122034802F07E
:1044900046FD7B6818460837BD4680BDC801002030
:1044A00080B582B002AF00F06DFE00F071FA00F04E
:1044B00071FB00F045FB00F0F7FA00F0A5FAB348F5
:1044C00002F0E2F8B14B1B6800225A62B04802F0D9
:1044D00025F90120FDF7D0FFAE4B1B78042BFBD84C
:1044E00001A252F823F000BFFD4400086146000815
:1044F000A5470008994800086D4800084FF400419E
:10450000A54801F01CFC002300220A210A20FCF728
:1045100089FB0A230A220A210A20FCF7F7FB002361
:1045200000930A230A220A210A20FCF75FFC0122D9
:1045300000210020FFF758FD0C220C210C20FFF772
:1045400013FD00210020FFF7F9FC0020FFF7DAFC43
:10455000FFF762FD0121914801F0C2FB0346012BE8
:1045600039D11420FFF768FF01218C4801F0B8FB16
:104570000346012B6DD11AE0894B1B8801339AB297
:10458000874B1A80864B1B88142B0DD9844B1B88B4
:1045900003F00103DA00824B1B8803F00103DB0008
:1045A0000A210A20FCF73EFB6420FFF745FF0121AA
:1045B0007A4801F095FB0346012BDDD0784B1B8830
:1045C000142B04D9FFF728FD724B01221A70744B8B
:1045D00000221A803DE08021704801F081FB0346F3
:1045E000012B36D11420FFF727FF80216B4801F003
:1045F00077FB0346012B2CD11AE0694B1B88013352
:104600009AB2674B1A80664B1B88142B0DD9644BEA
:104610001B8803F00103DA00614B1B8803F00103E0
:10462000DB000A210A20FCF7FDFA6420FFF704FFF3
:1046300080215A4801F054FB0346012BDDD0584B32
:104640001B88142B02D9534B04221A70544B00229E
:104650001A80504B1B78002B00D17BE700BF8DE107
:10466000FDF746FF4FF400414B4801F068FBFFF7B0
:104670004BFA0121494801F033FB0346012B3DD1A0
:104680001420FFF7D9FE0121444801F029FB03461D
:10469000012B73D11AE0424B1B8801339AB2404B75
:1046A0001A803F4B1B88142B0DD93D4B1B8803F000
:1046B0000103DA003A4B1B8803F00103DB000A21F7
:1046C0000A20FCF7AFFA6420FFF7B6FE0121334859
:1046D00001F006FB0346012BDDD0314B1B88142B68
:1046E00003D92C4B00221A7004E0FFF795FC294BEC
:1046F00002221A702A4B00221A803FE0022127482A
:1047000001F0EEFA0346012B38D11420FFF794FE96
:104710000221224801F0E4FA0346012B2ED11AE0CF
:104720001F4B1B8801339AB21D4B1A801C4B1B88F0
:10473000142B0DD91A4B1B8803F00103DA00184B18
:104740001B8803F00103DB000A210A20FCF76AFA48
:104750006420FFF771FE0221104801F0C1FA034600
:10476000012BDDD00E4B1B88142B04D9FFF754FC12
:10477000084B03221A700A4B00221A80054B1B7843
:10478000012B00D173E700BFF8E000BF3801002023
:10479000800100200C02002000080140000C0140B4
:1047A0000E0200200821764801F0C9FAFEF714F83D
:1047B00003461A46734B1A70724B1B78012B03D1B8
:1047C000714B01221A7007E06E4B1B78FF2B03D14F
:1047D0000F210020FFF7B2FBFFF796F9012168488F
:1047E00001F07EFA0346012B39D11420FFF724FE95
:1047F0000121634801F074FA0346012B2FD11AE01E
:10480000624B1B8801339AB2604B1A805F4B1B8846
:10481000142B0DD95D4B1B8803F00103DA005B4BB1
:104820001B8803F00103DB000A210A20FCF7FAF9D8
:104830006420FFF701FE0121514801F051FA0346BF
:10484000012BDDD0514B1B88142B05D90020FDF71F
:1048500013FE4D4B00221A704C4B00221A804A4B1B
:104860001B78022B00D1A1E700BF87E00F210020B9
:10487000FFF764FB0020FEF75FFFFEF7F5FF03463E
:10488000002B02D0404B00221A703F4B1B78042BA8
:1048900000D1F2E700BF71E0FCF7E2FD0023002247
:1048A0000A210A20FCF7BEF90A230A220A210A205B
:1048B000FCF72CFA002300930A230A220A210A207B
:1048C000FCF794FA0C220C210C20FFF74DFB002181
:1048D0000020FFF733FB0020FFF714FBFCF7FCFD83
:1048E000FFF712F90221264801F0FAF90346012BDD
:1048F0003DD11420FFF7A0FD0221214801F0F0F97D
:104900000346012B33D11AE0204B1B8801339AB2A6
:104910001E4B1A801D4B1B88142B0DD91B4B1B885B
:1049200003F00103DA00194B1B8803F00103DB00DD
:104930000A210A20FCF776F96420FFF77DFD0221A9
:104940000F4801F0CDF90346012BDDD00F4B1B883A
:10495000142B09D9FFF760FB0020FDF78DFDFCF754
:10496000ADFD094B01221A70084B00221A80064B3C
:104970001B78032B00D1B1E700BF00BFACE500BF3F
:10498000000C01400D0200200C0200200E0200204D
:1049900080B590B000AF07F1180328220021184617
:1049A00002F072FF3B1D00221A605A609A60DA60C2
:1049B0001A610223BB610123BB621023FB62002347
:1049C0007B6307F11803184601F0F4F90346002B46
:1049D00001D000F059F90F237B600023BB60002356
:1049E000FB6000233B6100237B613B1D00211846D7
:1049F00001F062FC0346002B01D000F045F900BF36
:104A00004037BD4680BD000080B586B000AF07F1DD
:104A1000080300221A605A609A60DA603B4600225E
:104A20001A605A601E4B1F4A1A601D4B07225A60BB
:104A30001B4B00229A601A4B4FF6FF72DA60184B3C
:104A400000221A61164B00225A61154B00229A610E
:104A5000134801F0C9FD0346002B01D000F014F902
:104A60004FF48053BB6007F1080319460C4801F06E
:104A7000AFFF0346002B01D000F006F900233B6096
:104A800000237B603B461946054802F08BF903463C
:104A9000002B01D000F0F8F800BF1837BD4680BDEC
:104AA00038010020002C014080B586B000AF07F12E
:104AB000080300221A605A609A60DA603B460022BE
:104AC0001A605A601D4B4FF080421A601B4B4F22F8
:104AD0005A601A4B00229A60184B42F20F72DA6049
:104AE000164B00221A61154B80229A61134801F07F
:104AF0007BFD0346002B01D000F0C6F84FF4805335
:104B0000BB6007F1080319460C4801F061FF03463A
:104B1000002B01D000F0B8F800233B6000237B603D
:104B20003B461946054802F03DF90346002B01D0EB
:104B300000F0AAF800BF1837BD4680BD80010020F4
:104B400080B500AF114B124A1A60104B4FF4165249
:104B50005A600E4B00229A600C4B0022DA600B4B1D
:104B600000221A61094B0C225A61084B00229A61FB
:104B7000064B0022DA61054802F084F90346002B57
:104B800001D000F081F800BF80BD00BFC801002047
:104B90000048004080B586B000AF07F1080300224E
:104BA0001A605A609A60DA60334B9B69324A43F06C
:104BB00004039361304B9B6903F004037B607B68C3
:104BC0002D4B9B692C4A43F0080393612A4B9B6948
:104BD00003F008033B603B68002248F2C00127480D
:104BE00001F095F800224FF21811254801F08FF8D6
:104BF00048F2C003BB600123FB6000233B6102233A
:104C00007B6107F1080319461C4800F0E5FEE32329
:104C1000BB600023FB6002233B6107F108031946D8
:104C2000174800F0D9FE4FF21813BB600123FB6058
:104C300000233B6102237B6107F1080319461048FA
:104C400000F0CAFE4FF40063BB600E4BFB60012313
:104C50003B6107F108031946084800F0BDFE002239
:104C60000021282000F0C7FB282000F0E0FB00BF57
:104C70001837BD4680BD00BF00100240000801404B
:104C8000000C01400000311080B400AF72B600BFCC
:104C9000FEE7000080B485B000AF154B9B69144A55
:104CA00043F001039361124B9B6903F00103BB6066
:104CB000BB680F4BDB690E4A43F08053D3610C4B4A
:104CC000DB6903F080537B607B680A4B5B68FB60A9
:104CD000FB6823F0E063FB60FB6843F00073FB605C
:104CE000044AFB68536000BF1437BD4680BC704760
:104CF000001002400000014080B584B000AF786031
:104D00007B681B68164A93420CD1164B9B69154A67
:104D100043F400639361134B9B6903F40063FB60EE
:104D2000FB6818E07B681B68B3F1804F13D10D4B13
:104D3000DB690C4A43F00103D3610A4BDB6903F0E2
:104D40000103BB60BB68002201211C2000F053FB63
:104D50001C2000F06CFB00BF1037BD4680BD00BFBB
:104D6000002C01400010024080B588B000AF786090
:104D700007F1100300221A605A609A60DA607B68BB
:104D80001B68204A934239D11F4BDB691E4A43F40A
:104D90008023D3611C4BDB6903F48023FB60FB6839
:104DA000194B9B69184A43F008039361164B9B69A2
:104DB00003F00803BB60BB684FF480633B610223D0
:104DC0007B610323FB6107F1100319460F4800F0D4
:104DD00003FE4FF400633B6100237B610023BB6152
:104DE00007F110031946094800F0F6FD00220221E0
:104DF000272000F000FB272000F019FB00BF203720
:104E0000BD4680BD0048004000100240000C01403B
:104E100080B500AF224B1B889BB201339AB2204B66
:104E20001A80204B1B78DBB2012B05D11E4B1B686F
:104E300001331D4A136002E01B4B00221A60184B1D
:104E40001B889BB242F21072934202D1144B002293
:104E50001A80134B1B889BB2144AA2FB03125209FF
:104E6000642101FB02F29B1A9BB2002B02D1104B72
:104E700001221A700A4B1B889BB20C4AA2FB031238
:104E80005209642101FB02F29B1A9BB2002B02D152
:104E9000084B01221A7000F0BBF900BF80BD00BFB3
:104EA000BC000020BE000020C00000201F85EB5188
:104EB000C4000020C500002080B500AF164B0122C1
:104EC0001A70164B1B78DBB2002B12D0134B1B78D9
:104ED000DBB2FF2B0DD001224FF48071104800F09F
:104EE00016FF0E4B1B78DBB2013BDAB20B4B1A708C
:104EF0000DE00A4B1B78DBB2002B08D100224FF4E7
:104F00008071074800F003FF044BFF221A70054828
:104F100001F056FC00BF80BDC60000201600002036
:104F2000000C01408001002080B500AF024802F073
:104F300089F800BF80BD00BFC801002080B500AF68
:104F40004FF40061244800F0CBFE0346002B04D14F
:104F5000224B1B6800225A6237E0204B1B685B6AB9
:104F6000B3F57A7F0DD91E4B1B78DBB21A464FF092
:104F7000004323FA02F21B4B1B681343194A1360C8
:104F80000CE0174B1B78DBB21A464FF00043D340BE
:104F9000DA43144B1B681340124A1360104B1B7802
:104FA000DBB20133DAB20E4B1A700D4B1B78DBB259
:104FB000182B0AD10B4B1B681B0A0B4A1360094BB9
:104FC00000221A60064B00221A704FF4006000F0B5
:104FD000CFFE00BF80BD00BF0008014038010020A7
:104FE0001402002010020020C800002080B586B006
:104FF00000AFF860B9607A6000237B610AE0AFF32C
:1050000000800146BB685A1CBA60CAB21A707B693C
:1050100001337B617A697B689A42F0DB7B681846D2
:105020001837BD4680BD80B586B000AFF860B96066
:105030007A6000237B6109E0BB685A1CBA601B7868
:105040001846FFF71BFA7B6901337B617A697B683D
:105050009A42F1DB7B6818461837BD4680BD80B4A4
:1050600083B000AF78604FF0FF3318460C37BD4671
:1050700080BC704780B483B000AF786039603B6813
:105080004FF400525A60002318460C37BD4680BCCE
:10509000704780B483B000AF7860012318460C37A6
:1050A000BD4680BC704780B485B000AFF860B96081
:1050B0007A60002318461437BD4680BC7047000054
:1050C00080B586B000AF7860144A154BD31A7B6167
:1050D0007B693B61134B1B68002B02D1114B124AB9
:1050E0001A60104B1A687B6813443A699A4207D2D7
:1050F00002F0A0FB03460C221A604FF0FF3309E0D8
:10510000084B1B68FB60074B1A687B681344054A11
:105110001360FB6818461837BD4680BD005000205C
:1051200000040000180200205002002080B400AFEC
:1051300000BFBD4680BC70470C480D490D4A002396
:1051400002E0D458C4500433C4188C42F9D30A4A3C
:105150000A4C002301E013600432A242FBD3FFF7A4
:10516000E5FF02F06DFBFFF79BF9704700000020A0
:105170008C000020B08A000890000020500200201F
:10518000FEE7000080B500AF084B1B68074A43F0FC
:1051900010031360032000F023F90F2000F008F83B
:1051A000FFF778FD0023184680BD00BF00200240B5
:1051B00080B582B000AF7860124B1A68124B1B7832
:1051C00019464FF47A73B3FBF1F3B2FBF3F31846CD
:1051D00000F03BF90346002B01D001230EE07B6871
:1051E0000F2B0AD8002279684FF0FF3000F003F946
:1051F000064A7B681360002300E001231846083745
:10520000BD4680BD1C00002024000020200000209E
:1052100080B400AF054B1B781A46054B1B6813443E
:10522000034A136000BFBD4680BC704724000020C5
:105230001C02002080B400AF024B1B681846BD461C
:1052400080BC70471C02002080B485B000AF78603D
:105250007B6803F00703FB600C4BDB68BB60BA683C
:105260004FF6FF031340BB60FB681A02BB68134391
:1052700043F0BF6343F40033BB60044ABB68D360B0
:1052800000BF1437BD4680BC704700BF00ED00E092
:1052900080B400AF044BDB681B0A03F00703184619
:1052A000BD4680BC704700BF00ED00E080B483B015
:1052B00000AF0346FB7197F90730002B0BDBFB793E
:1052C00003F01F02064997F907305B09012000FA35
:1052D00002F241F8232000BF0C37BD4680BC704766
:1052E00000E100E080B483B000AF03463960FB7199
:1052F00097F90730002B0ADB3B68DAB20C4997F9C3
:1053000007301201D2B20B4483F800230AE03B6855
:10531000DAB20849FB7903F00F03043B1201D2B261
:105320000B441A7600BF0C37BD4680BC704700BFE7
:1053300000E100E000ED00E080B489B000AFF8606B
:10534000B9607A60FB6803F00703FB61FB69C3F196
:105350000703042B28BF0423BB61FB690433062B1E
:1053600002D9FB69033B00E000237B614FF0FF3271
:10537000BB6902FA03F3DA43BB681A407B699A40BF
:105380004FF0FF317B6901FA03F3D9437B680B408F
:10539000134318462437BD4680BC704780B582B0A1
:1053A00000AF78607B68013BB3F1807F01D30123BC
:1053B0000FE00A4A7B68013B53600F214FF0FF303A
:1053C000FFF790FF054B00229A60044B07221A60FA
:1053D000002318460837BD4680BD00BF10E000E03E
:1053E00080B582B000AF78607868FFF72DFF00BF0E
:1053F0000837BD4680BD80B586B000AF0346B960B2
:105400007A60FB7300237B61FFF742FF78617A6863
:10541000B9687869FFF790FF024697F90F30114697
:105420001846FFF75FFF00BF1837BD4680BD80B547
:1054300082B000AF0346FB7197F907301846FFF7BB
:1054400035FF00BF0837BD4680BD80B582B000AFD4
:1054500078607868FFF7A2FF034618460837BD4614
:1054600080BD80B485B000AF78600023FB737B689B
:1054700093F82130022B08D07B6804229A637B6862
:10548000002283F82020012320E07B681B681A6833
:105490007B681B6822F00E021A607B681B681A6822
:1054A0007B681B6822F001021A607B681A6C7B68BB
:1054B000DB6B012101FA02F25A607B68012283F85A
:1054C00021207B68002283F82020FB7B18461437BC
:1054D000BD4680BC7047000080B584B000AF7860E6
:1054E0000023FB737B6893F82130022B05D07B6887
:1054F00004229A630123FB7351E07B681B681A68DE
:105500007B681B6822F00E021A607B681B681A68B1
:105510007B681B6822F001021A607B681B68224AC4
:10552000934229D07B681B68204A934222D07B6833
:105530001B681F4A93421AD07B681B681D4A93421E
:1055400012D07B681B681C4A93420AD07B681B6898
:105550001A4A934202D14FF480130EE04FF0807349
:105560000BE04FF4803308E04FF4805305E04FF434
:10557000807302E0102300E00123114A53607B682E
:10558000012283F821207B68002283F820207B6899
:105590005B6B002B03D07B685B6B78689847FB7B69
:1055A00018461037BD4680BD080002401C0002406E
:1055B0003000024044000240580002406C000240AB
:1055C00000000240F0B587B000AFF860B960C7E9ED
:1055D00000230123FB750023BB7500237B752F4B34
:1055E0001B7E012B01D1022354E02C4B01221A76A1
:1055F0004CF2503000F0B2F80346FB75FB7D002BF7
:1056000044D1FB68012B02D101237B7507E0FB68C5
:10561000022B02D102237B7501E004237B7500235A
:10562000BB752DE0BB7D5A00BB6802EB030CBB7D54
:105630001901D7E90023C1F12006A1F1200022FAC7
:1056400001F403FA06F6344323FA00F0044323FA84
:1056500001F5A3B21946604600F064F84CF25030F0
:1056600000F07CF80346FB750D4B1B690C4A23F0D8
:1056700001031361FB7D002B07D1BB7D0133BB759B
:10568000BA7D7B7D9A42CDD300E000BF034B002260
:105690001A76FB7D18461C37BD46F0BD200200205F
:1056A0000020024080B483B000AF0023FB710D4B9B
:1056B0001B6903F08003002B0DD00A4B0A4A5A6085
:1056C000084B0A4A5A60074B1B6903F08003002B02
:1056D00001D00123FB71FB7918460C37BD4680BC15
:1056E000704700BF0020024023016745AB89EFCD22
:1056F00080B400AF054B1B69044A43F0800313617B
:1057000000231846BD4680BC704700BF0020024001
:1057100080B400AF024BDB691846BD4680BC7047C1
:105720002002002080B483B000AF78600B467B80FD
:10573000084B0022DA61084B1B69074A43F001035A
:1057400013617B687A881A8000BF0C37BD4680BC25
:10575000704700BF200200200020024080B584B0C6
:1057600000AF7860FFF766FDF86010E07B68B3F18A
:10577000FF3F0CD07B68002B07D0FFF75BFD024694
:10578000FB68D31A7A689A4201D2032325E0154BAD
:10579000DB6803F00103002BE8D1124BDB6803F058
:1057A0002003002B02D00F4B2022DA600D4BDB6868
:1057B00003F01003002B0BD10A4BDB6903F001034C
:1057C000002B05D1074BDB6803F00403002B03D04B
:1057D00000F00AF8012300E0002318461037BD4608
:1057E00080BD00BF0020024080B483B000AF002322
:1057F0007B60234BDB6803F01003002B09D0214BA7
:10580000DB6943F002031F4AD3617B6843F0100356
:105810007B601B4BDB6803F00403002B09D0194BA2
:10582000DB6943F00103174AD3617B6843F004034B
:105830007B60134BDB6903F00103002B0BD0114B92
:10584000DB6943F004030F4AD3610D4BDB690C4A5B
:1058500023F00103D3617B6840F20112934206D129
:10586000074BDB69064A23F00103D36102E0044AD7
:105870007B68D36000BF0C37BD4680BC704700BF5B
:10588000002002402002002080B584B000AF786084
:1058900039600123FB730023BB602F4B1B7E012B60
:1058A00001D1022353E02C4B01221A767B681B683E
:1058B000022B16D14CF25030FFF750FF0346002B5D
:1058C00041D1012000F04CF84CF25030FFF746FF78
:1058D0000346FB73214B1B69204A23F00403136129
:1058E00031E04CF25030FFF739FF0346002B2AD14C
:1058F0003B684FF0FF321A607B689B68BB6019E021
:10590000B86800F049F84CF25030FFF727FF034623
:10591000FB73124B1B69114A23F002031361FB7BDB
:10592000002B03D03B68BA681A600CE0BB6803F533
:105930008063BB607B68DB689A027B689B6813446A
:10594000BA689A42DCD3044B00221A76FB7B1846D5
:105950001037BD4680BD00BF20020020002002405D
:1059600080B483B000AF7860094B0022DA61094B44
:105970001B69084A43F004031361064B1B69054A7F
:1059800043F04003136100BF0C37BD4680BC704735
:10599000200200200020024080B483B000AF786075
:1059A0000B4B0022DA610B4B1B690A4A43F00203DE
:1059B0001361084A7B685361064B1B69054A43F033
:1059C0004003136100BF0C37BD4680BC704700BF69
:1059D000200200200020024080B48BB000AF78602D
:1059E000396000237B6200233B6269E101227B6A0C
:1059F00002FA03F3FB613B681B68FA691340BB6161
:105A0000BA69FB699A4240F058813B685B689A4AE0
:105A100093425ED0984A934275D8984A934258D0A0
:105A2000964A93426FD8964A934252D0944A9342F0
:105A300069D8944A93424CD0924A934263D8924A8E
:105A4000934246D0904A93425DD8122B2AD8122B0B
:105A500059D801A252F823F0D35A0008AD5A0008D1
:105A6000BF5A0008015B0008075B0008075B0008DD
:105A7000075B0008075B0008075B0008075B00087E
:105A8000075B0008075B0008075B0008075B00086E
:105A9000075B0008075B0008075B0008B55A0008B1
:105AA000C95A0008794A934213D02CE03B68DB685E
:105AB0003B6229E03B68DB6804333B6224E03B68DF
:105AC000DB6808333B621FE03B68DB680C333B62FA
:105AD0001AE03B689B68002B02D104233B6213E071
