:020000040800F2
:1000000000500020A1530008E9530008E9530008FC
:10001000E9530008E9530008E95300080000000014
:10002000000000000000000000000000E95300088C
:10003000E953000800000000E953000819510008C6
:10004000E9530008E9530008E9530008E9530008A0
:10005000E9530008E9530008E9530008E953000890
:10006000E9530008E9530008E9530008E953000880
:10007000E9530008E9530008E9530008E953000870
:10008000E9530008E9530008E9530008E953000860
:10009000E9530008E9530008E9530008E953000850
:1000A000E9530008E9530008E9530008E953000840
:1000B000C1510008E9530008E9530008E95300085A
:1000C000E9530008E9530008E9530008E953000820
:1000D000E9530008E9530008E953000831520008C9
:1000E00045520008E9530008E953000800000000E9
:1000F0000000000000000000000000000000000000
:0C01000000000000000000005FF808F1A3
:1001100010B5054C237833B9044B13B10448AFF341
:1001200000800123237010BD90000020000000001B
:10013000008B000808B5034B1BB103490348AFF31C
:10014000008008BD0000000094000020008B000823
:1001500081F0004102E000BF83F0004330B54FEA78
:1001600041044FEA430594EA050F08BF90EA020FE5
:100170001FBF54EA000C55EA020C7FEA645C7FEA78
:10018000655C00F0E2804FEA5454D4EB5555B8BF9B
:100190006D420CDD2C4480EA020281EA030382EA0C
:1001A000000083EA010180EA020281EA0303362D9E
:1001B00088BF30BD11F0004F4FEA01314FF4801C71
:1001C0004CEA113102D0404261EB410113F0004F83
:1001D0004FEA03334CEA133302D0524263EB43033A
:1001E00094EA050F00F0A780A4F10104D5F1200ED8
:1001F0000DDB02FA0EFC22FA05F2801841F1000133
:1002000003FA0EF2801843FA05F359410EE0A5F106
:1002100020050EF1200E012A03FA0EFC28BF4CF037
:10022000020C43FA05F3C01851EBE37101F00045ED
:1002300007D54FF0000EDCF1000C7EEB00006EEBFA
:100240000101B1F5801F1BD3B1F5001F0CD3490884
:100250005FEA30004FEA3C0C04F101044FEA4452DB
:1002600012F5800F80F09A80BCF1004F08BF5FEA62
:10027000500C50F1000041EB045141EA050130BD42
:100280005FEA4C0C404141EB0101013C28BFB1F554
:10029000801FE9D291F0000F04BF01460020B1FA9F
:1002A00081F308BF2033A3F10B03B3F120020CDA72
:1002B0000C3208DD02F1140CC2F10C0201FA0CF050
:1002C00021FA02F10CE002F11402D8BFC2F1200CB5
:1002D00001FA02F120FA0CFCDCBF41EA0C0190406B
:1002E000E41AA2BF01EB0451294330BD6FEA0404B4
:1002F0001F3C1CDA0C340EDC04F11404C4F120029F
:1003000020FA04F001FA02F340EA030021FA04F3B0
:1003100045EA030130BDC4F10C04C4F1200220FA07
:1003200002F001FA04F340EA0300294630BD21FA45
:1003300004F0294630BD94F0000F83F4801306BF0B
:1003400081F480110134013D4EE77FEA645C18BFFF
:100350007FEA655C29D094EA050F08BF90EA020F96
:1003600005D054EA000C04BF1946104630BD91EA8E
:10037000030F1EBF0021002030BD5FEA545C05D191
:100380004000494128BF41F0004130BD14F58004D0
:100390003CBF01F5801130BD01F0004545F0FE4144
:1003A00041F470014FF0000030BD7FEA645C1ABF79
:1003B000194610467FEA655C1CBF0B46024650EAB0
:1003C000013406BF52EA033591EA030F41F40021DC
:1003D00030BD00BF90F0000F04BF0021704730B562
:1003E0004FF4806404F132044FF000054FF0000137
:1003F00050E700BF90F0000F04BF0021704730B5F8
:100400004FF4806404F1320410F0004548BF4042CC
:100410004FF000013EE700BF42004FEAE2014FEA21
:1004200031014FEA02701FBF12F07F4393F07F4FFC
:1004300081F06051704732F07F4208BF704793F0FF
:100440007F4F04BF41F40021704730B54FF4607412
:1004500001F0004521F000411CE700BF50EA010215
:1004600008BF704730B54FF000050AE050EA0102BE
:1004700008BF704730B511F0004502D5404261EB2E
:1004800041014FF4806404F132045FEA915C3FF46F
:10049000D8AE4FF003025FEADC0C18BF03325FEA0C
:1004A000DC0C18BF033202EBDC02C2F1200300FABD
:1004B00003FC20FA02F001FA03FE40EA0E0021FAE2
:1004C00002F11444BDE600BF4FF0FF3C06E000BF60
:1004D0004FF0010C02E000BF4FF0010C4DF804CDCD
:1004E0004FEA410C7FEA6C5C4FEA430C18BF7FEA8D
:1004F0006C5C1BD001B050EA410C0CBF52EA430CBB
:1005000091EA030F02BF90EA020F0020704710F13A
:10051000000F91EA030F58BF994208BF90422CBFC9
:10052000D8176FEAE37040F0010070474FEA410CC2
:100530007FEA6C5C02D150EA013C07D14FEA430CE0
:100540007FEA6C5CD6D152EA033CD3D05DF8040B51
:10055000704700BF8446104662468C461946634683
:1005600000E000BF01B5FFF7B7FF002848BF10F15A
:10057000000F01BD4DF808EDFFF7F4FF0CBF01209F
:1005800000205DF808FB00BF4DF808EDFFF7EAFF1B
:1005900034BF012000205DF808FB00BF4DF808EDD6
:1005A000FFF7E0FF94BF012000205DF808FB00BFCB
:1005B0004DF808EDFFF7CEFF94BF012000205DF855
:1005C00008FB00BF4DF808EDFFF7C4FF34BF012062
:1005D00000205DF808FB00BF80F0004002E000BF93
:1005E00081F0004142001FBF5FEA410392EA030F1E
:1005F0007FEA226C7FEA236C6AD04FEA1262D2EB68
:100600001363C1BFD218414048404140B8BF5B426C
:10061000192B88BF704710F0004F40F4000020F005
:100620007F4018BF404211F0004F41F4000121F01B
:100630007F4118BF494292EA030F3FD0A2F1010265
:1006400041FA03FC10EB0C00C3F1200301FA03F1A3
:1006500000F0004302D5494260EB4000B0F5000FC6
:1006600013D3B0F1807F06D340084FEA310102F185
:100670000102FE2A51D2B1F1004F40EBC25008BF37
:1006800020F0010040EA03007047490040EB000001
:10069000013A28BFB0F5000FEDD2B0FA80FCACF102
:1006A000080CB2EB0C0200FA0CF0AABF00EBC2502F
:1006B00052421843BCBFD0401843704792F0000F1D
:1006C00081F4000106BF80F400000132013BB5E770
:1006D0004FEA41037FEA226C18BF7FEA236C21D0E6
:1006E00092EA030F04D092F0000F08BF084670474B
:1006F00090EA010F1CBF0020704712F07F4F04D119
:10070000400028BF40F00040704712F100723CBF2B
:1007100000F50000704700F0004343F0FE4040F455
:10072000000070477FEA226216BF08467FEA236313
:100730000146420206BF5FEA412390EA010F40F4FE
:10074000800070474FF0000304E000BF10F000434A
:1007500048BF40425FEA000C08BF704743F0964331
:1007600001464FF000001CE050EA010208BF70474C
:100770004FF000030AE000BF50EA010208BF7047D3
:1007800011F0004302D5404261EB41015FEA010CE8
:1007900002BF84460146002043F0B64308BFA3F1E0
:1007A0008053A3F50003BCFA8CF2083AA3EBC253C2
:1007B00010DB01FA02FC634400FA02FCC2F12002E1
:1007C000BCF1004F20FA02F243EB020008BF20F018
:1007D0000100704702F1200201FA02FCC2F120027E
:1007E00050EA4C0021FA02F243EB020008BF20EA73
:1007F000DC7070474FF0FF0C1CEAD0521EBF1CEAA1
:10080000D15392EA0C0F93EA0C0F6FD01A4480EA8E
:10081000010C400218BF5FEA41211ED04FF0006377
:1008200043EA501043EA5111A0FB01310CF00040A3
:10083000B1F5000F3EBF490041EAD3715B0040EAC9
:10084000010062F17F02FD2A1DD8B3F1004F40EB99
:10085000C25008BF20F00100704790F0000F0CF06C
:10086000004C08BF49024CEA502040EA51207F3A30
:10087000C2BFD2F1FF0340EAC250704740F400000B
:100880004FF00003013A5DDC12F1190FDCBF00F0FC
:1008900000407047C2F10002410021FA02F1C2F1AA
:1008A000200200FA02FC5FEA310040F1000053EA46
:1008B0004C0308BF20EADC70704792F0000F00F094
:1008C000004C02BF400010F4000F013AF9D040EA9A
:1008D0000C0093F0000F01F0004C02BF490011F42E
:1008E000000F013BF9D041EA0C018FE70CEAD1532C
:1008F00092EA0C0F18BF93EA0C0F0AD030F0004CAC
:1009000018BF31F0004CD8D180EA010000F000405F
:10091000704790F0000F17BF90F0004F084691F01D
:10092000000F91F0004F14D092EA0C0F01D1420257
:100930000FD193EA0C0F03D14B0218BF084608D120
:1009400080EA010000F0004040F0FE4040F400006A
:10095000704740F0FE4040F4400070474FF0FF0CFD
:100960001CEAD0521EBF1CEAD15392EA0C0F93EA44
:100970000C0F69D0A2EB030280EA010C49024FEA96
:10098000402037D04FF0805343EA111143EA10134F
:100990000CF000408B4238BF5B0042F17D024FF407
:1009A000000C8B4224BF5B1A40EA0C00B3EB510FE2
:1009B00024BFA3EB510340EA5C00B3EB910F24BFCB
:1009C000A3EB910340EA9C00B3EBD10F24BFA3EB50
:1009D000D10340EADC001B0118BF5FEA1C1CE0D118
:1009E000FD2A3FF650AF8B4240EBC25008BF20F0CB
:1009F000010070470CF0004C4CEA50207F32C2BF1F
:100A0000D2F1FF0340EAC250704740F400004FF0BB
:100A10000003013A37E792F0000F00F0004C02BFEC
:100A2000400010F4000F013AF9D040EA0C0093F0B6
:100A3000000F01F0004C02BF490011F4000F013B10
:100A4000F9D041EA0C0195E70CEAD15392EA0C0F78
:100A500008D142027FF47DAF93EA0C0F7FF470AFB0
:100A6000084676E793EA0C0F04D14B023FF44CAFF3
:100A700008466EE730F0004C18BF31F0004CCAD188
:100A800030F000427FF45CAF31F000437FF43CAFC4
:100A90005FE700BF4FEA4002B2F1FE4F0FD34FF0C5
:100AA0009E03B3EB12620DD94FEA002343F00043DB
:100AB00010F0004F23FA02F018BF404270474FF089
:100AC0000000704712F1610F01D1420205D110F010
:100AD000004008BF6FF0004070474FF000007047C3
:100AE00080B485B000AF78600023FB6016E0FB683F
:100AF00003F5003301339B027A689A420BD2FB68FC
:100B000003F500339B027A689A4204D3FB6803F52D
:100B100000339B0206E0FB680133FB60FB687F2B20
:100B2000E5DD002318461437BD4680BC7047000041
:100B3000B0B58AB000AFF860B9601346FB800023FF
:100B40007B6204F0E3FEF868FFF7CAFF3862FB88B7
:100B50009B001A46FB681344FB61F869FFF7C0FF6E
:100B6000B861204B00221A601E4A3B6A9360BA6942
:100B70003B6AD31A9B0A01331A4AD36007F1140364
:100B80001946184804F0B4FF0346002B1FD004F0A8
:100B9000F3FE034622E07B6A9B00BA6813441B689D
:100BA00000221C46154622462B46F968022004F016
:100BB0003DFE0346002B06D1FB680433FB607B6AD5
:100BC00001337B6203E004F0D7FE034606E0FB88B6
:100BD0007A6A9A42DFDB04F0BFFE0023184628370A
:100BE000BD46B0BDAC00002080B485B000AFF86059
:100BF000B9601346FB80FB681A68BB681A60FB6823
:100C00000433FB60BB680433BB60FB885A1EFA8068
:100C1000002B00D0EFE700BF00BF1437BD4680BCFB
:100C20007047000080B584B000AFF860B9607A60AA
:100C30003B60FB68DAB2314B1A71BB68DAB22F4BFA
:100C40005A713B68DAB22D4B9A707B68DAB22B4B43
:100C5000DA7000F041F9402000F05EF900F09EF9F2
:100C600000F0CAF900F038F9C02000F055F900F0A2
:100C700095F9224B1B781A46214B9B5C184600F0D5
:100C80004BF900F08BF91D4B5B781A461C4B9B5CB3
:100C9000184600F041F900F081F9184B9B781A468C
:100CA000174B9B5C184600F037F900F077F9134BAF
:100CB000DB781A46134B9B5C184600F02DF900F0C8
:100CC0006DF90E4B1B791A460F4B9B5C184600F0D2
:100CD00023F900F063F9094B5B791A460A4B9B5CD8
:100CE000184600F019F900F059F900F085F987204D
:100CF00000F0AEF900BF1037BD4680BD00000020F7
:100D00003C8C0008488C00082C8C000880B584B00E
:100D100000AFF860B9607A603B60FB68DAB2314BD3
:100D2000DA70BB68DAB22F4B1A717B68DAB22D4BDE
:100D30005A703B68DAB22B4B9A7000F09FF9402052
:100D400000F0BCF900F0FCF900F028FA00F096F988
:100D5000C02000F0B3F900F0F3F9224B1B781A46DB
:100D6000214B9B5C184600F0A9F900F0E9F91D4BF6
:100D70005B781A461C4B9B5C184600F09FF900F00C
:100D8000DFF9184B9B781A46174B9B5C184600F00E
:100D900095F900F0D5F9134BDB781A46124B9B5CA2
:100DA000184600F08BF900F0CBF90E4B1B791A4670
:100DB0000D4B9B5C184600F081F900F0C1F9094B1E
:100DC0005B791A46084B9B5C184600F077F900F0F7
:100DD000B7F900F0E3F9872000F00CFA00BF1037F4
:100DE000BD4680BD08000020548C000880B584B04A
:100DF00000AFF860B9607A603B60FB68DAB2344BF0
:100E00001A71BB68DAB2324BDA707B68DAB2304BF7
:100E10005A703B68DAB22E4B1A703B7E0A33DAB254
:100E20002B4B9A7000F0FCF9402000F015FA00F00E
:100E30004FFA00F077FA00F0F3F9C02000F00CFA56
:100E400000F046FA224B1B781A46224B9B5C184650
:100E500000F002FA00F03CFA1D4B5B781A461D4B7D
:100E60009B5C184600F0F8F900F032FA184B9B78BA
:100E70001A46184B9B5C184600F0EEF900F028FA71
:100E8000134BDB781A46134B9B5C184600F0E4F9D1
:100E900000F01EFA0E4B1B791A460E4B9B5C18464F
:100EA00000F0DAF900F014FA094B5B791A46094BA5
:100EB0009B5C184600F0D0F900F00AFA00F032FA14
:100EC000872000F057FA00BF1037BD4680BD00BF35
:100ED00010000020608C000880B500AF01224FF4A4
:100EE00080510C4805F047F811214FF4005000F0F4
:100EF00057FA01224FF40051064805F03CF8022051
:100F000000F082FA00224FF40051024805F033F855
:100F100000BF80BD000C014080B584B000AF034627
:100F2000FB7111214FF4005000F03AFA0023FB60EE
:100F300029E000224FF48051174805F01CF8FB7996
:100F400003F00103002B06D001224FF40051124898
:100F500005F011F805E000224FF400510E4805F0AD
:100F60000AF8032000F050FAFB795B08FB710122BC
:100F70004FF48051084804F0FEFF032000F044FACB
:100F8000FB680133FB60FB68072BD2DD00BF00BFAD
:100F90001037BD4680BD00BF000C014080B500AFDA
:100FA00000224FF48051134804F0E5FF052000F0C3
:100FB0002BFA00214FF4005000F0F2F94FF40051E9
:100FC0000C4804F0C1FF0346002B01D0FF230FE0C3
:100FD00001224FF48051074804F0CDFF022000F0B9
:100FE00013FA00224FF48051024804F0C4FF012399
:100FF000184680BD000C014080B500AF00224FF4C0
:101000008051124804F0B7FF022000F0FDF91121D1
:101010004FF4005000F0C4F900224FF400510B4887
:1010200004F0A9FF022000F0EFF901224FF48051F3
:10103000064804F0A0FF022000F0E6F901224FF478
:101040000051024804F097FF00BF80BD000C014032
:1010500080B582B000AF0346FB71FFF73DFFFB791F
:1010600063F07703DBB21846FFF756FFFFF796FFF2
:10107000FFF7C2FF00BF0837BD4680BD80B500AF97
:1010800001224FF480410C4804F075FF11214FF408
:10109000004000F085F901224FF40041064804F0B9
:1010A0006AFF022000F0B0F900224FF4004102482C
:1010B00004F061FF00BF80BD000C014080B584B02A
:1010C00000AF0346FB7111214FF4004000F068F9B6
:1010D0000023FB6029E000224FF48041174804F010
:1010E0004AFFFB7903F00103002B06D001224FF4E5
:1010F0000041124804F03FFF05E000224FF4004198
:101100000E4804F038FF032000F07EF9FB795B08FD
:10111000FB7101224FF48041084804F02CFF0320AA
:1011200000F072F9FB680133FB60FB68072BD2DD2E
:1011300000BF00BF1037BD4680BD00BF000C01409E
:1011400080B500AF00224FF48041134804F013FF34
:10115000052000F059F900214FF4004000F020F97B
:101160004FF400410C4804F0EFFE0346002B01D081
:10117000FF230FE001224FF48041074804F0FBFEFB
:10118000022000F041F900224FF48041024804F0AF
:10119000F2FE0123184680BD000C014080B500AF6F
:1011A00000224FF48041124804F0E5FE022000F0D6
:1011B0002BF911214FF4004000F0F2F800224FF417
:1011C00000410B4804F0D7FE022000F01DF9012277
:1011D0004FF48041064804F0CEFE022000F014F9DE
:1011E00001224FF40041024804F0C5FE00BF80BD5B
:1011F000000C014080B582B000AF0346FB71FFF7E1
:101200003DFFFB7963F07703DBB21846FFF756FF2B
:10121000FFF796FFFFF7C2FF00BF0837BD4680BD4E
:1012200080B500AF012280210A4804F0A4FE1121FC
:10123000402000F0B5F801224021064804F09BFE52
:10124000022000F0E1F800224021024804F093FE61
:1012500000BF80BD0008014080B584B000AF0346E8
:10126000FB711121402000F09BF80023FB6025E07A
:1012700000228021154804F07EFEFB7903F0010373
:10128000002B05D001224021104804F074FE04E038
:10129000002240210D4804F06EFE032000F0B4F857
:1012A000FB795B08FB7101228021084804F063FE92
:1012B000032000F0A9F8FB680133FB60FB68072BF3
:1012C000D6DD00BF00BF1037BD4680BD000801401D
:1012D00080B500AF00228021114804F04CFE0520AB
:1012E00000F092F80021402000F05AF840210C480C
:1012F00004F02AFE0346002B01D0FF230DE001225B
:101300008021074804F037FE022000F07DF800221B
:101310008021034804F02FFE0123184680BD00BF42
:101320000008014080B500AF00228021104804F081
:1013300022FE022000F068F81121402000F030F871
:10134000002240210A4804F016FE022000F05CF85A
:1013500001228021064804F00EFE022000F054F81D
:1013600001224021024804F006FE00BF80BD00BFFC
:101370000008014080B582B000AF0346FB71FFF763
:101380004FFFFB7963F07703DBB21846FFF764FF8A
:10139000FFF79EFFFFF7C6FF00BF0837BD4680BDC1
:1013A00080B586B000AF7860396007F1080300228D
:1013B0001A605A609A60DA607B68BB603B68FB60C9
:1013C0003B68112B02D102237B6101E001233B61C9
:1013D0007B68402B02D07B68802B06D107F1080385
:1013E0001946074804F02CFC06E007F108031946EB
:1013F000044804F025FC00BF00BF1837BD4680BD7F
:1014000000080140000C014080B483B000AF786058
:101410001AE000BF00BF00BF00BF00BF00BF00BF99
:1014200000BF00BF00BF00BF00BF00BF00BF00BFC4
:1014300000BF00BF00BF00BF00BF00BF00BF00BFB4
:1014400000BF00BF00BF00BF7B685A1E7A60002B40
:10145000DFD100BF00BF0C37BD4680BC7047000025
:1014600080B500AF032212491248FFF7BDFB104BB5
:101470001B78FF2B17D10E4B1E225A800C4B2D22AE
:101480009A800B4B4FF4E162DA80094B04221A7008
:10149000074B3C225A70064B00221A720322044961
:1014A0000448FFF745FB044B01221A7000BF80BDC2
:1014B000D000002000FC01081700002080B500AF1C
:1014C000032203490348FFF733FB00BF80BD00BF81
:1014D000D000002000FC0108B0B588B002AFAA4BD4
:1014E0001B78032B01F2268001A252F823F000BFE3
:1014F0000115000891180008291D0008EF200008B8
:10150000A24B1B78002B2CD0A04B00221A70A04BB2
:101510005B88A04AA2FB03235B099BB2D8B29C4B19
:101520005B889C4AA2FB03125209642101FB02F270
:101530009B1A9BB2984AA2FB0323DB089BB2DCB246
:10154000934B5A88944BA3FB0213D9080B469B007C
:101550000B445B00D31A9BB2DBB21A46214602F061
:1015600025FE80218D4804F0EFFC0346012B05D0B9
:101570008B4B1B688B4A934240F08180142003F010
:101580007DF88021854804F0DFFC0346012B05D05F
:10159000834B1B68834A934240F07781804B002243
:1015A0001A60814B00221A60804B00221A70784B1F
:1015B0005B88622B05D8764B5B8801339AB2744BFB
:1015C0005A80734B5B88734AA2FB03235B099BB26F
:1015D000D8B26F4B5B886F4AA2FB03125209642199
:1015E00001FB02F29B1A9BB26B4AA2FB0323DB08AE
:1015F0009BB2DCB2664B5A88674BA3FB0213D90837
:101600000B469B000B445B00D31A9BB2DBB21A461D
:10161000214602F0CBFD664B01221A701AE0654BA1
:101620001B8801339AB2634B1A80624B1B881E2BB6
:101630000DD9604B1B8803F00103DA005D4B1B885A
:1016400003F00103DB000A210A20FFF7EBFA642014
:1016500003F014F88021514804F076FC0346012B76
:10166000DDD0544B1B881E2B05D9002300220A21F4
:101670000A20FFF7D7FA4F4B00221A8005E12021FC
:10168000464804F061FC0346012B40F0958014208D
:1016900002F0F4FF2021414804F056FC0346012BE0
:1016A00040F041873E4B00221A603F4B00221A60F7
:1016B0003E4B00221A70364B5B88002B05D0344B12
:1016C0005B88013B9AB2324B5A80314B5B88314A7E
:1016D000A2FB03235B099BB2D8B22D4B5B882D4A3A
:1016E000A2FB03125209642101FB02F29B1A9BB276
:1016F000294AA2FB0323DB089BB2DCB2244B5A88A5
:10170000254BA3FB0213D9080B469B000B445B003F
:10171000D31A9BB2DBB21A46214602F047FD244B96
:1017200001221A701AE0234B1B8801339AB2214B15
:101730001A80204B1B881E2B0DD91E4B1B8803F0D3
:101740000103DA001B4B1B8803F00103DB000A21B5
:101750000A20FFF767FA642002F090FF20210F486B
:1017600004F0F2FB0346012BDDD0124B1B881E2B2D
:1017700005D9002300220A210A20FFF753FA0D4B56
:1017800000221A8000F0CFBE310100201700002097
:10179000D00000201F85EB51CDCCCCCC000C0140FB
:1017A000C80000201009910010020020140200203F
:1017B00016000020CC00002040219E4804F0C4FB0D
:1017C0000346012B05D09C4B1B689C4A934240F07A
:1017D000AA86142002F052FF4021964804F0B4FB80
:1017E0000346012B05D0944B1B68944A934240F06A
:1017F0009A86914B00221A60914B00221A60914BFD
:1018000000221A70904B1B780133DAB28E4B1A709B
:101810008E4B01221A700C220C210C2002F0C6FC07
:101820008B4B01221A701AE08A4B1B8801339AB243
:10183000884B1A80874B1B881E2B0DD9854B1B8824
:1018400003F00103DA00834B1B8803F00103DB0084
:101850000A210A20FFF7E6F9642002F00FFF402179
:10186000744804F071FB0346012BDDD0794B1B88D3
:101870001E2B05D9002300220A210A20FFF7D2F9E6
:10188000744B00221A8000F04EBE00BF00F04BBE29
:101890006E4B1B78002B4CD06C4B00221A706E4B99
:1018A000DB886E4AA2FB03239B099BB218466A4B56
:1018B000DB886B4AA2FB03235B099AB2694BA3FB4B
:1018C0000213D9080B469B000B445B00D31A9BB252
:1018D0001C46614BDA88624BA3FB021359090B4685
:1018E0001B015B1A9B00D31A9BB25E4AA2FB032327
:1018F000DB089BB21D46584BDA88594BA3FB0213F9
:1019000059090B461B015B1A9B00D31A9AB2554B1F
:10191000A3FB0213D9080B469B000B445B00D31AB0
:101920009BB21A460123009313462A462146FFF72D
:101930005DFA80213F4804F007FB0346012B05D0E8
:101940003D4B1B68484A934240F0C080142002F08F
:1019500095FE8021374804F0F7FA0346012B05D0A5
:10196000354B1B68404A934240F0C181324B002204
:101970001A60334B00221A60324B00221A70364B29
:10198000DB8841F22972934205D8334BDB880A3356
:101990009AB2314BDA80304BDB88304AA2FB03230A
:1019A0009B099BB218462C4BDB882D4AA2FB0323D4
:1019B0005B099AB22B4BA3FB0213D9080B469B0081
:1019C0000B445B00D31A9BB21C46234BDA88244B92
:1019D000A3FB021359090B461B015B1A9B00D31A88
:1019E0009BB2204AA2FB0323DB089BB21D461A4B85
:1019F000DA881B4BA3FB021359090B461B015B1A28
:101A00009B00D31A9AB2174BA3FB0213D9080B46BB
:101A10009B000B445B00D31A9BB21A460123009330
:101A200013462A462146FFF7E1F9094B01221A70B5
:101A300037E000BF000C0140C800002004499000BE
:101A400010020020140200203101002017000020A5
:101A500016000020CC000020D0000020B5814E1BD5
:101A600089888888CDCCCCCC10099100A14B1B88EB
:101A700001339AB29F4B1A809E4B1B881E2B0DD9A7
:101A80009C4B1B8803F00103DA009A4B1B8803F080
:101A90000103DB000A210A20FFF7C4F8642002F0EA
:101AA000EDFD8021944804F04FFA0346012BDDD070
:101AB000904B1B881E2B05D9002300220A210A20E7
:101AC000FFF7B0F88B4B00221A8010E120218A48E2
:101AD00004F03AFA0346012B40F09D80142002F0F6
:101AE000CDFD2021844804F02FFA0346012B40F05D
:101AF0001C85824B00221A60814B00221A60814BA8
:101B000000221A70804BDB88092B05D97E4BDB88BD
:101B10000A3B9AB27C4BDA807B4BDB887B4AA2FB88
:101B200003239B099BB21846774BDB88784AA2FBBC
:101B300003235B099AB2774BA3FB0213D9080B4628
:101B40009B000B445B00D31A9BB21C466E4BDA8899
:101B50006F4BA3FB021359090B461B015B1A9B0039
:101B6000D31A9BB26B4AA2FB0323DB089BB21D4630
:101B7000654BDA88664BA3FB021359090B461B0120
:101B80005B1A9B00D31A9AB2624BA3FB0213D908CB
:101B90000B469B000B445B00D31A9BB21A460123F1
:101BA000009313462A462146FFF720F95A4B01229B
:101BB0001A701AE04F4B1B8801339AB24D4B1A80B2
:101BC0004C4B1B881E2B0DD94A4B1B8803F001037D
:101BD000DA00484B1B8803F00103DB000A210A20CE
:101BE000FFF720F8642002F049FD2021424804F06C
:101BF000ABF90346012BDDD03E4B1B881E2B05D9CC
:101C0000002300220A210A20FFF70CF8394B00229A
:101C10001A8000F08ABC4021374804F095F9034649
:101C2000012B05D0354B1B683C4A934240F07D8424
:101C3000142002F023FD40212F4804F085F90346CB
:101C4000012B05D02D4B1B68344A934240F06D8424
:101C50002A4B00221A602A4B00221A60294B0022CC
:101C60001A702F4B1B780133DAB22D4B1A702D4BA3
:101C700001221A70002300930A230A220A210A2053
:101C8000FFF7B4F8244B01221A701AE0194B1B8895
:101C900001339AB2174B1A80164B1B881E2B0DD995
:101CA000144B1B8803F00103DA00124B1B8803F06E
:101CB0000103DB000A210A20FEF7B4FF642002F0D2
:101CC000DDFC40210C4804F03FF90346012BDDD038
:101CD000084B1B881E2B05D9002300220A210A204D
:101CE000FEF7A0FF034B00221A8000F01EBC00BFCD
:101CF00000F01BBCCC000020000C0140C8000020FC
:101D00001002002014020020D0000020B5814E1BDC
:101D100089888888CDCCCCCC16000020044990005E
:101D20003101002017000020864B1B78002B1BD0B0
:101D3000844B00221A70844B9B88844AA2FB0323A5
:101D4000DB089BB21846804B9A88804BA3FB02139A
:101D5000D9080B469B000B445B00D31A9BB2194673
:101D600000230022FEF75EFF8021794804F0ECF8A2
:101D70000346012B05D0774B1B68774A934240F00E
:101D80009A80142002F07AFC8021714804F0DCF87B
:101D90000346012B05D06F4B1B686F4A934240F0FE
:101DA000A4816C4B00221A606C4B00221A606C4BB1
:101DB00000221A70644B9B88622B06D8624B9B886A
:101DC00001339AB2604B9A8002E05F4B00229A8006
:101DD0005D4B9B885D4AA2FB0323DB089BB2184640
:101DE000594B9A88594BA3FB0213D9080B469B0009
:101DF0000B445B00D31A9BB2194600230022FEF766
:101E000011FF584B01221A702DE0574B1B880133EC
:101E10009AB2554B1A80544B1B881E2B20D94A4B23
:101E20009B884A4AA2FB0323DB089BB21846464B19
:101E30009A88464BA3FB0213D9080B469B000B4420
:101E40005B00D31A9BB21946474B1B8803F0010372
:101E5000DA00454B1B8803F00103DB00FEF7E2FECE
:101E6000642002F00BFC8021394804F06DF8034631
:101E7000012BCAD03C4B1B881E2B18D9324B9B8898
:101E8000324AA2FB0323DB089BB218462E4B9A88EA
:101E90002E4BA3FB0213D9080B469B000B445B009F
:101EA000D31A9BB2194600230022FEF7BBFE2E4B2D
:101EB00000221A8019E12021254804F045F8034644
:101EC000012B40F0A980142002F0D8FB20212048EB
:101ED00004F03AF80346012B40F029831D4B002201
:101EE0001A601E4B00221A601D4B00221A70164BFE
:101EF0009B88002B06D0144B9B88013B9AB2124B57
:101F00009A8002E0104B63229A800F4B9B880F4A05
:101F1000A2FB0323DB089BB218460B4B9A880B4BA2
:101F2000A3FB0213D9080B469B000B445B00D31A9A
:101F30009BB2194600230022FEF774FE094B0122D2
:101F40001A7041E017000020D0000020CDCCCCCC8E
:101F5000000C0140C8000020100991001002002070
:101F60001402002016000020CC000020A24B1B8889
:101F700001339AB2A04B1A809F4B1B881E2B20D98D
:101F80009E4B9B889E4AA2FB0323DB089BB218460C
:101F90009A4B9A889A4BA3FB0213D9080B469B00D5
:101FA0000B445B00D31A9BB21946934B1B8803F07A
:101FB0000103DA00904B1B8803F00103DB00FEF7FE
:101FC00031FE642002F05AFB20218E4803F0BCFF52
:101FD0000346012BCAD0884B1B881E2B18D9874B70
:101FE0009B88874AA2FB0323DB089BB21846834BDE
:101FF0009A88834BA3FB0213D9080B469B000B4422
:102000005B00D31A9BB2194600230022FEF70AFE9A
:10201000794B00221A808AE240217A4803F094FF2B
:102020000346012B05D0784B1B68784A934240F059
:102030007E82142002F022FB4021724803F084FFCC
:102040000346012B05D0704B1B68704A934240F049
:102050006E826D4B00221A606D4B00221A606D4B30
:1020600000221A706C4B1B780133DAB26A4B1A707B
:102070006A4B01221A70002300220A210A20FEF76F
:10208000D1FD674B01221A701AE05B4B1B880133AC
:102090009AB2594B1A80584B1B881E2B0DD9564BA0
:1020A0001B8803F00103DA00534B1B8803F0010384
:1020B000DB000A210A20FEF7B5FD642002F0DEFAFB
:1020C0004021504803F040FF0346012BDDD04A4B2E
:1020D0001B881E2B05D9002300220A210A20FEF7A7
:1020E000A1FD454B00221A8021E200BF1FE24B4BAD
:1020F0001B78002B27D0494B00221A703F4B1B7ACC
:10210000FF2B02D13D4B02221A723C4B19783B4BFC
:102110001B7A0A33DBB21A460C2002F047F8002380
:102120007B610AE07B69DBB20133DBB20F21184629
:1021300002F026F87B6901337B61304B1B781A462D
:102140007B699342EEDB80212E4803F0FDFE0346BF
:10215000012B05D02C4B1B68324A934240F0A980DA
:10216000142002F08BFA8021264803F0EDFE03468E
:10217000012B05D0244B1B682A4A934240F0D181A1
:10218000214B00221A60224B00221A60214B0022B0
:102190001A701A4B1B780133DAB2184B1A70174BAE
:1021A0001B78042B1AD900233B610AE03B69DBB2A0
:1021B0000133DBB20021184601F0E2FF3B69013335
:1021C0003B613B69032BF1DD0C4B02221A700B4B78
:1021D0001B7AC3F10103DAB2084B1A72074B197864
:1021E000064B1B7A0A33DBB21A460C2001F0DEFFE5
:1021F0000023FB6023E000BFCC000020D0000020C3
:10220000CDCCCCCC000C0140C8000020044990008B
:1022100010020020140200203101002017000020CD
:102220001600002010099100FB68DBB20133DBB21D
:102230000F21184601F0A4FFFB680133FB608D4BB2
:102240001B781A46FB689342EEDB8B4B01221A7017
:102250001AE08A4B1B8801339AB2884B1A80874B4D
:102260001B881E2B0DD9854B1B8803F00103DA0058
:10227000824B1B8803F00103DB000A210A20FEF7D2
:10228000D1FC642002F0FAF980217D4803F05CFE65
:102290000346012BDDD0794B1B881E2B05D900236B
:1022A00000220A210A20FEF7BDFC744B00221A808E
:1022B00037E12021724803F047FE0346012B40F02E
:1022C0008F80142002F0DAF920216D4803F03CFEE3
:1022D0000346012B40F02D816A4B00221A606A4BA5
:1022E00000221A60694B00221A70624B1B78022B85
:1022F0001AD90023BB600AE0BB68DBB20133DBB252
:102300000021184601F03CFFBB680133BB60594B0C
:102310001B781A46BB689342EEDB564B1B78013B99
:10232000DAB2544B1A7009E0524B04221A70514B26
:102330001B7AC3F10103DAB24E4B1A724D4B197876
:102340004C4B1B7A0A33DBB21A460C2001F02EFFED
:1023500000237B600AE07B68DBB20133DBB20F2134
:10236000184601F00DFF7B6801337B60414B1B7801
:102370001A467B689342EEDB3F4B01221A701AE04B
:102380003E4B1B8801339AB23C4B1A803B4B1B8857
:102390001E2B0DD9394B1B8803F00103DA00374B94
:1023A0001B8803F00103DB000A210A20FEF73AFC38
:1023B000642002F063F92021314803F0C5FD034693
:1023C000012BDDD02D4B1B881E2B05D900230022AD
:1023D0000A210A20FEF726FC284B00221A80A8E0DA
:1023E0004021274803F0B0FD0346012B05D0254BC3
:1023F0001B68274A934240F09C80142002F03EF96B
:1024000040211F4803F0A0FD0346012B05D01D4BC2
:102410001B681F4A934240F08C801A4B00221A60BE
:10242000194B00221A60194B00221A700C220C2141
:102430000C2001F0BBFE00233B600AE03B68DBB2EE
:102440000133DBB20021184601F09AFE3B680133EC
:102450003B60084B1B781A463B689342EEDB0D4B02
:1024600000221A700C4B01221A70034B01221A70C1
:1024700042E000BFD000002016000020CC00002069
:10248000000C0140C80000201002002014020020AF
:10249000044990003101002017000020274B1B88C1
:1024A00001339AB2254B1A80244B1B881E2B20D94E
:1024B000234B1B88234AA2FB0323DB089BB218464D
:1024C0001F4B1A881F4BA3FB0213D9080B469B0016
:1024D0000B445B00D31A9BB21946184B1B8803F0C0
:1024E0000103DA00154B1B8803F00103DB00FEF744
:1024F00099FB642002F0C2F84021134803F024FD48
:102500000346012BCAD00D4B1B881E2B05D9002377
:1025100000220A210A20FEF785FB084B00221A80C0
:1025200007E000BF05E000BF04E000BF02E000BF1D
:1025300000E000BF00BF1837BD46B0BDCC00002092
:10254000DC000020CDCCCCCC000C014080B584B0A8
:1025500000AF0346FB71FB79002B01D0FEF780FF33
:10256000154B1B78012B02D8134B04221A70134B06
:1025700001221A700023FB600DE0FB68DBB201331F
:10258000D9B20F4AFB681B01134401330A461A7083
:10259000FB680133FB60084B1B781A46FB689342CB
:1025A000EBDBFB68022B02D1054B04225A7401239A
:1025B00018461037BD4680BDD000002030010020F5
:1025C000EC000020B0B584B002AFAA4B01221A7013
:1025D000A94B01221A60A94B00221A80A84B9A88A5
:1025E000A84B1A80A64BDB88A54A127A92B202FB4E
:1025F00003F39AB2A44B1A8000237B604DE0A34AF8
:102600007B681B0113440F221A70A04A7B681B01D0
:10261000134404334FF000021A60994B1B7A9BB2AB
:10262000974A528802FB03F39BB2954A12781146EF
:102630007A688A42B4BF01220022D2B292B202FB6F
:1026400003F399B2914A7B681B01134408330A468D
:102650001A808E4A7B681B0113440A3300221A80B9
:102660008A4A7B681B0113440C3300221A80874A74
:102670007B681B011344023300221A70834A7B6873
:102680001B01134401331B78012B03D17B68DAB2A1
:102690007F4B1A707B6801337B60794B1B781A463D
:1026A0007B689342ABDB774B1B887A4AA2FB032300
:1026B000DB089BB21846734B1A88764BA3FB0213B8
:1026C000D9080B469B000B445B00D31A9BB21946FA
:1026D00008230822FEF7A6FA674B1B686D4AA2FB87
:1026E0000323DB081846644B19686A4BA3FB0123DC
:1026F000DA0813469B0013445B00CA1A14465F4B6A
:102700001B88644AA2FB0323DB089BB21D465B4B7C
:102710001A88604BA3FB0213D9080B469B000B449D
:102720005B00D31A9BB22A462146FEF7EFFA564BBE
:102730001B88594AA2FB03239B099BB21846524BA4
:102740001B88564AA2FB03235B099AB2514BA3FB99
:102750000213D9080B469B000B445B00D31A9BB2B3
:102760001C46494B1A884D4BA3FB021359090B46D3
:102770001B015B1A9B00D31A9BB2464AA2FB0323A0
:10278000DB089BB21D46404B1A88444BA3FB021347
:1027900059090B461B015B1A9B00D31A9AB23D4B99
:1027A000A3FB0213D9080B469B000B445B00D31A12
:1027B0009BB21A460123009313462A462146FEF790
:1027C00015FB2F4B5B88364AA2FB03235B099BB2A8
:1027D000D8B22B4B5B88324AA2FB03125209642108
:1027E00001FB02F29B1A9BB22A4AA2FB0323DB08DD
:1027F0009BB2DCB2224B5A88264BA3FB0213D908AA
:102800000B469B000B445B00D31A9BB2DBB21A460B
:10281000214601F0CBFC00233B601AE01B4A3B68D9
:102820001B01134401331A7818493B681B010B4400
:102830001B781946104601F0A3FC3B68DBB201335C
:10284000DBB201220021184601F0F0FC3B680133A5
:102850003B600B4B1B781A463B689342DEDB01F072
:1028600009FD104B01221A70012318460837BD4696
:10287000B0BD00BF30010020E0000020E8000020D3
:10288000D0000020DC000020DE000020EC00002052
:102890002C010020CDCCCCCCB5814E1B89888888FA
:1028A0001F85EB51CE000020B0B586B000AF564B6F
:1028B0001B78002B00F0BE80544B9A88544B1A8032
:1028C000544B1B78544A1B01134404331B68534A6E
:1028D0001360534B1B68013B1846FDF733FF02465C
:1028E0004E4B1B6819461046FDF784FF03461C46F5
:1028F0004C4B1B881846FDF729FF03461946204616
:10290000FDF770FE03461D46454B1B681846FDF754
:1029100019FF03463F4A1278144619462846FEF727
:102920001DF8034619463C4A230113440433196039
:10293000384B1B78384A1B01134404331B68184674
:10294000FDF76AFD2EA3D3E90023FDF73BFE034606
:10295000002B07D02F4B1B782F4A1B011344043345
:10296000314A1A602A4B1B88304AA2FB0323DB083A
:102970009BB21846264B1A882C4BA3FB0213D9088E
:102980000B469B000B445B00D31A9BB219460823ED
:102990000822FEF747F900237B6120E01D4B1B78DE
:1029A0001A467B6993420CD11A4B1B781A4A1B01B9
:1029B000134401331B7801220121184601F036FC33
:1029C0000AE0154A7B691B01134401331B7801227D
:1029D0000021184601F02AFC7B6901337B610B4B17
:1029E0001B781A467B699342D8DB114B00221A7080
:1029F000054B00221A70002300F056BFAFF3008091
:102A00008FC2F5285CFF5840CE000020D000002087
:102A1000DC0000202C010020EC000020E40000205D
:102A2000E0000020E8000020E1FAC742CDCCCCCC89
:102A300030010020A04B1B68002B20D09E4B1B6850
:102A40009E4A93421BD09C4B1B689D4A934216D0D2
:102A5000994B1B689B4A934211D0974B1B689A4A2B
:102A600093420CD04FF4967001F008FE974B002271
:102A70001A60974B00221A708F4B00221A60802137
:102A8000944803F061FA0346012B05D08A4B1B687A
:102A90008C4A934240F09482142001F0EFFD802193
:102AA0008C4803F051FA0346012B05D0824B1B687A
:102AB000844A934240F06C85874B9A88874B1A80F2
:102AC000874B1B8801339AB2854B1A80854B1B7844
:102AD000854A1B0113440A331A88814B1B889A428A
:102AE0000AD2804B1B7818467D4B19887E4A030119
:102AF00013440A330A461A80794B1B88632B2ED85D
:102B00007A4B1B68632B2AD8784B1B68784AA2FB48
:102B10000323DB081846754B1968754BA3FB01238B
:102B2000DA0813469B0013445B00CA1A14466C4B28
:102B30001B886F4AA2FB0323DB089BB21D46684B30
:102B40001A886B4BA3FB0213D9080B469B000B445E
:102B50005B00D31A9BB22A462146FEF7D7F8634B97
:102B60001B68013B1846FDF7EDFD0246614B1B68F3
:102B700019461046FDF73EFE03461C46584B1B887F
:102B80001846FDF7E3FD034619462046FDF72AFDEA
:102B900003461D46554B1B681846FDF7D3FD0346FB
:102BA000504A1278144619462846FDF7D7FE0346C8
:102BB00019464D4A2301134404331960494B1B78CD
:102BC000494A1B01134404331B681846FDF724FCD3
:102BD00037A3D3E90023FDF7F5FC0346002B07D00C
:102BE000404B1B78404A1B0113440433424A1A608D
:102BF000394B1B7A002B00F00B8101F0B3FB03462D
:102C0000013BDAB23D4B1A7000233B61F8E0364AD3
:102C10003B691B01134408331B88002B00F0EC8038
:102C2000304B1B781A463B69934240F08F802E4A06
:102C30003B691B01134408331A88304B1B789BB245
:102C4000134499B2284A3B691B01134408330A46CE
:102C50001A80254A3B691B01134402331B78002B61
:102C600061D0264B1B789AB21F493B691B010B446C
:102C70000C331B889A4243D3204B1B789AB21A49D3
:102C80003B691B010B440C331B88D31A99B2164ABB
:102C90003B691B0113440C330A461A80124A3B69F4
:102CA0001B011344023300221A70A6E0AFF3008028
:102CB0008FC2F5285CFF5840C800002008899000AA
:102CC0000449900010099100200992001002002090
:102CD00014020020000C0140D0000020DC00002085
:102CE000E80000202C010020EC000020E000002083
:102CF000CDCCCCCCE4000020E1FAC7422D0100206D
:102D0000A34A3B691B0113440C331A88A14B1B785F
:102D10009BB2D31A99B29E4A3B691B0113440C33F0
:102D20000A461A8069E09A4A3B691B0113440C3336
:102D30001A88984B1B789BB2134499B2944A3B690A
:102D40001B0113440C330A461A8056E0904A3B6933
:102D50001B01134408331B88002B0ED08C4A3B699F
:102D60001B01134408331B88013B99B2884A3B6915
:102D70001B01134408330A461A80854A3B691B012C
:102D8000134402331B78002B0FD0814A3B691B018F
:102D900013440C331B88013399B27D4A3B691B01F4
:102DA00013440C330A461A8027E0794A3B691B0119
:102DB00013440C331B88002B0ED1754A3B691B0151
:102DC00013440C3301221A80714A3B691B011344DE
:102DD000023301221A7010E06D4A3B691B01134453
:102DE0000C331B88013B99B2694A3B691B011344B0
:102DF0000C330A461A8000E000BF3B6901333B6197
:102E0000654B1B781A463B699342FFF600AF59E0C9
:102E1000624B1B785E4A1B01134408331B885F4AD0
:102E200012781046013399B2594A0301134408330A
:102E30000A461A80594B1B78554A1B01134402332A
:102E40001B78002B2CD0554B1B78514A1B01134487
:102E50000C331B88012B10D1504B1B784C4A1B01A3
:102E600013440C3300221A804C4B1B78484A1B0138
:102E70001344023300221A7024E0484B1B78444A62
:102E80001B0113440C331B88444A12781046013B43
:102E900099B23F4A030113440C330A461A8011E0E9
:102EA0003E4B1B783A4A1B0113440C331B883B4AA8
:102EB00012781046013399B2354A030113440C339A
:102EC0000A461A8001F0D6F9354B00221A60354BBC
:102ED00000221A60344B00221A70344B01221A70FF
:102EE0002DE0334B1B8801339AB2314B1A80304BA3
:102EF0001B881E2B20D92F4B1B882F4AA2FB032394
:102F0000DB089BB218462B4B1A882B4BA3FB0213F2
:102F1000D9080B469B000B445B00D31A9BB21946A1
:102F2000234B1B8803F00103DA00214B1B8803F0BD
:102F30000103DB00FDF776FE642001F09FFB80219A
:102F40001E4803F001F80346012BCAD0184B1B881A
:102F50001E2B18D9174B1B88174AA2FB0323DB082B
:102F60009BB21846134B1A88134BA3FB0213D908C4
:102F70000B469B000B445B00D31A9BB219460023FF
:102F80000022FDF74FFE0A4B00221A8000E300BF2B
:102F9000EC0000202D010020D00000202C0100209A
:102FA000C80000201002002014020020160000209B
:102FB000CC000020DC000020CDCCCCCC000C0140AB
:102FC0002021A04802F0C0FF0346012B40F0CE8133
:102FD000142001F053FB20219A4802F0B5FF03466C
:102FE000012B40F0D682984B9A88984B1A80964BCA
:102FF0001B7A002B00F0EF8001F0B4F90346013B8F
:10300000DAB2934B1A700023FB60DCE0914AFB6854
:103010001B01134408331B88002B00F0D0808E4B1B
:103020001B781A46FB6893427BD18A4AFB681B01D6
:10303000134408331A88864B1B789BB29A4215D3E7
:10304000854B1B78834A1B01134408331A88804B35
:103050001B789BB2804909780846D31A99B27D4AF9
:103060000301134408330A461A8007E07A4B1B78A1
:10307000784A1B011344083300221A80754AFB6802
:103080001B01134402331B78002B12D0714AFB68DA
:103090001B0113440C331A886D4B1B789BB21344ED
:1030A00099B26C4AFB681B0113440C330A461A8020
:1030B00086E0674B1B789AB26649FB681B010B449C
:1030C0000C331B889A4219D9614B1B789AB261491B
:1030D000FB681B010B440C331B88D31A99B25D4A61
:1030E000FB681B0113440C330A461A80594AFB68DB
:1030F0001B011344023301221A7061E0554AFB6838
:103100001B0113440C331A88514B1B789BB2D31A02
:1031100099B2504AFB681B0113440C330A461A80CB
:103120004EE04C4AFB681B01134408331B880133F3
:1031300099B2484AFB681B01134408330A461A80B7
:10314000444AFB681B01134402331B78002B26D032
:10315000404AFB681B0113440C331B88012B0ED122
:103160003C4AFB681B0113440C3300221A80394A85
:10317000FB681B011344023300221A7020E0354A19
:10318000FB681B0113440C331B88013B99B2314A85
:10319000FB681B0113440C330A461A8010E02D4AC9
:1031A000FB681B0113440C331B88013399B2294A75
:1031B000FB681B0113440C330A461A8000E000BF71
:1031C000FB680133FB60204B1B781A46FB68934277
:1031D000FFF61CAF6EE0204B1B781E4A1B01134408
:1031E00008331B88002B11D01B4B1B78194A1B017D
:1031F000134408331B88184A12781046013B99B2D1
:10320000144A0301134408330A461A80124B1B78F0
:10321000104A1B01134402331B78002B1ED00E4BA7
:103220001B780C4A1B0113440C331B880A4A127882
:103230001046013399B2074A030113440C330A467E
:103240001A8037E0000C0140D0000020DC00002094
:103250002D010020EC0000202C010020924B1B7857
:10326000924A1B0113440C331B88002B10D18E4B48
:103270001B788E4A1B0113440C3301221A808A4B9F
:103280001B788A4A1B011344023301221A7011E091
:10329000854B1B78854A1B0113440C331B88824ADB
:1032A00012781046013B99B2804A030113440C3353
:1032B0000A461A8000F0DEFF7D4B01221A702DE0D5
:1032C0007C4B1B8801339AB27A4B1A80794B1B884E
:1032D0001E2B20D9784B1B88784AA2FB0323DB08DE
:1032E0009BB21846744B1A88744BA3FB0213D9087F
:1032F0000B469B000B445B00D31A9BB219466D4BE7
:103300001B8803F00103DA006A4B1B8803F00103FA
:10331000DB00FDF787FC642001F0B0F9202168484C
:1033200002F012FE0346012BCAD0624B1B881E2BF3
:1033300018D9614B1B88614AA2FB0323DB089BB2AF
:1033400018465D4B1A885D4BA3FB0213D9080B4648
:103350009B000B445B00D31A9BB21946002300224A
:10336000FDF760FC534B00221A8012E140215448C3
:1033700002F0EAFD0346012B05D0524B1B68524A6E
:10338000934240F00681142001F078F940214C4826
:1033900002F0DAFD0346012B05D04A4B1B684A4A6E
:1033A000934240F0F680404B1B78184601F000F83D
:1033B0000346FB70FB78FF2B01D1FB7874E2FB78AE
:1033C0003A4A1B01134401331A78374B1B783749AB
:1033D0001B010B4401331B789A4204D23B4B1B6800
:1033E00001333A4A1360304AFB781370384B00229D
:1033F0001A800023BB6010E02C4ABB681B011344F9
:103400000C3300221A80294ABB681B011344023383
:1034100000221A70BB680133BB602E4B1B781A4622
:10342000BB689342E8DB294B1B68632B2AD8274BE8
:103430001B68224AA2FB0323DB081846234B1968AA
:103440001E4BA3FB0123DA0813469B0013445B00C9
:10345000CA1A14461E4B1B88184AA2FB0323DB081A
:103460009BB21D461A4B1A88144BA3FB0213D908B2
:103470000B469B000B445B00D31A9BB22A462146A5
:10348000FDF744FC00F0F6FE0E4B00221A60124BD2
:1034900000221A60114B00221A70054B01221A708B
:1034A0000F4B01221A704BE02C010020EC00002091
:1034B00016000020CC000020DC000020CDCCCCCCBD
:1034C000000C0140C800002004499000E0000020EA
:1034D000E8000020D000002010020020140200208C
:1034E000CE0000209F4B1B8801339AB29D4B1A805F
:1034F0009C4B1B881E2B20D99B4B1B889B4AA2FBF5
:103500000323DB089BB21846974B1A88974BA3FB03
:103510000213D9080B469B000B445B00D31A9BB2E5
:103520001946904B1B8803F00103DA008D4B1B8872
:1035300003F00103DB00FDF775FB642001F09EF84A
:1035400040218B4802F000FD0346012BCAD0854B79
:103550001B881E2B18D9844B1B88844AA2FB03238B
:10356000DB089BB21846804B1A88804BA3FB0213E2
:10357000D9080B469B000B445B00D31A9BB219463B
:1035800000230022FDF74EFB764B00221A8000E05C
:1035900000BF0221764802F0D7FC0346012B40F021
:1035A0002281142001F06AF80221714802F0CCFC5B
:1035B0000346012B40F01781EDE06A4B1B88013375
:1035C0009AB2684B1A80674B1B88142B40F2E0803C
:1035D000654B1B88654AA2FB0323DB089BB2184698
:1035E000614B1A88614BA3FB0213D9080B469B0061
:1035F0000B445B00D31A9BB219465A4B1B8803F04D
:103600000103DA00574B1B8803F00103DB00FDF7D1
:1036100009FB8021564802F097FC0346012B27D175
:10362000544B1B78544A1B0113441B785B005BB25C
:1036300043F001035AB24F4B1B78D1B24E4A1B01E3
:1036400013440A461A704B4B1B784B4A1B01134418
:1036500001331A78474B1B7847491B010B441B78F1
:103660001946104600F08CFD444B01221A708FE081
:1036700020213F4802F068FC0346012B33D13D4B2B
:103680001B783D4A1B0113441B78002B27D0394B74
:103690001B78394A1B0113441B785B08DBB2354A9F
:1036A0001278104603F00F03D9B2334A03011344D2
:1036B0000A461A702F4B1B782F4A1B011344013303
:1036C0001A782C4B1B782C491B010B441B7819468C
:1036D000104600F055FD2A4B9A88234B1A80274B41
:1036E00001221A7054E04021214802F02DFC0346CB
:1036F000012B4DD1234B01221A701E4B00221A7050
:10370000214B00221A801E4BDA88204B1A8000239E
:103710007B600BE07B68DBB20133DBB2012200216E
:10372000184600F083FD7B6801337B60144B1B78E7
:103730001A467B689342EDDB104B01221A70104B46
:103740001B7A002B0CD00E4B1B78032B08D900F0F2
:1037500009FE0346012B01D1FF23A5E000F0B8FECE
:103760000123A1E0CC000020DC000020CDCCCCCC9B
:10377000000C01402C010020EC000020160000206D
:10378000D000002030010020E8000020DE000020F2
:10379000642000F073FF0221454802F0D5FB034688
:1037A000012B3FF40AAF434B1B88142B18D9424B13
:1037B0001B88424AA2FB0323DB089BB218463E4B00
:1037C0001A883E4BA3FB0213D9080B469B000B44FF
:1037D0005B00D31A9BB2194600230022FDF722FAA0
:1037E000344B00221A80364B1B68364A93423BD139
:1037F000334B00221A60344B00221A60334B0022F4
:103800001A70334B1B78334A1B0113441B78002B6F
:1038100027D02F4B1B782F4A1B0113441B785B08C2
:10382000DBB22B4A1278104603F00F03D9B2294AB3
:10383000030113440A461A70254B1B78254A1B01C5
:10384000134401331A78224B1B7822491B010B4485
:103850001B781946104600F093FC1F4B9A88164BB4
:103860001A801E4B01221A70154B1B681C4A93428A
:1038700019D1134B00221A60134B00221A60134B0C
:1038800000221A70154B01221A70164B1B78002B60
:1038900003D0144B00221A7005E0134B00221A804B
:1038A000104B01221A70002318461837BD46B0BDD0
:1038B000000C0140CC000020DC000020CDCCCCCCA2
:1038C000C800002008899000100200201402002087
:1038D0002C010020EC000020D00000201600002069
:1038E00020099200300100202E0100202DE9F04136
:1038F00098B00EAF0346396287F827306B4B012230
:103900001A7097F8272097F8271097F8273018464D
:1039100000F04CFC664B1B7803F00803DBB2002B75
:103920000BD097F8270097F82710614B1B7803F00E
:1039300007030822FDF776F90AE097F8270097F8C1
:1039400027105B4B1B7803F007020023FDF76AF991
:1039500097F8270097F8271097F8272097F827302F
:10396000FDF7D4F997F8270097F8271097F8272044
:1039700097F8273001240094FDF738FA4D4B1B6867
:10398000002B4DD197F827C097F827E097F827101C
:1039900097F8270097F8274097F8275097F827605F
:1039A00097F82730FB6197F82720BA6197F82730FE
:1039B0007B6197F827203A6197F82730FB6097F8EA
:1039C0002720BA6097F82780C7F8048097F8272047
:1039D00097F827300D930C92D7F80480CDF82C80FF
:1039E000D7F80880CDF82880D7F80C80CDF824804F
:1039F000D7F81080CDF82080D7F81480CDF81C803F
:103A0000BA690692FB6905930496039502940190A6
:103A10000091734662460121274804F067F82CE0C4
:103A200097F827C097F827E097F8273097F82720CE
:103A300097F8271097F8270097F8274097F827500E
:103A400097F8276097F82780C7F81C80DFF8648014
:103A5000D8F80080CDF82080D7F81C80CDF81C80E5
:103A60000696059504940390029101920093734683
:103A700062460121114804F039F80221104804F08F
:103A800035F8C82000F0FAFD094B1B78013BDAB28B
:103A9000074B1A70064B1B78002B02D1044B1022E7
:103AA0001A7000BF2837BD46BDE8F081160000201F
:103AB00018000020C8000020188B0008448B000864
:103AC000648B000880B500AF8021A64802F03CFA64
:103AD0000346012B78D1142000F0D0FD8021A148AD
:103AE00002F032FA0346012B40F039812DE09E4B63
:103AF0001B8801339AB29C4B1A809B4B1B88142B5A
:103B000020D99A4B1B789A4AA2FB0323DB08DBB22D
:103B10001846964B1A78964BA3FB0213D9080B460E
:103B20009B000B445B00D31ADBB219468E4B1B88FB
:103B300003F00103DA008C4B1B8803F00103DB0068
:103B4000FDF770F8642000F099FD8021854802F0AF
:103B5000FBF90346012BCAD0834B1B88142B04D9D5
:103B6000814B00221A800123FAE07F4B00221A8049
:103B7000804B1B785B08DBB203F00F03DAB27D4B9E
:103B80001A707C4B1B781946002000F0F9FA794B2B
:103B90001B78002B02D1774B1F221A70734B1B78B6
:103BA0000133DAB2714B1A70704B1B78092B02D9B2
:103BB0006E4B00221A706D4B1B786F4A12681146CB
:103BC0001846FFF793FECAE02021664802F0BCF9D0
:103BD0000346012B19D04021624802F0B5F9034693
:103BE000012B12D002215F4802F0AEF90346012BEF
:103BF0000BD001215B4802F0A7F90346012B04D04A
:103C00005D4B1B68002B00F0AA80142000F036FDED
:103C10002021544802F098F90346012B19D0402185
:103C2000504802F091F90346012B12D002214D4871
:103C300002F08AF90346012B0BD00121494802F01A
:103C400083F90346012B04D04B4B1B68002B00F07B
:103C50008680484B1B785B08DBB203F00F03DAB2B7
:103C6000444B1A70434B1B781946002000F088FA29
:103C7000404B1B78002B02D13E4B1F221A703B4B4E
:103C80001B780133DAB2394B1A70384B1B78092B89
:103C900002D9364B00221A70344B1B78364A126810
:103CA00011461846FFF722FE334B00221A60334BB1
:103CB00000221A60324B00221A702DE02A4B1B881A
:103CC00001339AB2284B1A80274B1B88142B20D91A
:103CD000264B1B78264AA2FB0323DB08DBB21846DF
:103CE000224B1A78224BA3FB0213D9080B469B00E8
:103CF0000B445B00D31ADBB219461B4B1B8803F045
:103D00000103DA00184B1B8803F00103DB00FCF70A
:103D100089FF642000F0B2FC0121124802F014F97E
:103D20000346012BCAD020210E4802F00DF90346AC
:103D3000012BC3D040210B4802F006F90346012BAA
:103D4000BCD00221074802F0FFF80346012BB5D092
:103D50008021044802F0F8F80346012BAED000237E
:103D6000184680BD000C0140CC000020320100202C
:103D7000CDCCCCCC19000020C800002010020020BF
:103D800014020020B0B582B002AF974B1B78DBB2B3
:103D9000002B00F0C681944B00221A70934B1B78C5
:103DA000002B40F0C081924B1B8801339AB2904B9C
:103DB0001A808F4B1B88B3F5167F02D38C4B0022E1
:103DC0001A808B4B1A888B4BA3FB0213D9080B4626
:103DD0009B000B445B00D31A9BB2002B40F0378151
:103DE000854B1B7A002B5CD0844B1B88002B00F08A
:103DF000AE80824B1B88013B9AB2804B1A807F4B6E
:103E00001B887F4AA2FB03239B099BB218467B4B6E
:103E10001B887C4AA2FB03235B099AB2754BA3FB68
:103E20000213D9080B469B000B445B00D31A9BB2CC
:103E30001C46724B1A88734BA3FB021359090B469D
:103E40001B015B1A9B00D31A9BB26A4AA2FB032395
:103E5000DB089BB21D46694B1A886A4BA3FB021311
:103E600059090B461B015B1A9B00D31A9AB2614B8E
:103E7000A3FB0213D9080B469B000B445B00D31A2B
:103E80009BB21A460123009313462A462146FCF7AB
:103E9000ADFF5A4B1B88002B59D15B4B0F221A7078
:103EA00055E0564B1B8841F26F7293424FD8534BEB
:103EB0001B8801339AB2514B1A80504B1B88504AD1
:103EC000A2FB03239B099BB218464C4B1B884D4A0F
:103ED000A2FB03235B099AB2464BA3FB0213D9084A
:103EE0000B469B000B445B00D31A9BB21C46434B12
:103EF0001A88444BA3FB021359090B461B015B1A9A
:103F00009B00D31A9BB23B4AA2FB0323DB089BB264
:103F10001D463A4B1A883B4BA3FB021359090B462B
:103F20001B015B1A9B00D31A9AB2324BA3FB0213FC
:103F3000D9080B469B000B445B00D31A9BB21A4670
:103F40000123009313462A462146FCF74FFF2F4BCF
:103F50001B88002B7BD02D4B1B88013B9AB22B4B2F
:103F60001A802A4B1B880F2B19D9284B1B88214AF2
:103F7000A2FB0323DB089BB21846244B1A881D4B77
:103F8000A3FB0213D9080B469B000B445B00D31A1A
:103F90009BB2194608230822FCF744FE57E01B4B4E
:103FA0001B88072B34D9194B1B88124AA2FB032309
:103FB000DB089BB21846154B1A880E4BA3FB021365
:103FC000D9080B469B000B445B00D31A9BB21946E1
:103FD0000E4B1B8803F007030822FCF723FE0A4B55
:103FE00001221A7033E000BFC6000020300100201B
:103FF0002E010020CDCCCCCCD0000020DE00002053
:10400000B5814E1B8988888816000020DC000020BE
:10401000464B1B88464AA2FB0323DB089BB218468B
:10402000424B1A88424BA3FB0213D9080B469B0054
:104030000B445B00D31A9BB219463C4B1B8803F020
:1040400007020023FCF7EEFD3A4B01221A703A4BAF
:104050001A88374BA3FB021399080B469B000B44AD
:10406000D31A9BB2002B5FD1334B1A88304BA3FB82
:104070000213D9080B469B000B445B00D31A9BB27A
:10408000002B51D02C4B1B88002B4DD02B4B1B8869
:104090002B4AA2FB03239B099BB21846274B1B8884
:1040A000284AA2FB03235B099AB2214BA3FB02130C
:1040B000D9080B469B000B445B00D31A9BB21C46ED
:1040C0001E4B1A881F4BA3FB021359090B461B01F9
:1040D0005B1A9B00D31A9BB2154AA2FB0323DB0891
:1040E0009BB21D46154B1A88164BA3FB02135909A8
:1040F0000B461B015B1A9B00D31A9AB20C4BA3FB15
:104100000213D9080B469B000B445B00D31A9BB2E9
:104110001A460023009313462A462146FCF766FE02
:1041200002E000BF00E000BFBD46B0BDDC000020E3
:10413000CDCCCCCC160000202E010020DE000020CB
:10414000B5814E1B8988888880B582B000AF034650
:10415000FB71FB7901221946074803F0C7FCFB7984
:1041600002221946054803F0C1FCC82000F086FA77
:1041700000BF0837BD4680BD708B00088C8B0008DF
:1041800080B582B000AF03460A46FB711346BB718F
:10419000F979BB7930330322034803F0A7FC00BF51
:1041A0000837BD4680BD00BF988B000880B584B03D
:1041B00002AF0346FB710B46BB7113467B717B79E3
:1041C0000C2B04D10121144803F090FC1CE07B79F6
:1041D0000B2B06D1BB791A460121104803F086FC4F
:1041E00012E07B790A2B06D1BB791A4601210C48D3
:1041F00003F07CFC08E0FA79B9797B7900930B46EF
:104200000121084803F072FC074803F0F5FC00BFE9
:104210000837BD4680BD00BFA48B0008B08B0008E6
:10422000C08B0008D08B0008E08B000880B584B0FC
:1042300002AF0346FB710B46BB7113467B71F979E4
:10424000BA797B79009313460422034803F04EFCAD
:1042500000BF0837BD4680BDE88B000880B400AFC2
:10426000034B01221A7000BFBD4680BC704700BFDF
:104270001600002080B582B000AF00237B6007E00D
:104280007B68DBB2184600F019F87B6801337B606D
:10429000084B1B781A467B689342F1DB02210648E3
:1042A00003F024FC4FF4967000F0E8F900BF0837E3
:1042B000BD4680BDD0000020648B00082DE9F04190
:1042C00088B006AF0346FB71FB79234A1B011344F8
:1042D00001331B789846FB795C1CFB791E4A1B0155
:1042E000134408331B881D46FB791B4A1B011344EA
:1042F00004331B6819491846FCF77CFA0346184634
:10430000FCF7C8FB0146FB79134A1B0113440A332F
:104310001B881E46FB79104A1B01134402331B788D
:10432000002B01D1452300E04423FA790A48120109
:1043300002440C3212880492039302960191009574
:10434000234601224146064803F0D0FB00BF083750
:10435000BD46BDE8F08100BFEC0000200000C8426F
:10436000F88B000880B483B000AF0023FB710023FA
:104370003B600DE00C4A3B681B01134408331B886B
:10438000002B02D0FB790133FB713B6801333B60AA
:10439000064B1B781A463B689342EBDBFB791846C9
:1043A0000C37BD4680BC7047EC000020D0000020D8
:1043B00080B487B000AF0346FB71434B1B7A002BE0
:1043C0000AD1FB790133404A127893FBF2F101FBE9
:1043D00002F29B1ADBB272E000237B6122E0002331
:1043E0003B6116E0394A3B691B01134401331B78DA
:1043F0001A467B6901339A4208D13B69D9B207F169
:104400000C027B6913440A461A7008E03B690133C9
:104410003B612D4B1B781A463B699342E2DB7B697B
:1044200001337B61284B1B781A467B699342D6DBAC
:1044300000237B610AE007F10C027B6913441B78BF
:10444000FA799A4209D07B6901337B611E4B1B7854
:104450001A467B699342EEDB00E000BF01233B611B
:1044600026E07A693B691344174A127893FBF2F10C
:1044700001FB02F29B1A18333B4413F80C3C134A1D
:104480001B01134408331B88002B0ED07A693B694B
:1044900013440D4A127893FBF2F101FB02F29B1ACE
:1044A00018333B4413F80C3C09E03B6901333B6192
:1044B000054B1B781A463B699342D2DBFF23184613
:1044C0001C37BD4680BC7047D0000020EC000020A7
:1044D00080B487B000AF664B1B88FB8100237B61F3
:1044E0002AE000233B6121E0624A3B691B0113443F
:1044F00001331B781A467B6901339A4213D13B6919
:10450000D9B207F108027B6913440A461A70594A66
:104510003B691B011344013319783A1D7B6913442D
:104520000A461A7005E03B6901333B613B69032B86
:10453000DADD7B6901337B617B69032BD1DD3B7A5B
:1045400079794C4A1B01134401330A461A70FA89DF
:10455000494BA3FB021359080B465B000B44D31ACB
:104560009BB2022B4FD0022B7DDC002B02D0012B03
:1045700019D078E07B7A39793E4A1B011344013324
:104580000A461A70BB7AF9793A4A1B01134401337F
:104590000A461A70FB7AB979364A1B011344013373
:1045A0000A461A705FE07B7AB979324A1B011344DC
:1045B00001330A461A70FB8903F001039BB2002BFA
:1045C00010D0BB7A39792B4A1B01134401330A46B8
:1045D0001A70FB7AF979274A1B01134401330A4602
:1045E0001A7040E0BB7AF979224A1B011344013367
:1045F0000A461A70FB7A39791E4A1B0113440133AB
:104600000A461A702FE07B7AF9791A4A1B01134483
:1046100001330A461A70FB8903F001039BB2002B99
:1046200010D1BB7A3979134A1B01134401330A466E
:104630001A70FB7AB9790F4A1B01134401330A46F9
:104640001A700FE0BB7AB9790A4A1B01134401338F
:104650000A461A70FB7A3979064A1B011344013362
:104660000A461A7000BF00BF1C37BD4680BC7047A9
:10467000BC000020EC000020ABAAAAAA80B483B042
:1046800000AF78600B4A7B6813600B4B01221A70F5
:104690000A4B00221A6000BF084B1A68054B1B68C2
:1046A0009A42F9D9044B00221A7000BF0C37BD465C
:1046B00080BC704734010020BE000020C0000020F4
:1046C00080B582B000AF7860391D4FF0FF33012212
:1046D000034802F04EFD7B6818460837BD4680BD92
:1046E000C801002080B582B002AF00F07FFE00F06C
:1046F00075FA00F075FB00F049FB00F0FBFA00F0E2
:10470000A9FAB34802F0EAF8B14B1B6800225A62DA
:10471000B04802F02DF90120FDF718FFAE4B1B78D1
:10472000042BFBD801A252F823F000BF4147000838
:10473000A5480008E9490008E34A0008B14A000812
:104740004FF40041A54801F02EFC002300220A216D
:104750000A20FCF767FA0A230A220A210A20FCF73A
:10476000D5FA002300930A230A220A210A20FCF723
:104770003DFB012200210020FFF758FD0C220C21F7
:104780000C20FFF713FD00210020FFF7F9FC0020AB
:10479000FFF7DAFCFFF762FD0121914801F0D4FB3D
:1047A0000346012B39D11420FFF768FF01218C4803
:1047B00001F0CAFB0346012B6DD11AE0894B1B881F
:1047C00001339AB2874B1A80864B1B88142B0DD964
:1047D000844B1B8803F00103DA00824B1B8803F033
:1047E0000103DB000A210A20FCF71CFA6420FFF712
:1047F00045FF01217A4801F0A7FB0346012BDDD0DC
:10480000784B1B88142B04D9FFF728FD724B01222B
:104810001A70744B00221A803DE08021704801F02C
:1048200093FB0346012B36D11420FFF727FF80218D
:104830006B4801F089FB0346012B2CD11AE0694B30
:104840001B8801339AB2674B1A80664B1B88142B66
:104850000DD9644B1B8803F00103DA00614B1B8800
:1048600003F00103DB000A210A20FCF7DBF96420D6
:10487000FFF704FF80215A4801F066FB0346012B35
:10488000DDD0584B1B88142B02D9534B04221A70CD
:10489000544B00221A80504B1B78002B00D17BE731
:1048A00000BF90E1FDF78EFE4FF400414B4801F050
:1048B0007AFBFFF767FA0121494801F045FB0346FF
:1048C000012B3DD11420FFF7D9FE0121444801F00E
:1048D0003BFB0346012B73D11AE0424B1B8801338B
:1048E0009AB2404B1A803F4B1B88142B0DD93D4B7D
:1048F0001B8803F00103DA003A4B1B8803F0010325
:10490000DB000A210A20FCF78DF96420FFF7B6FED0
:104910000121334801F018FB0346012BDDD0314B58
:104920001B88142B03D92C4B00221A7004E0FFF7CC
:1049300095FC294B02221A702A4B00221A803FE074
:104940000221274801F000FB0346012B38D1142037
:10495000FFF794FE0221224801F0F6FA0346012BEC
:104960002ED11AE01F4B1B8801339AB21D4B1A80BF
:104970001C4B1B88142B0DD91A4B1B8803F0010309
:10498000DA00184B1B8803F00103DB000A210A2020
:10499000FCF748F96420FFF771FE0221104801F08E
:1049A000D3FA0346012BDDD00E4B1B88142B04D900
:1049B000FFF754FC084B03221A700A4B00221A809E
:1049C000054B1B78012B00D173E700BFFBE000BF54
:1049D00038010020800100200C0200200008014066
:1049E000000C01400E0200200821774801F0DBFA9C
:1049F000FDF75AFF03461A46744B1A70734B1B7827
:104A0000012B03D1724B01221A7007E06F4B1B7808
:104A1000FF2B03D10F210020FFF7B2FBFFF7B2F904
:104A20000121694801F090FA0346012B39D1142085
:104A3000FFF724FE0121644801F086FA0346012BAA
:104A40002FD11AE0634B1B8801339AB2614B1A8055
:104A5000604B1B88142B0DD95E4B1B8803F00103A0
:104A6000DA005C4B1B8803F00103DB000A210A20FB
:104A7000FCF7D8F86420FFF701FE0121524801F04D
:104A800063FA0346012BDDD0524B1B88142B05D94A
:104A90000020FDF75BFD4E4B00221A704D4B0022AB
:104AA0001A804B4B1B78022B00D1A1E700BF8AE094
:104AB0000F210020FFF764FB474B1B6819460020BD
:104AC000FEF714FFFEF7FEFF0346002B02D0404B1B
:104AD00000221A703E4B1B78042B00D1F2E700BF76
:104AE00071E0FCF7BDFC002300220A210A20FCF73C
:104AF00099F80A230A220A210A20FCF707F9002361
:104B000000930A230A220A210A20FCF76FF90C22DB
:104B10000C210C20FFF74AFB00210020FFF730FB9F
:104B20000020FFF711FBFCF7D7FCFFF72BF9022160
:104B3000254801F009FA0346012B3DD11420FFF767
:104B40009DFD0221204801F0FFF90346012B33D1DE
:104B50001AE0204B1B8801339AB21E4B1A801D4B62
:104B60001B88142B0DD91B4B1B8803F00103DA00A3
:104B7000184B1B8803F00103DB000A210A20FCF715
:104B800051F86420FFF77AFD02210F4801F0DCF9AB
:104B90000346012BDDD00F4B1B88142B09D9FFF7DF
:104BA0005DFB0020FDF7D2FCFCF788FC084B0122DE
:104BB0001A70084B00221A80054B1B78032B00D17A
:104BC000B1E700BF00BFA9E5000C01400D020020C5
:104BD0000C0200200E020020C800002080B590B01A
:104BE00000AF07F1180328220021184602F076FFD3
:104BF0003B1D00221A605A609A60DA601A61022333
:104C0000BB610123BB621023FB6200237B6307F1BE
:104C10001803184601F0F8F90346002B01D000F004
:104C2000B7F90F237B600023BB600023FB600023E8
:104C30003B6100237B613B1D0021184601F066FCAF
:104C40000346002B01D000F0A3F900BF4037BD465A
:104C500080BD000080B586B000AF07F108030022D8
:104C60001A605A609A60DA603B4600221A605A6005
:104C70001E4B1F4A1A601D4B07225A601B4B002215
:104C80009A601A4B4FF6FF72DA60184B00221A61D5
:104C9000164B00225A61154B00229A61134801F00D
:104CA000CDFD0346002B01D000F072F94FF4805384
:104CB000BB6007F1080319460C4801F0B3FF034637
:104CC000002B01D000F064F900233B6000237B60DF
:104CD0003B461946054802F08FF90346002B01D0E8
:104CE00000F056F900BF1837BD4680BD38010020DE
:104CF000002C014080B586B000AF07F10803002208
:104D00001A605A609A60DA603B4600221A605A6064
:104D10001D4B4FF080421A601B4B4F225A601A4BBA
:104D200000229A60184B42F20F72DA60164B002292
:104D30001A61154B80229A61134801F07FFD0346EA
:104D4000002B01D000F024F94FF48053BB6007F131
:104D5000080319460C4801F065FF0346002B01D0FB
:104D600000F016F900233B6000237B603B461946A8
:104D7000054802F041F90346002B01D000F008F984
:104D800000BF1837BD4680BD8001002080B500AF50
:104D9000114B124A1A60104B4FF416525A600E4BC8
:104DA00000229A600C4B0022DA600B4B00221A6141
:104DB000094B0C225A61084B00229A61064B0022D3
:104DC000DA61054802F088F90346002B01D000F0B3
:104DD000DFF800BF80BD00BFC801002000480040D0
:104DE00080B586B000AF07F1080300221A605A6050
:104DF0009A60DA60334B9B69324A43F00403936153
:104E0000304B9B6903F004037B607B682D4B9B69EF
:104E10002C4A43F0080393612A4B9B6903F0080373
:104E20003B603B68002248F2C001274801F0A3F82C
:104E300000224FF21811254801F09DF848F2C003F6
:104E4000BB600123FB6000233B6102237B6107F110
:104E5000080319461C4800F0F3FEE323BB6000235F
:104E6000FB6002233B6107F108031946174800F075
:104E7000E7FE4FF21813BB600123FB6000233B6188
:104E800002237B6107F108031946104800F0D8FEA1
:104E90004FF40063BB600E4BFB6001233B6107F1E5
:104EA00008031946084800F0CBFE00220021282004
:104EB00000F0D5FB282000F0EEFB00BF1837BD4600
:104EC00080BD00BF0010024000080140000C0140FE
:104ED0000000311080B582B000AF0346FB80FB8834
:104EE000B3F5006F45D14FF40061244801F02CF870
:104EF0000346002B04D1224B1B6800225A6239E082
:104F00001F4B1B685B6AB3F57A7F0DD91D4B1B786D
:104F1000DBB21A464FF0004323FA02F21A4B1B6829
:104F20001343194A13600CE0164B1B78DBB21A4688
:104F30004FF00043D340DA43134B1B681340124A2F
:104F40001360104B1B78DBB20133DAB20D4B1A70D1
:104F50000C4B1B78DBB2182B0CD10B4B1B681B0ABC
:104F60000A4A1360084B00221A60064B00221A708E
:104F700000E000BF00BF0837BD4680BD000801400B
:104F8000380100201402002010020020C800002078
:104F900080B400AF72B600BFFEE7000080B485B0F9
:104FA00000AF154B9B69144A43F001039361124B08
:104FB0009B6903F00103BB60BB680F4BDB690E4AC2
:104FC00043F08053D3610C4BDB6903F080537B606B
:104FD0007B680A4B5B68FB60FB6823F0E063FB6067
:104FE000FB6843F00073FB60044AFB68536000BF3A
:104FF0001437BD4680BC70470010024000000140DD
:1050000080B584B000AF78607B681B68164A934215
:105010000CD1164B9B69154A43F400639361134B03
:105020009B6903F40063FB60FB6818E07B681B6806
:10503000B3F1804F13D10D4BDB690C4A43F00103F0
:10504000D3610A4BDB6903F00103BB60BB6800223C
:1050500001211C2000F003FB1C2000F01CFB00BF02
:105060001037BD4680BD00BF002C0140001002403B
:1050700080B588B000AF786007F1100300221A6095
:105080005A609A60DA607B681B68204A934239D183
:105090001F4BDB691E4A43F48023D3611C4BDB6941
:1050A00003F48023FB60FB68194B9B69184A43F0AB
:1050B00008039361164B9B6903F00803BB60BB6850
:1050C0004FF480633B6102237B610323FB6107F1A3
:1050D000100319460F4800F0B3FD4FF400633B6125
:1050E00000237B610023BB6107F1100319460948C7
:1050F00000F0A6FD00220221272000F0B0FA2720B0
:1051000000F0C9FA00BF2037BD4680BD004800400E
:1051100000100240000C014080B500AF224B1B88FC
:105120009BB201339AB2204B1A80204B1B78DBB222
:10513000012B05D11E4B1B6801331D4A136002E091
:105140001B4B00221A60184B1B889BB242F2107254
:10515000934202D1144B00221A80134B1B889BB23E
:10516000144AA2FB03125209642101FB02F29B1AAA
:105170009BB2002B02D1104B01221A700A4B1B88E4
:105180009BB20C4AA2FB03125209642101FB02F2FA
:105190009B1A9BB2002B02D1084B01221A7000F01F
:1051A0006BF900BF80BD00BFBC000020BE00002026
:1051B000C00000201F85EB51C4000020C500002066
:1051C00080B500AF164B01221A70164B1B78DBB26C
:1051D000002B12D0134B1B78DBB2FF2B0DD001221A
:1051E0004FF48071104800F0C6FE0E4B1B78DBB206
:1051F000013BDAB20B4B1A700DE00A4B1B78DBB2A5
:10520000002B08D100224FF48071074800F0B3FE54
:10521000044BFF221A70054801F0FCFB00BF80BD63
:10522000C600002016000020000C01408001002074
:1052300080B500AF024802F02FF800BF80BD00BF6C
:10524000C801002080B500AF4FF4006000F0C4FE3C
:1052500000BF80BD80B586B000AFF860B9607A60ED
:1052600000237B610AE0AFF300800146BB685A1C53
:10527000BA60CAB21A707B6901337B617A697B6854
:105280009A42F0DB7B6818461837BD4680BD80B572
:1052900086B000AFF860B9607A6000237B6109E0F6
:1052A000BB685A1CBA601B781846FFF709FA7B697D
:1052B00001337B617A697B689A42F1DB7B6818462F
:1052C0001837BD4680BD80B483B000AF78604FF022
:1052D000FF3318460C37BD4680BC704780B483B09E
:1052E00000AF786039603B684FF400525A60002389
:1052F00018460C37BD4680BC704780B483B000AF01
:105300007860012318460C37BD4680BC704780B4D6
:1053100085B000AFF860B9607A6000231846143792
:10532000BD4680BC7047000080B586B000AF786095
:10533000144A154BD31A7B617B693B61134B1B6885
:10534000002B02D1114B124A1A60104B1A687B686D
:1053500013443A699A4207D202F096FB03460C22A4
:105360001A604FF0FF3309E0084B1B68FB60074BE6
:105370001A687B681344054A1360FB68184618379F
:10538000BD4680BD0050002000040000180200202F
:105390005002002080B400AF00BFBD4680BC704703
:1053A0000C480D490D4A002302E0D458C450043380
:1053B000C4188C42F9D30A4A0A4C002301E0136056
:1053C0000432A242FBD3FFF7E5FF02F063FBFFF7D5
:1053D00089F97047000000208C000020248D00080F
:1053E0009000002050020020FEE7000080B500AFD2
:1053F000084B1B68074A43F010031360032000F0BA
:1054000023F90F2000F008F8FFF7C8FD0023184625
:1054100080BD00BF0020024080B582B000AF786040
:10542000124B1A68124B1B7819464FF47A73B3FB70
:10543000F1F3B2FBF3F3184600F03BF90346002BFF
:1054400001D001230EE07B680F2B0AD80022796877
:105450004FF0FF3000F003F9064A7B681360002329
:1054600000E0012318460837BD4680BD1C0000201F
:10547000240000202000002080B400AF054B1B78E2
:105480001A46054B1B681344034A136000BFBD4610
:1054900080BC7047240000201C02002080B400AFB4
:1054A000024B1B681846BD4680BC70471C0200209A
:1054B00080B485B000AF78607B6803F00703FB60C1
:1054C0000C4BDB68BB60BA684FF6FF031340BB6050
:1054D000FB681A02BB68134343F0BF6343F4003315
:1054E000BB60044ABB68D36000BF1437BD4680BCB4
:1054F000704700BF00ED00E080B400AF044BDB68F4
:105500001B0A03F007031846BD4680BC704700BF66
:1055100000ED00E080B483B000AF0346FB7197F963
:105520000730002B0BDBFB7903F01F02064997F9CC
:1055300007305B09012000FA02F241F8232000BF86
:105540000C37BD4680BC704700E100E080B483B0FA
:1055500000AF03463960FB7197F90730002B0ADB77
:105560003B68DAB20C4997F907301201D2B20B440A
:1055700083F800230AE03B68DAB20849FB7903F0BC
:105580000F03043B1201D2B20B441A7600BF0C3752
:10559000BD4680BC704700BF00E100E000ED00E0C8
:1055A00080B489B000AFF860B9607A60FB6803F03E
:1055B0000703FB61FB69C3F10703042B28BF042326
:1055C000BB61FB690433062B02D9FB69033B00E096
:1055D00000237B614FF0FF32BB6902FA03F3DA4329
:1055E000BB681A407B699A404FF0FF317B6901FA32
:1055F00003F3D9437B680B40134318462437BD4659
:1056000080BC704780B582B000AF78607B68013B9A
:10561000B3F1807F01D301230FE00A4A7B68013B8D
:1056200053600F214FF0FF30FFF790FF054B002232
:105630009A60044B07221A60002318460837BD46BB
:1056400080BD00BF10E000E080B582B000AF7860A0
:105650007868FFF72DFF00BF0837BD4680BD80B5D5
:1056600086B000AF0346B9607A60FB7300237B61AC
:10567000FFF742FF78617A68B9687869FFF790FFB1
:10568000024697F90F3011461846FFF75FFF00BF3B
:105690001837BD4680BD80B582B000AF0346FB71B0
:1056A00097F907301846FFF735FF00BF0837BD46AA
:1056B00080BD80B582B000AF78607868FFF7A2FF48
:1056C000034618460837BD4680BD80B485B000AF9C
:1056D00078600023FB737B6893F82130022B08D09D
:1056E0007B6804229A637B68002283F820200123D0
:1056F00020E07B681B681A687B681B6822F00E023A
:105700001A607B681B681A687B681B6822F00102BC
:105710001A607B681A6C7B68DB6B012101FA02F26C
:105720005A607B68012283F821207B68002283F87D
:105730002020FB7B18461437BD4680BC7047000014
:1057400080B584B000AF78600023FB737B6893F86A
:105750002130022B05D07B6804229A630123FB735E
:1057600051E07B681B681A687B681B6822F00E0298
:105770001A607B681B681A687B681B6822F001024C
:105780001A607B681B68224A934229D07B681B6899
:10579000204A934222D07B681B681F4A93421AD04A
:1057A0007B681B681D4A934212D07B681B681C4AA9
:1057B00093420AD07B681B681A4A934202D14FF485
:1057C00080130EE04FF080730BE04FF4803308E05D
:1057D0004FF4805305E04FF4807302E0102300E0A3
:1057E0000123114A53607B68012283F821207B68E2
:1057F000002283F820207B685B6B002B03D07B6842
:105800005B6B78689847FB7B18461037BD4680BDB8
:10581000080002401C0002403000024044000240E8
:10582000580002406C00024000000240F0B587B012
:1058300000AFF860B960C7E900230123FB750023BE
:10584000BB7500237B752F4B1B7E012B01D10223DF
:1058500054E02C4B01221A764CF2503000F0B2F892
:105860000346FB75FB7D002B44D1FB68012B02D165
:1058700001237B7507E0FB68022B02D102237B75B5
:1058800001E004237B750023BB752DE0BB7D5A002E
:10589000BB6802EB030CBB7D1901D7E90023C1F102
:1058A0002006A1F1200022FA01F403FA06F634439F
:1058B00023FA00F0044323FA01F5A3B21946604627
:1058C00000F064F84CF2503000F07CF80346FB75B1
:1058D0000D4B1B690C4A23F001031361FB7D002B68
:1058E00007D1BB7D0133BB75BA7D7B7D9A42CDD399
:1058F00000E000BF034B00221A76FB7D18461C37E0
:10590000BD46F0BD200200200020024080B483B0DC
:1059100000AF0023FB710D4B1B6903F08003002BCC
:105920000DD00A4B0A4A5A60084B0A4A5A60074B84
:105930001B6903F08003002B01D00123FB71FB796D
:1059400018460C37BD4680BC704700BF002002409F
:1059500023016745AB89EFCD80B400AF054B1B69D0
:10596000044A43F08003136100231846BD4680BCFF
:10597000704700BF0020024080B400AF024BDB69DB
:105980001846BD4680BC70472002002080B483B01A
:1059900000AF78600B467B80084B0022DA61084B31
:1059A0001B69074A43F0010313617B687A881A80F8
:1059B00000BF0C37BD4680BC704700BF20020020EE
:1059C0000020024080B584B000AF7860FFF766FD2C
:1059D000F86010E07B68B3F1FF3F0CD07B68002BD0
:1059E00007D0FFF75BFD0246FB68D31A7A689A423C
:1059F00001D2032325E0154BDB6803F00103002BE4
:105A0000E8D1124BDB6803F02003002B02D00F4BD0
:105A10002022DA600D4BDB6803F01003002B0BD162
:105A20000A4BDB6903F00103002B05D1074BDB6850
:105A300003F00403002B03D000F00AF8012300E078
:105A4000002318461037BD4680BD00BF002002402D
:105A500080B483B000AF00237B60234BDB6803F08E
:105A60001003002B09D0214BDB6943F002031F4ACE
:105A7000D3617B6843F010037B601B4BDB6803F052
:105A80000403002B09D0194BDB6943F00103174ACB
:105A9000D3617B6843F004037B60134BDB6903F045
:105AA0000103002B0BD0114BDB6943F004030F4AB9
:105AB000D3610D4BDB690C4A23F00103D3617B6892
:105AC00040F20112934206D1074BDB69064A23F0EC
:105AD0000103D36102E0044A7B68D36000BF0C3746
